:100000000C9456000C946B000C946B000C946B00D9
:100010000C946B000C946B000C946B000C946B00B4
:100020000C946B000C946B000C946B000C946B00A4
:100030000C946B000C946B000C946B000C946B0094
:100040000C946B000C946B000C946B000C946B0084
:100050000C946B000C946B000C946B000C946B0074
:100060000C946B000C946B000C946B000C946B0064
:100070000C946B000C946B000C946B000C946B0054
:100080000C946B000C946B000C946B000C946B0044
:100090000C946B000C946B000C946B000C946B0034
:1000A0000C946B000C946B000C946B0011241FBE1D
:1000B000CFEFDAE0DEBFCDBF11E0A0E0B1E0E6E0D7
:1000C000F2E002C005900D92A230B107D9F70E946C
:1000D000A9000C9401010C94000080910001909102
:1000E0000101009749F0579A569A559A549A5F9889
:1000F000109201011092000180E090E008955E9856
:100100005D9A5C9880E090E008955E9A5D9A5C98B4
:1001100080E090E008955E9A5D985C9880E090E0C1
:1001200008955E9A5D985C9A80E090E008955E98EC
:100130005D985C9A80E090E008955E985D9A5C9A84
:1001400080E090E008955E9A5D9A5C9A80E090E08D
:1001500008956E9A8EB11EB880E880936100109267
:1001600061000E946D000E94A3008FEF93EDA0E359
:1001700081509040A040E1F700C000000E949D0027
:100180008FEF93EDA0E381509040A040E1F700C0D5
:1001900000000E9497008FEF93EDA0E38150904004
:1001A000A040E1F700C000000E9491008FEF93EDA6
:1001B000A0E381509040A040E1F700C000000E9401
:1001C0008B008FEF93EDA0E381509040A040E1F7CA
:1001D00000C000000E9485008FEF93EDA0E38150E6
:1001E0009040A040E1F700C000000E947F008FEF28
:1001F00093EDA0E381509040A040E1F700C00000E3
:06020000B2CFF894FFCF1D
:020206000100F5
:00000001FF
