:100000000C940C010C9429010C9429010C943C01D2
:100010000C9429010C9429010C9429010C942901B8
:100020000C9429010C9429010C9414050C944E0590
:100030000C9429010C9429010C9429010C94290198
:100040000C9429010C9429010C9429010C94290188
:100050000C9429010C9429010C9429010C94290178
:100060000C9429010C9429010C9429010C94290168
:100070000C9429010C9429010C9429010C94290158
:100080000C9429010C9429010C9429010C94290148
:100090000C9429010C9429010C9429010C94290138
:1000A0000C9429010C9429010C942901B504B20483
:1000B000AF04AC04A904A604A304A0049D049A04FC
:1000C0009704940491048E048B04880485048204AC
:1000D0007F047C0479047604730470046D046A045C
:1000E0006704640461045E045B045804550452040C
:1000F0004F044C0449044604430440043D043A04BC
:100100003704340431042E042B042804250422046B
:100110001F041C0419041604130410040D040A041B
:10012000070404040104FE03FB03F803F5030D0AAE
:1001300020477A3A2020000D0A2047793A202000F3
:100140000D0A2047783A2020000D0A20417A3A20F3
:1001500020000D0A2041793A2020000D0A20417824
:100160003A2020000001000098011200020000AABD
:10017000014300030000ED010401030904F1011231
:1001800002030904050206030309040D0208000125
:10019000C1120180360181361201000202000010F6
:1001A000C0167A04000101020301090243000201A2
:1001B00000C0320904000001020201000524001001
:1001C000010524010101042402060524060001079B
:1001D00005820310004009040100020A0000000724
:1001E00005030240000007058402400000040309E3
:1001F0000412034A002E0020004600690065006ECC
:10020000006500000006034D0032000000080334C2
:10021000003100300000000011241FBECFEFDAE0F3
:10022000DEBFCDBF12E0A0E0B1E0E6E4F0E202C044
:1002300005900D92A431B107D9F712E0A4E1B2E024
:1002400001C01D92A033B107E1F70E941E020C9479
:1002500021100C94000080910201909103010097FD
:1002600041F08EE192E00E94360810920301109254
:10027000020180E090E008951F920F920FB60F9256
:1002800011248F939F9381E090E0909303018093DA
:1002900002019F918F910F900FBE0F901F901895A4
:1002A000CF93DF93879A869A8E9A8F9AC8E8D0E088
:1002B00080E891E0998388836881798180E090E08B
:1002C0000E94B20C20E030E040E05FE30E94360B79
:1002D0000E94620970938B0060938A006881798123
:1002E00080E090E00E94B20C20E030E040E05FE36C
:1002F0000E94360B0E94620970938D0060938C00FF
:10030000E1E8F0E080818B7F808380818D7F808336
:10031000808181608083259A269A279A80818061D6
:1003200080838081877F8083E0E8F0E08081826045
:1003300080838081816080838081806880838081E8
:1003400080648083808180628083808180618083FB
:1003500080818860808380818460808380E090E0F9
:10036000DF91CF9108958091000190910101009754
:1003700031F00E94EC0210920101109200010E94E3
:100380000503882309F440C08BE591E00E94B7067D
:1003900080911E0290911F020E94EF0682E591E07B
:1003A0000E94B706809120029091210286579D4FAE
:1003B0000E94EF0689E491E00E94B7068091220234
:1003C0009091230280519C4D0E94EF0680E491E0C1
:1003D0000E94B70680912402909125020E94EF06A8
:1003E00087E391E00E94B706809126029091270250
:1003F0000E94EF068EE291E00E94B70680912802EB
:10040000909129020E94EF0680E090E0089580918B
:10041000180290911902181619063CF48F988E98BC
:100420006E9A76986A9A729A06C08F9A8E9A6E9A87
:10043000769A6A9A729880E090E008951F936E9A77
:100440008EB11EB810E810936100109261000E94F6
:10045000430215BF15BF78940E9450018091140289
:10046000609115020E94C8070E942B018091200212
:100470009091210286579D4F909319028093180204
:100480000E940702F1CF589A599A5A9A8CE08093A9
:10049000B800E9E6F0E080818062808380818F7E11
:1004A0008083EA9A7894089584E88093BC008091D0
:1004B000BC0087FFFCCF8091BB00089584E9809346
:1004C000BC00089520E030E08091BC0087FD06C0AC
:1004D0002F5F3F4F83E0293E3807B1F781E093E07B
:1004E000283E390709F480E008958093BB0084E832
:1004F0008093BC000E946202882321F08091B900A1
:10050000887F089580E008951F93DF93CF930F9223
:10051000CDB7DEB7182F84EA8093BC0069830E94B0
:1005200062026981882371F0812F880F662331F080
:100530008F5F0E947502883451F404C00E947502D6
:10054000803229F484E98093BC0080E001C081E01E
:100550000F90CF91DF911F9108950F931F93162F46
:10056000042F60E00E948402882379F0812F0E948A
:100570007502882351F0802F0E947502882329F08C
:1005800084E98093BC0081E001C080E01F910F915D
:1005900008950F931F93182F062F60E00E94840286
:1005A000882389F0802F0E947502882361F084E9F6
:1005B0008093BC00812F61E00E948402882319F09F
:1005C0000E94540201C080E01F910F910895809114
:1005D000E80080FFFCCF089581E08093D70080EA97
:1005E0008093D80082E189BD09B400FEFDCF80E987
:1005F0008093D8001092E00010921A0210921B0211
:100600008CE08093E2007894089580911A02089516
:100610009FB7F89480911A02882339F083E0809381
:10062000E9008091E80085FD03C09FBF8FEF08952A
:100630008091F1002091E80025FD03C02BE6209376
:10064000E8009FBF08959FB7F89480911A0288230D
:1006500031F083E08093E9008091F20001C080E0F6
:100660009FBF089580911A02882371F08FB7F89484
:1006700093E09093E9009BE602C09093E8002091FC
:10068000E80025FDFACF8FBF089590911A029923B3
:10069000D1F19FB7F89424E02093E90020911D0246
:1006A000222341F02091E80025FD02C09FBF2BC00E
:1006B00010921D022091E400275E34E04091E80092
:1006C00045FD12C09FBF9091E400921721F481E094
:1006D00080931D0218C090911A029923B1F09FB720
:1006E000F8943093E900EACF8093F1008091E8001C
:1006F00085FD03C08AE38093E80085E080931C02B7
:100700009FBF80E008958FEF08958FEF0895909137
:100710001A029923D9F09FB7F89424E02093E900B6
:100720002091E80025FD03C09FBF8FEF08958093BF
:10073000F1008091E80085FD03C08AE38093E80022
:1007400085E080931C029FBF80E008958FEF08959D
:100750001F93DC0180911A02882309F41AC12FB774
:10076000F89484E08093E90080911D02882309F4C5
:1007700005C18091E80085FD02C02FBF0AC110921B
:100780001D02FCC08091E400875E9091E80095FD19
:1007900013C02FBF9091E400981721F481E080935B
:1007A0001D02F7C090911A02992309F4F2C02FB7E5
:1007B000F8941093E900E9CF8091F200E52FE81B4F
:1007C0008E2F90E06817790708F4E62F6E1B7109E9
:1007D000F0E0E134F10508F0C5C0EA5AFF4FEE0F32
:1007E000FF1F0590F491E02D09948D918093F10005
:1007F0008D918093F1008D918093F1008D91809384
:10080000F1008D918093F1008D918093F1008D9195
:100810008093F1008D918093F1008D918093F10090
:100820008D918093F1008D918093F1008D91809353
:10083000F1008D918093F1008D918093F1008D9165
:100840008093F1008D918093F1008D918093F10060
:100850008D918093F1008D918093F1008D91809323
:10086000F1008D918093F1008D918093F1008D9135
:100870008093F1008D918093F1008D918093F10030
:100880008D918093F1008D918093F1008D918093F3
:10089000F1008D918093F1008D918093F1008D9105
:1008A0008093F1008D918093F1008D918093F10000
:1008B0008D918093F1008D918093F1008D918093C3
:1008C000F1008D918093F1008D918093F1008D91D5
:1008D0008093F1008D918093F1008D918093F100D0
:1008E0008D918093F1008D918093F1008D91809393
:1008F000F1008D918093F1008D918093F1008D91A5
:100900008093F1008D918093F1008D918093F1009F
:100910008D918093F1008D918093F1008D91809362
:10092000F1008D918093F1008D918093F1008D9174
:100930008093F1008D918093F1008D918093F1006F
:100940008D918093F1008D918093F1008D91809332
:10095000F1008D918093F1008D918093F1008D9144
:100960008093F1008D918093F1008091E80085FDE6
:1009700002C04093E80030931C0204C014E050E42D
:100980004AE335E06115710509F0FCCE2FBF80E028
:1009900001C08FEF1F9108958FB7F89490911C02BA
:1009A000992341F094E09093E9009AE39093E80052
:1009B00010921C028FBF08958091080108958091C4
:1009C0000901089580910A01089580911B020895FC
:1009D0009FB7F89420911A02222339F022E0209345
:1009E000E9003091E80035FD03C09FBF8FEF089507
:1009F00031EA3093F10030E23093F1001092F100CF
:100A00001092F1001092F1001092F1002093F10089
:100A10001092F1008093F1001092F1008AE380932C
:100A2000E8009FBF80E008951F920F920FB60F92CB
:100A300011248F939F938091E1001092E10083FF36
:100A400011C01092E90091E09093EB001092EC003D
:100A500092E19093ED0098E09093F00010921A02CA
:100A600010921B0282FF13C080911A02882379F032
:100A700080911C02882359F0815080931C028823A6
:100A800031F484E08093E9008AE38093E8009F9149
:100A90008F910F900FBE0F901F9018951F920F927D
:100AA0000FB60F921124EF92FF920F931F932F9383
:100AB0003F934F935F936F937F938F939F93AF93E6
:100AC000BF93EF93FF93DF93CF930F92CDB7DEB732
:100AD0001092E9008091E80083FF2EC12091F1007F
:100AE0003091F1008091F100E82EFF244091F10057
:100AF000942F80E0E82AF92A0091F10010E040915B
:100B0000F100942F80E0082B192B6091F100A09147
:100B1000F10082EF8093E800363009F059C08BE68F
:100B200091E09C0125503040FC013797459154914C
:100B30004E155F05F9F4F90145915491401751079D
:100B4000C9F42E5F3F4FF901859194912E5F3F4F7D
:100B5000F9012491462F50E07A2F60E0462B572B65
:100B60004F3F510519F010F04FEF50E0421750F48D
:100B7000242F08C00796295F3F4FF1E085399F0772
:100B800099F6DAC0AEEF4091E80050E0BA01657026
:100B9000707061157105B9F342FDD1C0322F21315A
:100BA00008F030E1AC01632F07C0FA014F5F5F4FDF
:100BB000E491E093F10061506623B9F7830F911D32
:100BC000231BA093E8002223F1F63031E1F2B7C0F5
:100BD000353051F48EEF8093E8000E94E7028E2DAD
:100BE00080688093E300ABC0393051F5222309F0CF
:100BF000A3C0E0921A0210921B0210921C028EEF08
:100C00008093E80041E08EE891E04093E900FC0128
:100C10000196E491E093EB00EE2369F09C012F5FD5
:100C20003F4FFC0184918093EC00C9010196F901CA
:100C300024912093ED004F5F453039F78EE177C066
:100C4000383051F4203809F077C00E94E7028091D3
:100C50001A028093F10048C0313279F4213A09F048
:100C60006BC00E94E702E4E0F1E081918093F10023
:100C700021E0EB30F207C9F737C03032A1F421325E
:100C800009F05AC08091E80082FFFCCFE4E0F1E077
:100C90008091F100819331E0EB30F307C9F78BEFDE
:100CA0008093E80021C0323241F4213209F044C07F
:100CB000E0921B020E94E70217C03323C9F4298384
:100CC0000E94E7022981223851F40093E9009091B3
:100CD000EB0081E095FF80E01092E90001C080E028
:100CE0008093F1001092F1008EEF8093E80027C00E
:100CF000313011F0333001F52230F1F4E114F10418
:100D0000D9F40F77802F81508430B0F48EEF809328
:100D1000E8000093E900333079F089E18093EB003B
:100D200081E090E002C0880F991F0A95E2F7809356
:100D3000EA001092EA0003C081E28093EB000F907A
:100D4000CF91DF91FF91EF91BF91AF919F918F91E3
:100D50007F916F915F914F913F912F911F910F91D3
:100D6000FF90EF900F900FBE0F901F9018951F935C
:100D7000CF93DF93EC01FE0121961491112349F0EA
:100D80001A3019F48DE00E944503812F0E9445031B
:100D9000F2CFDF91CF911F9108958A3010F490E344
:100DA00001C097E3890F0E94450308951F93182FF0
:100DB00082958F700E94CD06812F8F700E94CD0684
:100DC0001F9108951F93182F892F0E94D606812FF7
:100DD0000E94D6061F9108950E94D6060895EF92AC
:100DE000FF920F931F93DF93CF93CDB7DEB7279773
:100DF0000FB6F894DEBF0FBECDBF8E010F5F1F4F41
:100E000027E0F80111922A95E9F7B8014AE050E08D
:100E10000E944B0F88E0E82EF12CEC0EFD1EF8012D
:100E200081918F01882311F00E9445030E151F0543
:100E3000B1F727960FB6F894DEBF0FBECDBFCF91A6
:100E4000DF911F910F91FF90EF900895EF92FF9225
:100E50000F931F93DF93CF9300D000D000D0CDB776
:100E6000DEB78E010F5F1F4F26E0F80111922A9521
:100E7000E9F7B8014AE050E00E94C50F96E0E92E7C
:100E8000F12CEC0EFD1EF80181918F01882311F0E9
:100E90000E9445030E151F05B1F726960FB6F8946C
:100EA000DEBF0FBECDBFCF91DF911F910F91FF909D
:100EB000EF900895EF92FF920F931F93DF93CF93DC
:100EC000CDB7DEB72B970FB6F894DEBF0FBECDBF00
:100ED0008E010F5F1F4F2BE0F80111922A95E9F761
:100EE000A8012AE030E00E946C0F2CE0E22EF12CE9
:100EF000EC0EFD1EF80181918F01882311F00E94F4
:100F000045030E151F05B1F72B960FB6F894DEBFFB
:100F10000FBECDBFCF91DF911F910F91FF90EF904A
:100F20000895EF92FF920F931F93DF93CF93CDB766
:100F3000DEB72B970FB6F894DEBF0FBECDBF8E0184
:100F40000F5F1F4F2BE0F80111922A95E9F7A801D6
:100F50002AE030E00E94A00F3BE0E32EF12CEC0EE3
:100F6000FD1EF80181918F01882311F00E94450335
:100F70000E151F05B1F72B960FB6F894DEBF0FBE06
:100F8000CDBFCF91DF911F910F91FF90EF9008950A
:100F90000F931F93082F162F843008F063C064301E
:100FA00008F060C00E9443028FEF95EAAEE08150E6
:100FB0009040A040E1F700C0000089E665E70E948C
:100FC000C902883609F04EC089E66BE641E00E940E
:100FD000AD02402F440F440F440F89E66CE10E949C
:100FE000AD02412F440F440F440F89E66BE10E948C
:100FF000AD0289E667E342E00E94AD028EE162E065
:1010000040E00E94AD0289E667E340E00E94AD0245
:1010100089E664E34EE10E94AD0289E667E641E0BD
:101020000E94AD0289E664E24DE10E94AD0289E6CC
:1010300065E24EE90E94AD0289E666E243E00E9465
:10104000AD0289E667E246E90E94AD0289E668E3FF
:1010500041E00E94AD0289E66AE640E20E94AD02EC
:1010600081E001C080E01F910F910895EF92FF92FF
:101070000F931F93DF93CF93CDB7DEB765970FB66E
:10108000F894DEBF0FBECDBF8C017E010894E11C39
:10109000F11C9EE489E6692F9D8B0E94C902D7014D
:1010A0008D937D019D8991509A33A1F7FE01319670
:1010B00086859785D80115969C938E931497868183
:1010C00097811B969C938E931A9789819A8151964A
:1010D0009C938E9350978089918913969C938E93BD
:1010E00012978085918519969C938E93189782818B
:1010F00093811F969C938E931E9782899389119654
:101100009C938E938285938517969C938E931697C6
:10111000848195811D969C938E931C9781E06596A2
:101120000FB6F894DEBF0FBECDBFCF91DF911F91F8
:101130000F91FF90EF900895EF92FF920F931F93FE
:10114000DF93CF93CDB7DEB727970FB6F894DEBF06
:101150000FBECDBF8C017E010894E11CF11C90E410
:1011600089E6692F9F830E94C902D7018D937D0173
:101170009F8191509A33A1F7FE01319689819A811E
:10118000D80115969C938E93149782819381139620
:101190009C938E9312978481958111969C938E9344
:1011A00081E027960FB6F894DEBF0FBECDBFCF917A
:1011B000DF911F910F91FF90EF900895EF92FF92B2
:1011C0000F931F93DF93CF93CDB7DEB727970FB65B
:1011D000F894DEBF0FBECDBF8C017E010894E11CE8
:1011E000F11C98E489E6692F9F830E94C902D70108
:1011F0008D937D019F8191509234A1F7FE0131962C
:1012000089819A81D80115969C938E931497828137
:10121000938113969C938E93129784819581119656
:101220009C938E9381E027960FB6F894DEBF0FBE95
:10123000CDBFCF91DF911F910F91FF90EF90089557
:10124000EF92FF920F931F93DF93CF93CDB7DEB74B
:1012500027970FB6F894DEBF0FBECDBF8C017E017D
:101260000894E11CF11C9EE489E6692F9F830E948B
:10127000C902D7018D937D019F8191509834A1F7C8
:10128000FE01319689819A81D80115969C938E939F
:1012900014978281938113969C938E9312978481E5
:1012A000958111969C938E9381E027960FB6F894C2
:1012B000DEBF0FBECDBFCF91DF911F910F91FF9089
:1012C000EF900895EF92FF920F931F937B018C0193
:1012D00020E030E040E05FE40E94300C87FD11C068
:1012E000C801B70120E030E040E05FE40E94050B58
:1012F0000E94600C9B01AC0120503040404050489F
:1013000006C0C801B7010E94600C9B01AC01B90185
:10131000CA011F910F91FF90EF900895A0E0B0E0F7
:10132000E4E9F9E00C94180FFC01EA0180818230B5
:1013300008F438C1DB019C91923008F430C184304C
:1013400059F4943009F02EC1918111968C91119726
:10135000981709F021C126C1943009F420C19230B8
:10136000B1F4823009F01EC1CA01AF0128E0DA01F0
:101370000D90AD01DC010D92CD012150C1F7DB01D3
:1013800011968C9111979181892389830AC18230AA
:1013900009F405C1C280D380DB0112966D907C9068
:1013A000139724813581468157811496ED90FD90E5
:1013B0000D911C911797C601861997095C0197FF3B
:1013C00004C0AA24BB24A81AB90AB0E2AB16B1041F
:1013D0000CF061C0181619066CF5370148010A2C8B
:1013E00004C096948794779467940A94D2F781E026
:1013F00090E0A0E0B0E00A2C04C0880F991FAA1F5B
:10140000BB1F0A94D2F70197A109B1098E219F2130
:10141000A023B123EE24FF248701E3940097A105C4
:10142000B10519F4EE24FF248701E628F7280829DE
:1014300019293CC00097D1F1CA0CDB1C39014A01C3
:101440000A2C04C096948794779467940A94D2F7F0
:1014500081E090E0A0E0B0E00A2C04C0880F991F62
:10146000AA1FBB1F0A94D2F70197A109B1098223D1
:101470009323A423B52321E030E040E050E000971F
:10148000A105B10519F420E030E0A901262937298A
:10149000482959290BC06C147D0424F4EE24FF2440
:1014A000870104C0630120E030E0A9018181FB01D4
:1014B0009181891709F445C0882349F0D801C701F3
:1014C000821B930BA40BB50B9C01AD0104C02E191C
:1014D0003F09400B510B57FD04C01982DB82CA82C1
:1014E0000BC081E08983DB82CA825095409530959C
:1014F00021953F4F4F4F5F4F2C833D834E835F833A
:101500000DC0880F991FAA1FBB1F8C839D83AE83BC
:10151000BF838A819B8101979B838A838C819D8174
:10152000AE81BF819C01AD01215030404040504010
:101530002F3FEFEF3E07EFEF4E07EFE35E0708F3B5
:101540000BC08983DB82CA822E0D3F1D401F511FB5
:101550002C833D834E835F8383E088832C813D8190
:101560004E815F8157FF1DC0DA01C9018170907003
:10157000A070B0705695479537952795822B932B81
:10158000A42BB52B8C839D83AE83BF838A819B81E3
:1015900001969B838A8305C0EBE0F1E003C0FB0169
:1015A00001C0FE01CF01CDB7DEB7EEE00C94340FE1
:1015B000A0E2B0E0EEEDFAE00C94200F69837A83AC
:1015C0008B839C832D833E834F83588789E0E82E4D
:1015D000F12CEC0EFD1ECE010196B7010E94520EB9
:1015E0008E010F5E1F4FCE010596B8010E94520E6C
:1015F000C701B801AE01475E5F4F0E948E090E948D
:10160000840DA096E6E00C943C0FA0E2B0E0EBE085
:10161000FBE00C94200F69837A838B839C832D835A
:101620003E834F8358878E01075F1F4FCE0101967F
:10163000B8010E94520E91E1E92EF12CEC0EFD1E34
:10164000CE010596B7010E94520E8A8991E0892742
:101650008A8BC801B701AE01475E5F4F0E948E09B9
:101660000E94840DA096E6E00C943C0FA0E2B0E04E
:10167000ECE3FBE00C94140F69837A838B839C83E7
:101680002D833E834F835887CE010196BE01675F4D
:101690007F4F0E94520ECE010596BE016F5E7F4FB6
:1016A0000E94520E9985923078F089898230C0F07C
:1016B000943019F4823041F4CBC0843019F4923064
:1016C00079F4C6C0923051F481E02A859A892917AD
:1016D00009F480E08A87CE010996BCC0823051F4BB
:1016E00081E02A859A89291709F480E08A8BCE0146
:1016F0004196B0C06D847E848F849888ED88FE8882
:101700000F89188DE0E2F0E080E090E0DC01AA248F
:10171000BB24650120E030E0A901B3016170707065
:1017200061157105D1F02E0D3F1D401F511F150190
:101730002601280E391E4A1E5B1E81E090E0A0E0C3
:10174000B0E02E153F054007510718F080E090E00B
:10175000DC01820D931DA41DB51DAA0CBB1CCC1C65
:10176000DD1C17FF09C061E0262E312C412C512CC5
:10177000A228B328C428D528319749F0EE0CFF1CC5
:10178000001F111F9694879477946794C6CF6B8936
:101790007C89EB85FC856E0F7F1F6E5F7F4F7C8F92
:1017A0006B8F61E0EA857A89E71709F460E06A8F58
:1017B0006B8D7C8D10C0FC01E170F070309729F0CA
:1017C00056954795379527955068B695A79597955F
:1017D00087956F5F7F4FB7FDEECF0CC0880F991FC5
:1017E000AA1FBB1F57FD8160220F331F441F551FC7
:1017F000615070408030E0E09E07E0E0AE07E0E43A
:10180000BE0760F36B8F7C8F6FE7E62EF12C012D06
:10181000112DE822F9220A231B2360E4E616F104C5
:101820000105110561F487FD0AC021153105410547
:10183000510529F0805C9F4FAF4FBF4F80788D8F4F
:101840009E8FAF8FB8A383E0898FCE01499602C0E7
:101850008BE091E00E94840DA096E2E10C94300FA1
:10186000A8E1B0E0E6E3FCE00C94200F69837A8302
:101870008B839C832D833E834F8358878E01075F24
:101880001F4FCE010196B8010E94520E81E1E82E51
:10189000F12CEC0EFD1ECE010596B7010E94520EF2
:1018A0008985823040F08989823028F0C801B701EB
:1018B0000E94BB0E01C08FEF6896E6E00C943C0FCF
:1018C000ACE0B0E0E6E6FCE00C94240F69837A8398
:1018D0008B839C83CE010196BE016B5F7F4F0E947C
:1018E000520E8D81823081F1823070F1843021F48A
:1018F0008E81882369F10AC02F81388537FD24C085
:101900006E812F3131053CF0662311F120E030E08B
:1019100040E050E821C08EE190E0821B930B2985C6
:101920003A854B855C8504C0569547953795279534
:101930008A95D2F7662381F0509540953095219590
:101940003F4F4F4F5F4F08C020E030E0A90104C077
:101950002FEF3FEF4FEF5FE7B901CA012C96E2E0AE
:101960000C94400FA8E0B0E0E8EBFCE00C941E0FF4
:101970007B018C011A82611571058105910519F4AD
:1019800082E089835FC083E089838EE1C82ED12CF9
:10199000DC82CB82ED82FE820F831887C801B701FB
:1019A0000E942A0DFC013197F7FF3AC0AA27BB27F6
:1019B000AE1BBF0B21E030E040E050E00A2E04C037
:1019C000220F331F441F551F0A94D2F72150304075
:1019D000404050402E213F214023512361E070E0E0
:1019E00080E090E0211531054105510519F460E0D2
:1019F00070E0CB0104C016950795F794E794AA957B
:101A0000D2F7E62AF72A082B192BED82FE820F83E4
:101A100018878EE190E08E1B9F0B9C838B8312C0F6
:101A2000309781F00E2E04C0EE0CFF1C001F111F1A
:101A30000A94D2F7ED82FE820F831887CE1ADF0A4E
:101A4000DC82CB82CE0101960E94840D2896E8E0CC
:101A50000C943A0FAF92BF92CF92DF92EF92FF9227
:101A60000F931F937B018C0180E0E81680E0F8065D
:101A700081E0080780E0180758F4EFEFEE16F10454
:101A80000105110509F090F480E090E0DC0117C039
:101A9000F0E0EF16F0E0FF06F0E00F07F1E01F07BF
:101AA00050F480E190E0A0E0B0E009C088E090E070
:101AB000A0E0B0E004C088E190E0A0E0B0E020E267
:101AC00030E040E050E0281B390B4A0B5B0B57011C
:101AD000680104C0D694C794B794A7948A95D2F7A6
:101AE000D601C5018D5E9E4FFC018081281B310906
:101AF00041095109C9011F910F91FF90EF90DF90AB
:101B0000CF90BF90AF900895EF92FF920F931F93E5
:101B1000CF93DF93FC012481358146815781618118
:101B20008081823020F44061EFEFF0E0A3C0843088
:101B300009F49BC0823009F492C02115310541059A
:101B4000510509F48FC00280F381E02D8FEFE23858
:101B5000F8070CF05AC0C2E8DFEFCE1BDF0BCA312A
:101B6000D1056CF579018A010C2E04C016950795F4
:101B7000F794E7940A94D2F781E090E0A0E0B0E017
:101B80000C2E04C0880F991FAA1FBB1F0A94D2F7FE
:101B90000197A109B10982239323A423B52321E04E
:101BA00030E040E050E00097A105B10519F420E0D5
:101BB00030E0A9012E293F29402B512B03C020E002
:101BC00030E0A901DA01C9018F779070A070B07080
:101BD00080349105A105B10539F427FF09C0205CC7
:101BE0003F4F4F4F5F4F04C0215C3F4F4F4F5F4F00
:101BF000E1E0F0E0203080E0380780E0480780E452
:101C0000580728F5E0E0F0E022C0E038F1056CF577
:101C1000E158FF4FDA01C9018F779070A070B07062
:101C200080349105A105B10539F427FF09C0205C76
:101C30003F4F4F4F5F4F04C0215C3F4F4F4F5F4FAF
:101C400057FF05C05695479537952795319687E0FC
:101C500056954795379527958A95D1F70BC0E0E0C3
:101C6000F0E005C0E0E0F0E005C0EFEFF0E020E0DC
:101C700030E0A9018E2F879588278795942F9F772D
:101C8000679566276795E695E22EA92FA82BFE2F6C
:101C9000F62B622F732F8A2F9F2FCDB7DEB7E6E08A
:101CA0000C943C0FDC01FB012C9111963C91119797
:101CB00012968C911297482F4F7750E0982F991FCA
:101CC0009927991F13966C911397862F880F892B4C
:101CD00090E0661F6627661F6183009739F521151E
:101CE00031054105510511F482E029C082E89FEFDA
:101CF0009383828367E0220F331F441F551F6A9529
:101D0000D1F783E0808309C0220F331F441F551F82
:101D100082819381019793838283203080E038070A
:101D200080E0480780E4580778F320C08F3F910592
:101D300079F4211531054105510519F484E08083BA
:101D4000089544FF03C081E0808310C010820EC05C
:101D50008F5790409383828383E0808387E0220FB4
:101D6000331F441F551F8A95D1F750642483358350
:101D7000468357830895FC01DB019081923008F47B
:101D800049C08C91823008F445C0943051F461818F
:101D90008430B1F511962C91119730E0261B310952
:101DA00041C0843021F0923041F48230B1F111967B
:101DB0008C9111978823A1F12DC06181823001F1AE
:101DC00011968C9111976817D9F42281338112965C
:101DD0008D919C9113978217930794F028173907D8
:101DE000BCF0248135814681578114968D919D9157
:101DF0000D90BC91A02D82179307A407B50718F486
:101E0000662341F00DC0281739074A075B0728F4FD
:101E1000662331F021E030E005C020E030E002C070
:101E20002FEF3FEFC90108952F923F924F925F929B
:101E30006F927F928F929F92AF92BF92CF92DF92DA
:101E4000EF92FF920F931F93CF93DF93CDB7DEB73F
:101E5000CA1BDB0B0FB6F894DEBF0FBECDBF0994D3
:101E60002A88398848885F846E847D848C849B842A
:101E7000AA84B984C884DF80EE80FD800C811B8138
:101E8000AA81B981CE0FD11D0FB6F894DEBF0FBE67
:101E9000CDBFED010895FB019F01E8944230C4F0ED
:101EA0004532B4F44A3029F497FB1EF4909581959D
:101EB0009F4F642F77270E94EB0F805D8A330CF0D1
:101EC000895D8193CB010097A1F716F45DE25193F0
:101ED0001082C9010C94DB0FFA01CF93FF93EF93AB
:101EE000223044F1253234F5C22FE894CA3049F447
:101EF00097FB3EF490958095709561957F4F8F4F3D
:101F00009F4F2C2F332744275527FF93EF930E9491
:101F1000FF0FEF91FF91605D6A330CF0695D619393
:101F2000B901CA01605070408040904051F716F4EA
:101F3000CDE2C19310828F919F91CF910C94DB0FD2
:101F4000FA01CF93FF93EF932230CCF02532BCF40B
:101F5000C22F2C2F332744275527FF93EF930E943E
:101F6000FF0FEF91FF91605D6A330CF0695D619343
:101F7000B901CA01605070408040904051F7108212
:101F80008F919F91CF910C94DB0FFB019F01423009
:101F900074F0453264F4642F77270E94EB0F805D64
:101FA0008A330CF0895D8193CB010097A1F71082F1
:101FB000C9010C94DB0FDC01FC01672F71917723C1
:101FC000E1F7329704C07C916D9370836291AE17F4
:101FD000BF07C8F30895AA1BBB1B51E107C0AA1F86
:101FE000BB1FA617B70710F0A61BB70B881F991FBA
:101FF0005A95A9F780959095BC01CD010895A1E26D
:102000001A2EAA1BBB1BFD010DC0AA1FBB1FEE1F72
:10201000FF1FA217B307E407F50720F0A21BB30BBD
:10202000E40BF50B661F771F881F991F1A9469F739
:1020300060957095809590959B01AC01BD01CF0195
:062040000895F894FFCFA3
:102046000100010000E1000000000800000000009F
:102056000000000001020203030303040404040455
:10206600040404050505050505050505050505051D
:1020760005050506060606060606060606060606FD
:1020860006060606060606060606060606060606EA
:1020960006060607070707070707070707070707CD
:1020A60007070707070707070707070707070707BA
:1020B60007070707070707070707070707070707AA
:1020C600070707070707070707070707070707079A
:1020D600070707080808080808080808080808087D
:1020E600080808080808080808080808080808086A
:1020F600080808080808080808080808080808085A
:102106000808080808080808080808080808080849
:102116000808080808080808080808080808080839
:102126000808080808080808080808080808080829
:102136000808080808080808080808080808080819
:102146000808080808080808080808080808080809
:04215600080808006D
:00000001FF
