:100000000C948C000C94A9000C94A9000C94AB00E7
:100010000C94A9000C94A9000C94A9000C94A900BC
:100020000C94A9000C94A9000C94A9000C94A900AC
:100030000C94A9000C94A9000C94A9000C94A9009C
:100040000C94A9000C94A9000C94A9000C94A9008C
:100050000C94A9000C94A9000C94A9000C94A9007C
:100060000C94A9000C94A9000C94A9000C94A9006C
:100070000C94A9000C94A9000C94A9000C94A9005C
:100080000C94A9000C94A9000C94A9000C94A9004C
:100090000C94A9000C94A9000C94A9000C94A9003C
:1000A0000C94A9000C94A9000C94A90019021C023C
:1000B000CD01CD011F02280231023B0207020D02D1
:1000C0001002DB01DE01E101CF01D201D501D8012F
:1000D000E401ED01F001F601FE010A02E701EA0187
:1000E0001602D802DF0203030303E602ED02F40264
:1000F000FB02B302C102C8026B0272027902510212
:1001000056025D026402800297029E02A502AC02C2
:10011000BA0288028F02D00211241FBECFEFDAE0AC
:10012000DEBFCDBF11E0A0E0B1E0E8EFF9E002C032
:1001300005900D92A030B107D9F711E0A0E0B1E031
:1001400001C01D92AD31B107E1F70E94D0000C94BF
:10015000FA040C9400001F920F920FB60F92112414
:100160002F933F934F935F936F937F938F939F93BF
:10017000AF93BF93EF93FF9382E00E940403FF913C
:10018000EF91BF91AF919F918F917F916F915F910F
:100190004F913F912F910F900FBE0F901F90189588
:1001A0006E9A8EB11EB880E885BF85BF80936100CE
:1001B000109261000E94140481E069ED4AE00E94FF
:1001C000C40381E060E00E94410284E060E00E949C
:1001D000410287E00E94420168E171E04AE050E09C
:1001E0000E94B50486E00E94420169E071E04AE0A5
:1001F00050E00E94B50410920601109205012BC038
:100200008091050190910601853091056CF4E09193
:100210000501F0910601A0910501B0910601E25F90
:10022000FE4FA85EBE4F0CC0E0910501F0910601A3
:10023000A0910501B0910601E25FFE4FAC5FBE4F99
:100240008C91808380910501909106010196909395
:1002500006018093050180910501909106018A3085
:10026000910574F28FEF90E7A2E081509040A0409A
:10027000E1F700C0000083EA6EE071E04AE00E940E
:100280007503A7CF382F87FD75C0823009F472C07F
:10029000833009F46FC08E300CF06CC08091040183
:1002A0008823E1F481E08093040180917C008064E4
:1002B00080937C0080917C008F7780937C0080917C
:1002C0007A00816080937A0080917A0082608093C6
:1002D0007A0080917A00846080937A00432F5527BA
:1002E00047FD50953830A4F480917B008F7D80933A
:1002F0007B0020917E0081E090E002C0880F991F72
:100300004A95E2F7282B20937E0080917C0016C04E
:1003100080917B00806280937B0020917D0048501B
:10032000504081E090E002C0880F991F4A95E2F7A3
:10033000282B20937D0080917C003850807E832B79
:1003400080937C0080917A00806880937A0080910D
:100350007A00806480937A0080917A0084FFFCCFD9
:1003600080917A00806180937A00209178003091AA
:10037000790002C02FEF3FEFC9010895E82FFF2752
:10038000E7FDF095EB31F10540F4EA5AFF4FEE0F2F
:10039000FF1F0590F491E02D099480E008952098C6
:1003A00083B167C0219883B11DC0229883B120C05A
:1003B000239883B125C0249883B143C0259883B185
:1003C00049C0269883B14FC0279883B12BC03E986F
:1003D00086B149C03F9886B125C0509889B149C0BF
:1003E000519889B190E09695879543C0529889B10C
:1003F00090E096958795969587953BC0539889B1DF
:1004000090E053E0969587955A95E1F732C054985D
:1004100089B117C0559889B11DC0569889B123C0BC
:10042000579889B1881F8827881F08956E988CB1C6
:100430001AC080988FB11DC081988FB1D3CF849896
:100440008FB190E044E0969587954A95E1F711C009
:1004500085988FB190E035E0969587953A95E1F7CC
:1004600008C086988FB190E026E0969587952A95EA
:10047000E1F78170089587988FB1881F8827881FBA
:100480000895E82FFF27E7FDF095EB31F10508F01F
:10049000BAC0EF58FF4FEE0FFF1F0590F491E02D0B
:1004A0000994209A6623D1F4289830C0219A6623B3
:1004B00011F0299A2BC0299829C0229A662311F09D
:1004C0002A9A24C02A9822C0239A662311F02B9AD4
:1004D0001DC02B981BC0249A662311F02C9A16C0BD
:1004E0002C9814C0259A662311F02D9A0FC02D98D0
:1004F0000DC0269A662311F02E9A08C02E9806C0C9
:10050000279A662311F02F9A01C02F9885B108957C
:100510003E9A662311F0469A08C0469806C03F9A54
:10052000662311F0479A01C0479888B10895509A00
:10053000662311F0589A32C0589830C0519A6623F9
:1005400011F0599A2BC0599829C0529A662311F07C
:100550005A9A24C05A9822C0539A662311F05B9A83
:100560001DC05B981BC0549A662311F05C9A16C09C
:100570005C9814C0559A662311F05D9A0FC05D987F
:100580000DC0569A662311F05E9A08C05E9806C0A8
:10059000579A662311F05F9A01C05F988BB1089556
:1005A0006E9A662311F0769A01C076988EB10895FE
:1005B000809A662311F0889A22C0889820C0819A78
:1005C000662311F0899A1BC0899819C0849A662302
:1005D00011F08C9A14C08C9812C0859A662311F081
:1005E0008D9A0DC08D980BC0869A662311F08E9A55
:1005F00006C08E9804C0879A662319F08F9A81B33B
:1006000008958F9881B308956A9A813031F08230CD
:1006100031F0882341F4729A0895729808958EB14A
:1006200094E089278EB908956E9A813031F0823036
:1006300031F0882341F4769A0895769808958EB122
:1006400090E489278EB908959C0184EA8093BC00C8
:100650008091BC0087FFFCCF81E58093BB0084E8DC
:100660008093BC008091BC0087FFFCCF8091B900D3
:10067000887F8834A1F084EC8093BC008091BC001A
:1006800087FFFCCF8091BB00861749F4A0E0B0E063
:10069000772767FD70956150704094EC12C084E933
:1006A0008093BC0080E008959093BC008091BC00D2
:1006B00087FFFCCF8091BB00F901EA0FFB1F80830D
:1006C0001196A617B70784F384E88093BC00809145
:1006D000BC0087FFFCCF8091BB00A20FB31F8C939F
:1006E00084E98093BC0081E00895982FF89484EA0F
:1006F0008093BC008091BC0087FFFCCF80E5809395
:10070000BB0084E88093BC008091BC0087FFFCCFD5
:100710008091B900887F803231F484E98093BC00F5
:10072000789480E0089583E08093BB0084E8809310
:10073000BC008091BC0087FFFCCF9093BB0084E895
:100740008093BC008091BC0087FFFCCF20E030E0AC
:10075000552747FD509594E80EC0FB01E20FF31FAB
:1007600080818093BB009093BC008091BC0087FF88
:10077000FCCF2F5F3F4F241735077CF384E980932C
:10078000BC00789481E00895FF920F931F93182F77
:10079000062FF42E0E94140484EA8093BC008091FA
:1007A000BC0087FFFCCF80E58093BB0084E880938A
:1007B000BC008091BC0087FFFCCF8091B900887F8E
:1007C000803229F484E98093BC0080E029C081E074
:1007D0008093BB0084E88093BC008091BC0087FFBD
:1007E000FCCF1093BB0084E88093BC008091BC00D8
:1007F00087FFFCCF0093BB0084E88093BC0080910E
:10080000BC0087FFFCCFF092BB0084E88093BC0063
:100810008091BC0087FFFCCF84E98093BC0081E01D
:100820001F910F91FF900895589A599A5A9A8CE007
:100830008093B800E9E6F0E0808180628083808167
:100840008F7E8083EA9A7894089584E88093BC0030
:100850008091BC0087FFFCCF8091BB00089584E9A4
:100860008093BC00089520E030E08091BC0087FDBB
:1008700006C02F5F3F4F83E0293E3807B1F780E085
:10088000285E334009F081E008958093BB0084E83E
:100890008093BC000E943304882319F08091B90032
:1008A000887F08950F931F93182F062F84EA809353
:1008B000BC000E943304882371F0812F880F00232D
:1008C00031F08F5F0E944504883451F404C00E94C7
:1008D0004504803229F484E98093BC0080E001C0A3
:1008E00081E01F910F9108950F931F93162F042FEE
:1008F00060E00E945204882379F0812F0E94450411
:10090000882351F0802F0E944504882329F084E930
:100910008093BC0081E001C080E01F910F91089599
:100920000F931F93082F162F60E00E945204882314
:10093000C1F0812F0E944504882399F084E98093B7
:10094000BC00802F61E00E945204882351F084E8AB
:100950008093BC008091BC0087FFFCCF8091BB00DE
:1009600001C080E01F910F910895FB019F01E89461
:100970004230C4F04532B4F44A3029F497FB1EF4F7
:10098000909581959F4F642F77270E94E604805DA4
:100990008A330CF0895D8193CB010097A1F716F49F
:1009A0005DE251931082C9010C94D604DC01FC0174
:1009B000672F71917723E1F7329704C07C916D9393
:1009C00070836291AE17BF07C8F30895AA1BBB1BC3
:1009D00051E107C0AA1FBB1FA617B70710F0A61B3F
:1009E000B70B881F991F5A95A9F780959095BC0160
:0809F000CD010895F894FFCF3A
:00000001FF
