:100000000C9456000C946B000C946B000C946B00D9
:100010000C946B000C946B000C946B000C946B00B4
:100020000C946B000C946B000C946B000C946B00A4
:100030000C946B000C946B000C946B000C946B0094
:100040000C946B000C946B000C946B000C946B0084
:100050000C946B000C946B000C946B000C946B0074
:100060000C946B000C946B000C946B000C946B0064
:100070000C946B000C946B000C946B000C946B0054
:100080000C946B000C946B000C946B000C946B0044
:100090000C946B000C946B000C946B000C946B0034
:1000A0000C946B000C946B000C946B0011241FBE1D
:1000B000CFEFDAE0DEBFCDBF11E0A0E0B1E0E2E6D5
:1000C000F6E002C005900D92A230B107D9F70E9468
:1000D00036010C942F030C9400000E941D028091A5
:1000E00000010E94B7028091000160E040E00E94A0
:1000F000C1028091000160E041E00E94C102809154
:10010000000160E042E00E94C1028091000160E0D5
:1001100043E00E94C1028091000160E044E00E943F
:10012000C1028091000160E045E00E94C10280911F
:10013000000160E046E00E94C1028091000160E0A1
:1001400047E00E94C1028091000161E040E00E940E
:10015000C1028091000161E041E00E94C1028091F2
:10016000000161E042E00E94C1028091000161E073
:1001700043E00E94C1028091000161E044E00E94DE
:10018000C1028091000161E045E00E94C1028091BE
:10019000000161E046E00E94C1028091000161E03F
:1001A00047E00E94C1028091000163E140E00E94AB
:1001B000C1028091000163E141E00E94C10280918F
:1001C000000163E142E00E94C1028091000163E10D
:1001D00043E00E94C1028091000163E144E00E947B
:1001E000C1028091000163E145E00E94C10280915B
:1001F000000163E146E00E94C1028091000163E1D9
:1002000047E00E94C1028091000162E140E00E944B
:10021000C1028091000162E141E00E94C10280912F
:10022000000162E142E00E94C1028091000162E1AE
:1002300043E00E94C1028091000162E144E00E941B
:10024000C1028091000162E145E00E94C1028091FB
:10025000000162E146E00E94C1028091000162E17A
:1002600047E00E94C10280E090E008956E9A8EB14E
:100270001EB880E8809361001092610085BF85BF41
:100280000E946D00529A8FEF93EDA0E38150904051
:10029000A040E1F700C000005A9A8091000163E19C
:1002A00040E00E94EE028091000163E141E00E9483
:1002B000EE028091000163E142E00E94EE02809133
:1002C000000163E143E00E94EE028091000163E1DE
:1002D00044E00E94EE028091000163E145E00E944B
:1002E000EE028091000163E146E00E94EE028091FF
:1002F000000163E147E00E94EE028091000162E1AB
:1003000040E00E94EE028091000162E141E00E9423
:10031000EE028091000162E142E00E94EE028091D3
:10032000000162E143E00E94EE028091000162E17F
:1003300044E00E94EE028091000162E145E00E94EB
:10034000EE028091000162E146E00E94EE0280919F
:10035000000162E147E00E94EE026A9A8EB194E0E9
:1003600089278EB98FEF93EDA0E381509040A04094
:10037000E1F700C000005A988091000163E140E07D
:100380000E94C1028091000163E141E00E94C1022C
:100390008091000163E142E00E94C102809100016E
:1003A00063E143E00E94C1028091000163E144E007
:1003B0000E94C1028091000163E145E00E94C102F8
:1003C0008091000163E146E00E94C102809100013A
:1003D00063E147E00E94C1028091000162E140E0D8
:1003E0000E94C1028091000162E141E00E94C102CD
:1003F0008091000162E142E00E94C102809100010F
:1004000062E143E00E94C1028091000162E144E0A8
:100410000E94C1028091000162E145E00E94C10298
:100420008091000162E146E00E94C10280910001DA
:1004300062E147E00E94C10226CF589A599A5A9A1F
:100440008CE08093B800089584E88093BC0080918C
:10045000BC0087FFFCCF8091BB00089584E98093A6
:10046000BC00089520E030E08091BC0087FD06C00C
:100470002F5F3F4F83E0293E3807B1F781E093E0DB
:10048000283E390709F480E008958093BB0084E892
:100490008093BC000E943202882321F08091B90031
:1004A000887F089580E008951F93DF93CF930F9284
:1004B000CDB7DEB7182F84EA8093BC0069830E9411
:1004C00032026981882371F0812F880F662331F011
:1004D0008F5F0E944502883451F404C00E94450297
:1004E000803229F484E98093BC0080E001C081E07F
:1004F0000F90CF91DF911F9108950F931F93162FA7
:10050000042F60E00E945402882379F0812F0E941A
:100510004502882351F0802F0E944502882329F04C
:1005200084E98093BC0081E001C080E01F910F91BD
:1005300008950F931F93182F062F60E00E94540216
:10054000882389F0802F0E944502882361F084E986
:100550008093BC00812F61E00E945402882319F02F
:100560000E94240201C080E01F910F91089565E070
:1005700048E30E947D0291E0882309F490E0892FEE
:100580000895FF920F931F93082F162FF42E0E94A9
:100590009902123058F4E1E0F0E002C0EE0FFF1FC4
:1005A000FA94E2F74E2F409548230DC0912F9251B7
:1005B000923078F421E030E002C0220F331FFA9429
:1005C000E2F7482F422B802F612F0E947D0281E0AD
:1005D00001C080E01F910F91FF900895FF920F934B
:1005E0001F93082F162FF42E0E949902912F9251DB
:1005F000923058F4E1E0F0E002C0EE0FFF1FFA94F1
:10060000E2F74E2F409548230BC0123078F421E0DA
:1006100030E002C0220F331FFA94E2F7482F422B3A
:10062000802F612F0E947D0281E001C080E01F9138
:100630000F91FF900895DF93CF930F92CDB7DEB760
:1006400049830E94990290E0498102C0959587955F
:100650004A95E2F781700F90CF91DF910895F89459
:02066000FFCFCA
:02066200200076
:00000001FF
