:100000000C9427010C9444010C9444010C94460177
:100010000C9444010C9444010C9444010C9444014C
:100020000C9444010C9444010C9433070C946E0717
:100030000C9444010C9444010C9444010C9444012C
:100040000C9444010C9444010C9444010C9444011C
:100050000C9444010C9444010C9444010C9444010C
:100060000C9444010C9444010C9444010C944401FC
:100070000C9444010C9444010C9444010C944401EC
:100080000C9444010C9444010C9444010C944401DC
:100090000C9444010C9444010C9444010C944401CC
:1000A0000C9444010C9444010C9444010403070390
:1000B000B802B8020A0313031C032603F202F80273
:1000C000FB02C602C902CC02BA02BD02C002C302D0
:1000D000CF02D802DB02E102E902F502D202D50228
:1000E0000103C303CA03EE03EE03D103D803DF0306
:1000F000E6039E03AC03B30356035D0364033C03B2
:10010000410348034F036B03820389039003970362
:10011000A50373037A03BB03C706C406C106BE0664
:10012000BB06B806B506B206AF06AC06A906A6061B
:10013000A306A0069D069A069706940691068E06CB
:100140008B068806850682067F067C06790676067B
:10015000730670066D066A066706640661065E062B
:100160005B065806550652064F064C0649064606DB
:10017000430640063D063A063706340631062E068B
:100180002B062806250622061F061C06190616063B
:10019000130610060D060A06070600010000CE0130
:1001A0001200020000E001430003000023020401EA
:1001B000030904270212020309043B020603030990
:1001C000044302080001C112018036018136120188
:1001D000000202000010C0167A04000101020301AF
:1001E00009024300020100C03209040000010202BA
:1001F0000100052400100105240101010424020668
:1002000005240600010705820310004009040100CF
:10021000020A0000000705030240000007058402EF
:100220004000000403090412034A002E0020004687
:1002300000690065006E006500000006034D003295
:1002400000000008033400310030000000001124D9
:100250001FBECFEFDAE0DEBFCDBF11E0A0E0B1E01E
:10026000EEECF6E102C005900D92A830B107D9F787
:1002700011E0A8E0B1E001C01D92AB33B107E1F796
:100280000E946B010C94650B0C9400001F920F925E
:100290000FB60F9211242F933F934F935F936F9359
:1002A0007F938F939F93AF93BF93EF93FF9382E0DE
:1002B0000E94EF03FF91EF91BF91AF919F918F91BA
:1002C0007F916F915F914F913F912F910F900FBE52
:1002D0000F901F9018956E9A8EB11EB880E885BF5A
:1002E00085BF80936100109261000E94EE090E9418
:1002F000FF0481E069ED4DE00E94AF0487E00E94B9
:100300002D0260E371E04AE050E00E948F0A86E02F
:100310000E942D026AE171E04AE050E00E948F0ADB
:1003200010921901109218012BC080911801909120
:100330001901853091056CF4E0911801F0911901D3
:10034000A0911801B0911901EA5CFE4FA05DBE4F6B
:100350000CC0E0911801F0911901A0911801B09121
:100360001901E25FFE4FAB5EBE4F8C91808380919E
:100370001801909119010196909319018093180129
:1003800080911801909119018930910574F21092B1
:100390001901109218012BC0809118019091190138
:1003A000853091056CF4E0911801F0911901A0914C
:1003B0001801B0911901E15EFE4FAA5CBE4F0CC05E
:1003C000E0911801F0911901A0911801B091190163
:1003D000E15EFE4FA25FBE4F8C9180838091180139
:1003E00090911901019690931901809318018091C1
:1003F0001801909119018930910574F285E00E94ED
:10040000A902805D8093350184E00E94A902805D8D
:1004100080932C0181E00E94A902805D80932D01D0
:10042000909135019093290190912C0190932A018C
:1004300080932B0182E00E94FF038FEF90E7A2E000
:1004400081509040A040E1F700C0000083EA6FE1D6
:1004500071E04DE00E94600451CF382F87FD75C0D8
:10046000823009F472C0833009F46FC08E300CF012
:100470006CC080910C018823E1F481E080930C0131
:1004800080917C00806480937C0080917C008F77D9
:1004900080937C0080917A00816080937A008091C3
:1004A0007A00826080937A0080917A0084608093E1
:1004B0007A00432F552747FD50953830A4F480919A
:1004C0007B008F7D80937B0020917E0081E090E017
:1004D00002C0880F991F4A95E2F7282B20937E00CF
:1004E00080917C0016C080917B00806280937B00AD
:1004F00020917D004850504081E090E002C0880F7C
:10050000991F4A95E2F7282B20937D0080917C006B
:100510003850807E832B80937C0080917A008068A5
:1005200080937A0080917A00806480937A00809131
:100530007A0084FFFCCF80917A00806180937A00FA
:10054000209178003091790002C02FEF3FEFC90170
:100550000895E82FFF27E7FDF095EB31F10540F412
:10056000EA5AFF4FEE0FFF1F0590F491E02D09941A
:1005700080E00895209883B167C0219883B11DC0A1
:10058000229883B120C0239883B125C0249883B1D9
:1005900043C0259883B149C0269883B14FC027989E
:1005A00083B12BC03E9886B149C03F9886B125C023
:1005B000509889B149C0519889B190E09695879536
:1005C00043C0529889B190E0969587959695879506
:1005D0003BC0539889B190E053E0969587955A9522
:1005E000E1F732C0549889B117C0559889B11DC040
:1005F000569889B123C0579889B1881F8827881FCA
:1006000008956E988CB11AC080988FB11DC08198E2
:100610008FB1D3CF84988FB190E044E096958795C1
:100620004A95E1F711C085988FB190E035E0969535
:1006300087953A95E1F708C086988FB190E026E05B
:10064000969587952A95E1F78170089587988FB1DF
:10065000881F8827881F0895E82FFF27E7FDF0955A
:10066000EB31F10508F0BAC0EF58FF4FEE0FFF1F56
:100670000590F491E02D0994209A6623D1F42898EE
:1006800030C0219A662311F0299A2BC0299829C0DD
:10069000229A662311F02A9A24C02A9822C0239A0B
:1006A000662311F02B9A1DC02B981BC0249A662339
:1006B00011F02C9A16C02C9814C0259A662311F0BC
:1006C0002D9A0FC02D980DC0269A662311F02E9AF0
:1006D00008C02E9806C0279A662311F02F9A01C0F1
:1006E0002F9885B108953E9A662311F0469A08C066
:1006F000469806C03F9A662311F0479A01C0479872
:1007000088B10895509A662311F0589A32C05898CB
:1007100030C0519A662311F0599A2BC0599829C0BC
:10072000529A662311F05A9A24C05A9822C0539ABA
:10073000662311F05B9A1DC05B981BC0549A662318
:1007400011F05C9A16C05C9814C0559A662311F09B
:100750005D9A0FC05D980DC0569A662311F05E9A9F
:1007600008C05E9806C0579A662311F05F9A01C0D0
:100770005F988BB108956E9A662311F0769A01C046
:1007800076988EB10895809A662311F0889A22C0D7
:10079000889820C0819A662311F0899A1BC0899895
:1007A00019C0849A662311F08C9A14C08C9812C0D8
:1007B000859A662311F08D9A0DC08D980BC0869A8C
:1007C000662311F08E9A06C08E9804C0879A66231D
:1007D00019F08F9A81B308958F9881B308956A9A1A
:1007E000813031F0823031F0882341F4729A0895DB
:1007F000729808958EB194E089278EB908956E9A03
:10080000813031F0823031F0882341F4769A0895B6
:10081000769808958EB190E489278EB908959C0149
:1008200084EA8093BC008091BC0087FFFCCF81E507
:100830008093BB0084E88093BC008091BC0087FF5C
:10084000FCCF8091B900887F8834A1F084EC80933C
:10085000BC008091BC0087FFFCCF8091BB00861755
:1008600049F4A0E0B0E0772767FD709561507040D3
:1008700094EC12C084E98093BC0080E008959093CA
:10088000BC008091BC0087FFFCCF8091BB00F901C8
:10089000EA0FFB1F80831196A617B70784F384E83D
:1008A0008093BC008091BC0087FFFCCF8091BB008F
:1008B000A20FB31F8C9384E98093BC0081E008955C
:1008C000982FF89484EA8093BC008091BC0087FF45
:1008D000FCCF80E58093BB0084E88093BC008091CE
:1008E000BC0087FFFCCF8091B900887F803231F453
:1008F00084E98093BC00789480E0089583E080933D
:10090000BB0084E88093BC008091BC0087FFFCCFD3
:100910009093BB0084E88093BC008091BC0087FF6B
:10092000FCCF20E030E0552747FD509594E80EC0FD
:10093000FB01E20FF31F80818093BB009093BC000A
:100940008091BC0087FFFCCF2F5F3F4F24173507F6
:100950007CF384E98093BC00789481E00895FF9251
:100960000F931F93182F062FF42E0E94EE0984EA8E
:100970008093BC008091BC0087FFFCCF80E5809312
:10098000BB0084E88093BC008091BC0087FFFCCF53
:100990008091B900887F803229F484E98093BC007B
:1009A00080E029C081E08093BB0084E88093BC0094
:1009B0008091BC0087FFFCCF1093BB0084E880933C
:1009C000BC008091BC0087FFFCCF0093BB0084E893
:1009D0008093BC008091BC0087FFFCCFF092BB00ED
:1009E00084E88093BC008091BC0087FFFCCF84E941
:1009F0008093BC0081E01F910F91FF90089581E0EA
:100A00008093D70080EA8093D80082E189BD09B441
:100A100000FEFDCF80E98093D8001092E000109294
:100A20000D0110920E018CE08093E20078940895FD
:100A300080910D0108959FB7F89480910D0188234E
:100A400039F083E08093E9008091E80085FD03C0E0
:100A50009FBF8FEF08952091F1008091E80085FD00
:100A600003C08BE68093E8009FBF822F08959FB755
:100A7000F89480910D01882329F083E08093E900A8
:100A80008091F2009FBF089580910D01882371F03D
:100A90009FB7F89483E08093E9002BE602C020938F
:100AA000E8008091E80085FDFACF9FBF0895482FA8
:100AB00080910D018823D9F12FB7F89484E08093B9
:100AC000E90080911001882341F08091E80085FDC4
:100AD00002C02FBF12C0109210019091E400975EE7
:100AE00034E08091E80085FD13C02FBF8091E400C1
:100AF000891729F481E0809310018FEF0895809188
:100B00000D018823A1F02FB7F8943093E900E9CFC5
:100B10004093F1008091E80085FD03C08AE3809353
:100B2000E80085E080930F012FBF80E008958FEFEC
:100B30000895282F80910D01882351F09FB7F894D4
:100B400084E08093E9008091E80085FD03C09FBFA9
:100B50008FEF08952093F1008091E80085FD03C098
:100B60008AE38093E80085E080930F019FBF80E0D7
:100B70000895CF93DF93EC0180910D01882309F450
:100B80001CC13FB7F89484E08093E9008091100184
:100B9000882309F407C18091E80085FD02C03FBFAA
:100BA0000CC110921001FEC09091E400975E8091FC
:100BB000E80085FD13C03FBF8091E400891721F450
:100BC00081E080931001F9C080910D01882309F420
:100BD000F4C03FB7F8945093E900E9CF8091F20058
:100BE0002A2F281B822F90E06817790708F4262FF8
:100BF000822F90E08134910508F0C6C084579F4F42
:100C0000FC01EE0FFF1F0590F491E02D09948991EE
:100C10008093F10089918093F10089918093F10094
:100C200089918093F10089918093F100899180935B
:100C3000F10089918093F10089918093F10089916D
:100C40008093F10089918093F10089918093F10064
:100C500089918093F10089918093F100899180932B
:100C6000F10089918093F10089918093F10089913D
:100C70008093F10089918093F10089918093F10034
:100C800089918093F10089918093F10089918093FB
:100C9000F10089918093F10089918093F10089910D
:100CA0008093F10089918093F10089918093F10004
:100CB00089918093F10089918093F10089918093CB
:100CC000F10089918093F10089918093F1008991DD
:100CD0008093F10089918093F10089918093F100D4
:100CE00089918093F10089918093F100899180939B
:100CF000F10089918093F10089918093F1008991AD
:100D00008093F10089918093F10089918093F100A3
:100D100089918093F10089918093F100899180936A
:100D2000F10089918093F10089918093F10089917C
:100D30008093F10089918093F10089918093F10073
:100D400089918093F10089918093F100899180933A
:100D5000F10089918093F10089918093F10089914C
:100D60008093F10089918093F10089918093F10043
:100D700089918093F10089918093F100899180930A
:100D8000F10089918093F10089918093F100809125
:100D9000E80085FD02C0B093E800621B7109409332
:100DA0000F0104C054E0A0E4BAE345E06115710509
:100DB00009F0FACE3FBF80E001C08FEFDF91CF9105
:100DC00008959FB7F89480910F01882341F084E043
:100DD0008093E9008AE38093E80010920F019FBF9F
:100DE000089560910001709101018091020190913C
:100DF00003010895809104010895809105010895EB
:100E000080910601089580910E010895382F9FB7B3
:100E1000F89480910D01882339F022E02093E900B5
:100E20008091E80085FD03C09FBF8FEF089581EAA0
:100E30008093F10080E28093F1001092F100109213
:100E4000F1001092F1001092F1002093F100109245
:100E5000F1003093F1001092F1008AE38093E800F2
:100E60009FBF80E008951F920F920FB60F9211243A
:100E70008F939F938091E1001092E100982F83FF60
:100E800011C01092E90081E08093EB001092EC0019
:100E900082E18093ED0088E08093F00010920D01D4
:100EA00010920E0192FF13C080910D01882379F0FA
:100EB00080910F01882359F0815080930F0188237E
:100EC00031F484E08093E9008AE38093E8009F9105
:100ED0008F910F900FBE0F901F9018951F920F9239
:100EE0000FB60F9211240F931F932F933F934F939D
:100EF0005F936F937F938F939F93AF93BF93EF9382
:100F0000FF931092E9008091E80083FF3CC140917B
:100F1000F1003091F1008091F100682F70E0209194
:100F2000F100922F80E0682B792B8091F100A82F9F
:100F3000B0E02091F100922F80E0A82BB92B109106
:100F4000F1000091F10082EF8093E800363009F063
:100F50005AC021EA31E0A90145505040F9013797C4
:100F6000859194918617970701F5FA0185919491DF
:100F70008A179B07D1F49A012E5F3F4FF9016591C3
:100F800074912E5F3F4FF9014491212F30E0902F53
:100F900080E0282B392B2F3F310519F010F02FEF6F
:100FA00030E0241758F4422F09C0295F3F4F495FB2
:100FB0005F4FF1E02B3C3F0789F6E5C05EEF809183
:100FC000E800282F30E0C90185709070892BB9F3B3
:100FD00022FDDCC0342F413108F030E1232FCB015A
:100FE00006C0FC010196E491E093F1002150222318
:100FF000C1F7630F711D431B5093E8004423F9F6BA
:101000003031E9F2C3C0353061F48EEF8093E800EF
:101010008091E80080FFFCCF862F80688093E300FA
:10102000B5C0393051F5442309F0ADC060930D01CE
:1010300010920E0110920F018EEF8093E80084EC65
:1010400091E021E02093E900FC010196E491E09316
:10105000EB00EE2369F0AC014F5F5F4FFC01849120
:101060008093EC00CA010196FA0134913093ED00AF
:101070002F5F253039F78EE181C0383061F4403878
:1010800009F081C08091E80080FFFCCF80910D01C4
:101090008093F10050C0313289F4413A09F073C0B5
:1010A0008091E80080FFFCCFE0E0F1E08191809347
:1010B000F10081E0E730F807C9F73DC03032A1F414
:1010C000413209F060C08091E80082FFFCCFE0E08F
:1010D000F1E08091F100819381E0E730F807C9F7F2
:1010E0008BEF8093E80027C0323251F4413209F08F
:1010F0004AC060930E018091E80080FFFCCF1BC0C6
:101100003323E9F48091E80080FFFCCF423811F0EE
:1011100080E00DC0A093E9008091EB0090E025E015
:10112000969587952A95E1F781701092E900809352
:10113000F1001092F1008EEF8093E80027C031306B
:1011400011F0333001F54230F1F4672BE1F42A2F2E
:101150002F77822F81508430B0F48EEF8093E80097
:101160002093E900333079F089E18093EB0081E04E
:1011700090E002C0880F991F2A95E2F78093EA0059
:101180001092EA0003C081E28093EB00FF91EF919F
:10119000BF91AF919F918F917F916F915F914F918F
:1011A0003F912F911F910F910F900FBE0F901F90A5
:1011B00018951F93CF93DF93EC01FE0121961491B4
:1011C000112349F01A3019F48DE00E945705812F40
:1011D0000E945705F2CFDF91CF911F910895982F6C
:1011E0008A3010F087E301C080E3890F0E94570521
:1011F00008951F93182F82958F700E94EF08812FFA
:101200008F700E94EF081F9108951F93182F892F48
:101210000E94F908812F0E94F9081F9108950E94E9
:10122000F9080895EF92FF920F931F93DF93CF93E6
:10123000CDB7DEB72A970FB6F894DEBF0FBECDBF8D
:101240008E010F5F1F4F2AE0F80111922A95E9F7EE
:10125000A8012AE030E00E94E40A3BE0E32EF12CF2
:10126000EC0EFD1EF8018081882311F00E945705C5
:101270000F5F1F4F0E151F05A9F72A960FB6F8949A
:10128000DEBF0FBECDBFCF91DF911F910F91FF90B9
:10129000EF900895EF92FF920F931F93DF93CF93F8
:1012A000CDB7DEB72B970FB6F894DEBF0FBECDBF1C
:1012B0008E010F5F1F4F2BE0F80111922A95E9F77D
:1012C000A8012AE030E00E94B00A4CE0E42EF12CA4
:1012D000EC0EFD1EF8018081882311F00E94570555
:1012E0000F5F1F4F0E151F05A9F72B960FB6F89429
:1012F000DEBF0FBECDBFCF91DF911F910F91FF9049
:10130000EF900895EF92FF920F931F93DF93CF9387
:1013100000D000D00F92CDB7DEB78E010F5F1F4F08
:1013200025E0F80111922A95E9F7B8014AE050E06A
:101330000E94090B56E0E52EF12CEC0EFD1EF80183
:101340008081882311F00E9457050F5F1F4F0E15F3
:101350001F05A9F70F900F900F900F900F90CF914E
:10136000DF911F910F91FF90EF900895EF92FF9200
:101370000F931F93DF93CF93CDB7DEB727970FB6A9
:10138000F894DEBF0FBECDBF8E010F5F1F4F27E069
:10139000F80111922A95E9F7B8014AE050E00E945D
:1013A0008F0A68E0E62EF12CEC0EFD1EF80180811C
:1013B000882311F00E9457050F5F1F4F0E151F0560
:1013C000A9F727960FB6F894DEBF0FBECDBFCF9119
:1013D000DF911F910F91FF90EF900895589A599ABD
:1013E0005A9A8CE08093B800E9E6F0E08081806250
:1013F000808380818F7E8083EA9A7894089584E840
:101400008093BC008091BC0087FFFCCF8091BB0023
:10141000089584E98093BC00089520E030E0809135
:10142000BC0087FD06C02F5F3F4F83E0293E380791
:10143000B1F780E0285E334009F081E008958093A1
:10144000BB0084E88093BC000E940D0A882319F039
:101450008091B900887F08950F931F93182F062F4E
:1014600084EA8093BC000E940D0A882371F0812FCA
:10147000880F002331F08F5F0E941F0A883451F4D7
:1014800004C00E941F0A803229F484E98093BC00C2
:1014900080E001C081E01F910F9108950F931F9389
:1014A000162F042F60E00E942C0A882379F0812FE8
:1014B0000E941F0A882351F0802F0E941F0A882350
:1014C00029F084E98093BC0081E001C080E01F9195
:1014D0000F9108950F931F93082F162F60E00E941D
:1014E0002C0A8823C1F0812F0E941F0A882399F0BB
:1014F00084E98093BC00802F61E00E942C0A88233D
:1015000051F084E88093BC008091BC0087FFFCCF41
:101510008091BB0001C080E01F910F910895FB01F5
:101520009F01E8944230C4F04532B4F44A3029F4C3
:1015300097FB1EF4909581959F4F642F77270E940B
:101540002F0B805D8A330CF0895D8193CB0100976E
:10155000A1F716F45DE251931082C9010C941F0BA0
:10156000FA01CF93FF93EF93223044F1253234F503
:10157000C22FE894CA3049F497FB3EF490958095C9
:10158000709561957F4F8F4F9F4F2C2F33274427A6
:101590005527FF93EF930E94430BEF91FF91605DFE
:1015A0006A330CF0695D6193B901CA016050704003
:1015B0008040904051F716F4CDE2C19310828F9194
:1015C0009F91CF910C941F0BFA01CF93FF93EF9350
:1015D0002230CCF02532BCF4C22F2C2F33274427E5
:1015E0005527FF93EF930E94430BEF91FF91605DAE
:1015F0006A330CF0695D6193B901CA0160507040B3
:101600008040904051F710828F919F91CF910C9420
:101610001F0BFB019F01423074F0453264F4642FCC
:1016200077270E942F0B805D8A330CF0895D8193B0
:10163000CB010097A1F71082C9010C941F0BDC01AC
:10164000FC01672F71917723E1F7329704C07C91F9
:101650006D9370836291AE17BF07C8F30895AA1BFC
:10166000BB1B51E107C0AA1FBB1FA617B70710F08D
:10167000A61BB70B881F991F5A95A9F780959095BF
:10168000BC01CD010895A1E21A2EAA1BBB1BFD01CE
:101690000DC0AA1FBB1FEE1FFF1FA217B307E40751
:1016A000F50720F0A21BB30BE40BF50B661F771FA9
:1016B000881F991F1A9469F7609570958095909589
:0E16C0009B01AC01BD01CF010895F894FFCF4E
:0816CE0000E10000000008002B
:00000001FF
