:100000000C9403010C9420010C9420010C947F01AA
:100010000C9420010C9420010C9420010C942001DC
:100020000C9420010C9420010C94FE050C943806CD
:100030000C9420010C9420010C9420010C942001BC
:100040000C9420010C9422010C9420010C942001AA
:100050000C9420010C9420010C9420010C9420019C
:100060000C9420010C9420010C9420010C9420018C
:100070000C9420010C9420010C9420010C9420017C
:100080000C94A0010C9420010C9420010C942001EC
:100090000C9420010C9420010C9420010C9420015C
:1000A0000C9420010C9420010C9420019F059C05C8
:1000B00099059605930590058D058A0587058405A4
:1000C00081057E057B057805750572056F056C0554
:1000D00069056605630560055D055A055705540504
:1000E00051054E054B054805450542053F053C05B4
:1000F00039053605330530052D052A052705240564
:1001000021051E051B051805150512050F050C0513
:100110000905060503050005FD04FA04F704F404C7
:10012000F104EE04EB04E804E504E204DF040D0A44
:10013000204672657175656E6379546F74616C3AAF
:100140002020000D0A204475726174696F6E3A2098
:100150002000000100008601120002000098014307
:1001600000030000DB010401030904DF01120203A4
:100170000904F3010603030904FB01080001C1128D
:100180000180360181361201000202000010C01603
:100190007A0400010102030109024300020100C0C8
:1001A00032090400000102020100052400100105CB
:1001B000240101010424020605240600010705822A
:1001C0000310004009040100020A000000070503B3
:1001D00002400000070584024000000403090412E5
:1001E000034A002E0020004600690065006E00658D
:1001F00000000006034D0032000000080334003107
:1002000000300000000011241FBECFEFDAE0DEBF97
:10021000CDBF13E0A0E0B1E0ECE2F1E202C0059056
:100220000D92A431B107D9F713E0A4E1B3E001C006
:100230001D92AF32B107E1F70E940C030C949410A9
:100240000C9400001F920F920FB60F9211242F935F
:100250003F934F935F936F937F938F939F93AF934E
:10026000BF93CF93DF93EF93FF93C0912903D09176
:100270002A036091880070918900CC0FDD1FCC0F9C
:10028000DD1FCC5FDE4F80E090E00E94F70C2881FC
:1002900039814A815B810E947B0B0E94A709709380
:1002A0008B0060938A0020910201309103018091BC
:1002B000290390912A03820F931F90932A0380931E
:1002C00029038091290390912A038034910524F019
:1002D00010922A0310922903FF91EF91DF91CF91A1
:1002E000BF91AF919F918F917F916F915F914F914E
:1002F0003F912F910F900FBE0F901F9018951F9256
:100300000F920FB60F9211248F939F936A9A8EB11A
:1003100094E089278EB981E090E090932403809344
:1003200023039093260380932503909328038093BF
:1003300027039F918F910F900FBE0F901F901895DC
:100340001F920F920FB60F9211248F939F93EF93EA
:10035000FF936E9A8EB190E489278EB9E0E8F0E0C1
:1003600080818F7D808380818061808310922403CF
:1003700010922303FF91EF919F918F910F900FBEE9
:100380000F901F90189580911D0390911E03009768
:1003900041F40E94D60381E090E090931E03809385
:1003A0001D030E94EF038823A1F083E491E00E94E3
:1003B000A10780911B0390911C030E94D9078EE234
:1003C00091E00E94A10780910001909101010E949B
:1003D000D90780E090E0089580911F039091200359
:1003E000009709F04BC0809181008B7F8093810042
:1003F000809181008D7F8093810080918100816058
:1004000080938100269A8091800080628093800092
:10041000809180008F7E8093800080918100806138
:100420008093810080918100877F809381008091FB
:100430008000826080938000809180008160809342
:10044000800080916F00826080936F002091000196
:1004500030910101442737FD4095542F60E472E448
:100460008FE090E00E946C0F309389002093880009
:1004700081E090E09093200380931F0380912703F5
:1004800090912803009709F450C080918000806209
:1004900080938000809180008F7E80938000809187
:1004A0001403992787FD9095909318038093170361
:1004B00097FF06C08FE790E090931803809317038F
:1004C00080911503992787FD909590931A03809347
:1004D000190397FF06C08FE790E090931A0380936B
:1004E00019033091190320E08091170390911803AC
:1004F000820F931F6AE070E00E94590F7093010110
:10050000609300019B01442737FD4095542F60E420
:1005100072E48FE090E00E946C0F3093890020938A
:100520008800109228031092270388E090E09093AF
:1005300003018093020181E090E0089580912103FE
:10054000909122030097C9F5809191008460809377
:100550009100809191008D7F809391008091910016
:10056000816080939100809191008F7E80939100B3
:1005700080919100886080939100809190008D7FA0
:1005800080939000809190008E7F80939000809166
:1005900090008F778093900080919000806480938A
:1005A0009000809171008260809371003E9A81E09A
:1005B00090E09093220380932103809125039091F2
:1005C0002603009731F180911603992787FD9095B6
:1005D00090931C0380931B0397FF06C08EE190E06D
:1005E00090931C0380931B0340911B0350911C03A9
:1005F0002CE930E0429FC001439F900D529F900D27
:1006000011249093990080939800109226031092E1
:10061000250380E090E008956E9A8EB11EB880E8C0
:1006200080936100109261000E942D0381E06AE1D5
:1006300043E00E94B20878948091230390912403B0
:1006400081309105C9F784E193E063E00E940A09D3
:100650000E94EC010E949E02EFCF589A599A5A9A32
:100660008CE08093B800E9E6F0E0808180628083CE
:1006700080818F7E8083EA9A7894089584E88093BD
:10068000BC008091BC0087FFFCCF8091BB00089527
:1006900084E98093BC00089520E030E08091BC00A4
:1006A00087FD06C02F5F3F4F83E0293E3807B1F733
:1006B00081E093E0283E390709F480E008958093B3
:1006C000BB0084E88093BC000E944C03882321F087
:1006D0008091B900887F089580E008951F93DF938B
:1006E000CF930F92CDB7DEB7182F84EA8093BC006A
:1006F00069830E944C036981882371F0812F880FE0
:10070000662331F08F5F0E945F03883451F404C088
:100710000E945F03803229F484E98093BC0080E06A
:1007200001C081E00F90CF91DF911F9108950F9349
:100730001F93162F042F60E00E946E03882379F028
:10074000812F0E945F03882351F0802F0E945F0356
:10075000882329F084E98093BC0081E001C080E017
:100760001F910F9108950F931F93182F062F60E08C
:100770000E946E03882389F0802F0E945F038823E4
:1007800061F084E98093BC00812F61E00E946E03D8
:10079000882319F00E943E0301C080E01F910F9151
:1007A00008958091E80080FFFCCF089581E0809358
:1007B000D70080EA8093D80082E189BD09B400FEA9
:1007C000FDCF80E98093D8001092E00010922B03B7
:1007D00010922C038CE08093E2007894089580912D
:1007E0002B0308959FB7F89480912B03882339F049
:1007F00083E08093E9008091E80085FD03C09FBFFE
:100800008FEF08958091F1002091E80025FD03C04D
:100810002BE62093E8009FBF08959FB7F89480913E
:100820002B03882331F083E08093E9008091F2006C
:1008300001C080E09FBF089580912B03882371F051
:100840008FB7F89493E09093E9009BE602C09093F1
:10085000E8002091E80025FDFACF8FBF0895909120
:100860002B039923D1F19FB7F89424E02093E9005A
:1008700020912E03222341F02091E80025FD02C0A3
:100880009FBF2BC010922E032091E400275E34E01E
:100890004091E80045FD12C09FBF9091E40092177F
:1008A00021F481E080932E0318C090912B039923AB
:1008B000B1F09FB7F8943093E900EACF8093F1004C
:1008C0008091E80085FD03C08AE38093E80085E01D
:1008D00080932D039FBF80E008958FEF08958FEFE1
:1008E000089590912B039923D9F09FB7F89424E0B1
:1008F0002093E9002091E80025FD03C09FBF8FEF02
:1009000008958093F1008091E80085FD03C08AE39B
:100910008093E80085E080932D039FBF80E00895D9
:100920008FEF08951F93DC0180912B03882309F436
:100930001AC12FB7F89484E08093E90080912E03C8
:10094000882309F405C18091E80085FD02C02FBF0E
:100950000AC110922E03FCC08091E400875E909142
:10096000E80095FD13C02FBF9091E400981721F483
:1009700081E080932E03F7C090912B03992309F413
:10098000F2C02FB7F8941093E900E9CF8091F200FC
:10099000E52FE81B8E2F90E06817790708F4E62F03
:1009A0006E1B7109F0E0E134F10508F0C5C0EA5AA8
:1009B000FF4FEE0FFF1F0590F491E02D09948D91EC
:1009C0008093F1008D918093F1008D918093F100DF
:1009D0008D918093F1008D918093F1008D918093A2
:1009E000F1008D918093F1008D918093F1008D91B4
:1009F0008093F1008D918093F1008D918093F100AF
:100A00008D918093F1008D918093F1008D91809371
:100A1000F1008D918093F1008D918093F1008D9183
:100A20008093F1008D918093F1008D918093F1007E
:100A30008D918093F1008D918093F1008D91809341
:100A4000F1008D918093F1008D918093F1008D9153
:100A50008093F1008D918093F1008D918093F1004E
:100A60008D918093F1008D918093F1008D91809311
:100A7000F1008D918093F1008D918093F1008D9123
:100A80008093F1008D918093F1008D918093F1001E
:100A90008D918093F1008D918093F1008D918093E1
:100AA000F1008D918093F1008D918093F1008D91F3
:100AB0008093F1008D918093F1008D918093F100EE
:100AC0008D918093F1008D918093F1008D918093B1
:100AD000F1008D918093F1008D918093F1008D91C3
:100AE0008093F1008D918093F1008D918093F100BE
:100AF0008D918093F1008D918093F1008D91809381
:100B0000F1008D918093F1008D918093F1008D9192
:100B10008093F1008D918093F1008D918093F1008D
:100B20008D918093F1008D918093F1008D91809350
:100B3000F1008D918093F1008D918093F10080916F
:100B4000E80085FD02C04093E80030932D0304C007
:100B500014E050E44AE335E06115710509F0FCCE7C
:100B60002FBF80E001C08FEF1F9108958FB7F894D9
:100B700090912D03992341F094E09093E9009AE33A
:100B80009093E80010922D038FBF08958091080282
:100B9000089580910902089580910A020895809134
:100BA0002C0308959FB7F89420912B03222339F04A
:100BB00022E02093E9003091E80035FD03C09FBF9B
:100BC0008FEF089531EA3093F10030E23093F10075
:100BD0001092F1001092F1001092F1001092F100C9
:100BE0002093F1001092F1008093F1001092F10037
:100BF0008AE38093E8009FBF80E008951F920F92E0
:100C00000FB60F9211248F939F938091E100109261
:100C1000E10083FF11C01092E90091E09093EB0096
:100C20001092EC0092E19093ED0098E09093F00028
:100C300010922B0310922C0382FF13C080912B0380
:100C4000882379F080912D03882359F08150809377
:100C50002D03882331F484E08093E9008AE38093B4
:100C6000E8009F918F910F900FBE0F901F901895E5
:100C70001F920F920FB60F921124EF92FF920F93D3
:100C80001F932F933F934F935F936F937F938F9314
:100C90009F93AF93BF93EF93FF93DF93CF930F9205
:100CA000CDB7DEB71092E9008091E80083FF2EC136
:100CB0002091F1003091F1008091F100E82EFF24A5
:100CC0004091F100942F80E0E82AF92A0091F10088
:100CD00010E04091F100942F80E0082B192B6091D7
:100CE000F100A091F10082EF8093E800363009F026
:100CF00059C089E591E09C0125503040FC013797AF
:100D0000459154914E155F05F9F4F90145915491BF
:100D100040175107C9F42E5F3F4FF9018591949117
:100D20002E5F3F4FF9012491462F50E07A2F60E06B
:100D3000462B572B4F3F510519F010F04FEF50E065
:100D4000421750F4242F08C00796295F3F4FF1E067
:100D500083389F0799F6DAC0AEEF4091E80050E083
:100D6000BA016570707061157105B9F342FDD1C0AB
:100D7000322F213108F030E1AC01632F07C0FA01B6
:100D80004F5F5F4FE491E093F10061506623B9F744
:100D9000830F911D231BA093E8002223F1F630312D
:100DA000E1F2B7C0353051F48EEF8093E8000E9435
:100DB000D1038E2D80688093E300ABC0393051F5AC
:100DC000222309F0A3C0E0922B0310922C0310926F
:100DD0002D038EEF8093E80041E08CE791E0409393
:100DE000E900FC010196E491E093EB00EE2369F049
:100DF0009C012F5F3F4FFC0184918093EC00C9015F
:100E00000196F90124912093ED004F5F453039F7A9
:100E10008EE177C0383051F4203809F077C00E9455
:100E2000D10380912B038093F10048C0313279F4D3
:100E3000213A09F06BC00E94D103E4E0F2E0819115
:100E40008093F10022E0EB30F207C9F737C030326F
:100E5000A1F4213209F05AC08091E80082FFFCCF52
:100E6000E4E0F2E08091F100819332E0EB30F307AF
:100E7000C9F78BEF8093E80021C0323241F4213270
:100E800009F044C0E0922C030E94D10317C0332321
:100E9000C9F429830E94D1032981223851F4009397
:100EA000E9009091EB0081E095FF80E01092E9006D
:100EB00001C080E08093F1001092F1008EEF8093EA
:100EC000E80027C0313011F0333001F52230F1F461
:100ED000E114F104D9F40F77802F81508430B0F4FD
:100EE0008EEF8093E8000093E900333079F089E1D8
:100EF0008093EB0081E090E002C0880F991F0A9573
:100F0000E2F78093EA001092EA0003C081E2809346
:100F1000EB000F90CF91DF91FF91EF91BF91AF91D7
:100F20009F918F917F916F915F914F913F912F9101
:100F30001F910F91FF90EF900F900FBE0F901F9099
:100F400018951F93CF93DF93EC01FE012196149126
:100F5000112349F01A3019F48DE00E942F04812FDB
:100F60000E942F04F2CFDF91CF911F9108958A3014
:100F700010F490E301C097E3890F0E942F040895B5
:100F80001F93182F82958F700E94B707812F8F7043
:100F90000E94B7071F9108951F93182F892F0E9451
:100FA000C007812F0E94C0071F9108950E94C007AB
:100FB0000895EF92FF920F931F93DF93CF93CDB7D6
:100FC000DEB727970FB6F894DEBF0FBECDBF8E01F8
:100FD0000F5F1F4F27E0F80111922A95E9F7B8013A
:100FE0004AE050E00E94F40F88E0E82EF12CEC0E6D
:100FF000FD1EF80181918F01882311F00E942F04BA
:101000000E151F05B1F727960FB6F894DEBF0FBE79
:10101000CDBFCF91DF911F910F91FF90EF90089579
:10102000EF92FF920F931F93DF93CF9300D000D0E6
:1010300000D0CDB7DEB78E010F5F1F4F26E0F8015D
:1010400011922A95E9F7B8014AE050E00E946E102B
:1010500096E0E92EF12CEC0EFD1EF80181918F0136
:10106000882311F00E942F040E151F05B1F7269654
:101070000FB6F894DEBF0FBECDBFCF91DF911F91A9
:101080000F91FF90EF900895EF92FF920F931F93AF
:10109000DF93CF93CDB7DEB72B970FB6F894DEBFB3
:1010A0000FBECDBF8E010F5F1F4F2BE0F8011192D5
:1010B0002A95E9F7A8012AE030E00E9415102CE0FB
:1010C000E22EF12CEC0EFD1EF80181918F01882398
:1010D00011F00E942F040E151F05B1F72B960FB6C5
:1010E000F894DEBF0FBECDBFCF91DF911F910F915E
:1010F000FF90EF900895EF92FF920F931F93DF936D
:10110000CF93CDB7DEB72B970FB6F894DEBF0FBEE7
:10111000CDBF8E010F5F1F4F2BE0F80111922A9572
:10112000E9F7A8012AE030E00E9449103BE0E32EF5
:10113000F12CEC0EFD1EF80181918F01882311F036
:101140000E942F040E151F05B1F72B960FB6F894C9
:10115000DEBF0FBECDBFCF91DF911F910F91FF90EA
:10116000EF900895DF93CF9300D00F92CDB7DEB705
:101170004B836A8389830E942D0394EA9093BC0079
:1011800089816A814B819091BC0097FFFCCF90E5EB
:101190009093BB0094E89093BC009091BC0097FFA3
:1011A000FCCF9091B900987F903229F484E9809324
:1011B000BC0080E029C091E09093BB0094E890933C
:1011C000BC009091BC0097FFFCCF8093BB0084E8EB
:1011D0008093BC008091BC0087FFFCCF6093BB0074
:1011E00084E88093BC008091BC0087FFFCCF4093D3
:1011F000BB0084E88093BC008091BC0087FFFCCFDB
:1012000084E98093BC0081E00F900F900F90CF9104
:10121000DF91089524EA2093BC002091BC0027FFB1
:10122000FCCF21E52093BB0024E82093BC00209153
:10123000BC0027FFFCCF2091B900287F2834A9F0FB
:1012400024EC2093BC002091BC0027FFFCCF209110
:10125000BB00261751F4FC0120E030E0772767FD42
:1012600070956150704044EC10C084E98093BC00DC
:1012700080E008954093BC005091BC0057FFFCCF24
:101280005091BB0051932F5F3F4F2617370794F3C0
:1012900044E84093BC004091BC0047FFFCCF409124
:1012A000BB00820F931FFC01408384E98093BC0044
:1012B00081E00895F89494EA9093BC009091BC006A
:1012C00097FFFCCF90E59093BB0094E89093BC000F
:1012D0009091BC0097FFFCCF9091B900987F90321D
:1012E00031F484E98093BC00789480E0089593E021
:1012F0009093BB0094E89093BC009091BC0097FF42
:10130000FCCF8093BB0084E88093BC008091BC003C
:1013100087FFFCCF862F972FFC0180E090E05527B8
:1013200047FD509524E80AC031913093BB002093CB
:10133000BC003091BC0037FFFCCF019684179507A5
:101340009CF384E98093BC00789481E00895EF9247
:10135000FF920F931F937B018C0120E030E040E06F
:101360005FE40E94750C87FD11C0C801B70120E041
:1013700030E040E05FE40E944A0B0E94A50C9B0114
:10138000AC01205030404040504806C0C801B70171
:101390000E94A50C9B01AC01B901CA011F910F91DC
:1013A000FF90EF900895A0E0B0E0E9EDF9E00C9433
:1013B000C10FFC01EA018081823008F438C1DB01F1
:1013C0009C91923008F430C1843059F4943009F083
:1013D0002EC1918111968C911197981709F021C116
:1013E00026C1943009F420C19230B1F4823009F062
:1013F0001EC1CA01AF0128E0DA010D90AD01DC0188
:101400000D92CD012150C1F7DB0111968C911197FE
:101410009181892389830AC1823009F405C1C28080
:10142000D380DB0112966D907C90139724813581D7
:10143000468157811496ED90FD900D911C91179760
:10144000C601861997095C0197FF04C0AA24BB2432
:10145000A81AB90AB0E2AB16B1040CF061C01816B4
:1014600019066CF5370148010A2C04C0969487943C
:10147000779467940A94D2F781E090E0A0E0B0E01E
:101480000A2C04C0880F991FAA1FBB1F0A94D2F709
:101490000197A109B1098E219F21A023B123EE2438
:1014A000FF248701E3940097A105B10519F4EE2408
:1014B000FF248701E628F728082919293CC000974E
:1014C000D1F1CA0CDB1C39014A010A2C04C09694E4
:1014D0008794779467940A94D2F781E090E0A0E033
:1014E000B0E00A2C04C0880F991FAA1FBB1F0A94E2
:1014F000D2F70197A109B10982239323A423B5232D
:1015000021E030E040E050E00097A105B10519F47A
:1015100020E030E0A90126293729482959290BC0A4
:101520006C147D0424F4EE24FF24870104C06301BD
:1015300020E030E0A9018181FB019181891709F444
:1015400045C0882349F0D801C701821B930BA40B27
:10155000B50B9C01AD0104C02E193F09400B510B86
:1015600057FD04C01982DB82CA820BC081E08983E7
:10157000DB82CA8250954095309521953F4F4F4F61
:101580005F4F2C833D834E835F830DC0880F991F6F
:10159000AA1FBB1F8C839D83AE83BF838A819B81DF
:1015A00001979B838A838C819D81AE81BF819C0141
:1015B000AD0121503040404050402F3FEFEF3E07FB
:1015C000EFEF4E07EFE35E0708F30BC08983DB8282
:1015D000CA822E0D3F1D401F511F2C833D834E8319
:1015E0005F8383E088832C813D814E815F8157FF3B
:1015F0001DC0DA01C90181709070A070B07056955D
:10160000479537952795822B932BA42BB52B8C834D
:101610009D83AE83BF838A819B8101969B838A834E
:1016200005C0EBE0F2E003C0FB0101C0FE01CF0109
:10163000CDB7DEB7EEE00C94DD0FA0E2B0E0E3E260
:10164000FBE00C94C90F69837A838B839C832D8381
:101650003E834F83588789E0E82EF12CEC0EFD1E67
:10166000CE010196B7010E94970E8E010F5E1F4FAB
:10167000CE010596B8010E94970EC701B801AE01D0
:10168000475E5F4F0E94D3090E94C90DA096E6E015
:101690000C94E50FA0E2B0E0E0E5FBE00C94C90F8C
:1016A00069837A838B839C832D833E834F83588702
:1016B0008E01075F1F4FCE010196B8010E94970E61
:1016C00091E1E92EF12CEC0EFD1ECE010596B7013D
:1016D0000E94970E8A8991E089278A8BC801B701F9
:1016E000AE01475E5F4F0E94D3090E94C90DA096CC
:1016F000E6E00C94E50FA0E2B0E0E1E8FBE00C943A
:10170000BD0F69837A838B839C832D833E834F83B4
:101710005887CE010196BE01675F7F4F0E94970EEA
:10172000CE010596BE016F5E7F4F0E94970E998590
:10173000923078F089898230C0F0943019F4823088
:1017400041F4CBC0843019F4923079F4C6C09230A1
:1017500051F481E02A859A89291709F480E08A8763
:10176000CE010996BCC0823051F481E02A859A8965
:10177000291709F480E08A8BCE014196B0C06D84B0
:101780007E848F849888ED88FE880F89188DE0E22A
:10179000F0E080E090E0DC01AA24BB24650120E0B9
:1017A00030E0A901B3016170707061157105D1F06D
:1017B0002E0D3F1D401F511F15012601280E391EF9
:1017C0004A1E5B1E81E090E0A0E0B0E02E153F05D0
:1017D0004007510718F080E090E0DC01820D931D76
:1017E000A41DB51DAA0CBB1CCC1CDD1C17FF09C019
:1017F00061E0262E312C412C512CA228B328C4287C
:10180000D528319749F0EE0CFF1C001F111F96944C
:10181000879477946794C6CF6B897C89EB85FC8528
:101820006E0F7F1F6E5F7F4F7C8F6B8F61E0EA854D
:101830007A89E71709F460E06A8F6B8D7C8D10C0A0
:10184000FC01E170F070309729F056954795379577
:1018500027955068B695A795979587956F5F7F4FA9
:10186000B7FDEECF0CC0880F991FAA1FBB1F57FDF5
:101870008160220F331F441F551F6150704080301C
:10188000E0E09E07E0E0AE07E0E4BE0760F36B8FA8
:101890007C8F6FE7E62EF12C012D112DE822F92225
:1018A0000A231B2360E4E616F1040105110561F427
:1018B00087FD0AC0211531054105510529F0805CDD
:1018C0009F4FAF4FBF4F80788D8F9E8FAF8FB8A344
:1018D00083E0898FCE01499602C08BE092E00E949E
:1018E000C90DA096E2E10C94D90FA8E1B0E0EBE7B6
:1018F000FCE00C94C90F69837A838B839C832D83CE
:101900003E834F8358878E01075F1F4FCE0101969C
:10191000B8010E94970E81E1E82EF12CEC0EFD1E1D
:10192000CE010596B7010E94970E8985823040F05E
:101930008989823028F0C801B7010E94000F01C0D8
:101940008FEF6896E6E00C94E50FACE0B0E0EBEAD0
:10195000FCE00C94CD0F69837A838B839C83CE014A
:101960000196BE016B5F7F4F0E94970E8D81823082
:1019700081F1823070F1843021F48E81882369F105
:101980000AC02F81388537FD24C06E812F31310583
:101990003CF0662311F120E030E040E050E821C047
:1019A0008EE190E0821B930B29853A854B855C85FF
:1019B00004C056954795379527958A95D2F76623A3
:1019C00081F050954095309521953F4F4F4F5F4F97
:1019D00008C020E030E0A90104C02FEF3FEF4FEF37
:1019E0005FE7B901CA012C96E2E00C94E90FA8E088
:1019F000B0E0EDEFFCE00C94C70F7B018C011A8284
:101A0000611571058105910519F482E089835FC034
:101A100083E089838EE1C82ED12CDC82CB82ED82DB
:101A2000FE820F831887C801B7010E946F0DFC0169
:101A30003197F7FF3AC0AA27BB27AE1BBF0B21E0A7
:101A400030E040E050E00A2E04C0220F331F441F54
:101A5000551F0A94D2F721503040404050402E216B
:101A60003F214023512361E070E080E090E02115A8
:101A700031054105510519F460E070E0CB0104C067
:101A800016950795F794E794AA95D2F7E62AF72AD0
:101A9000082B192BED82FE820F8318878EE190E0D0
:101AA0008E1B9F0B9C838B8312C0309781F00E2E70
:101AB00004C0EE0CFF1C001F111F0A94D2F7ED8228
:101AC000FE820F831887CE1ADF0ADC82CB82CE011A
:101AD00001960E94C90D2896E8E00C94E30FAF929E
:101AE000BF92CF92DF92EF92FF920F931F937B01F1
:101AF0008C0180E0E81680E0F80681E0080780E0CD
:101B0000180758F4EFEFEE16F1040105110509F07E
:101B100090F480E090E0DC0117C0F0E0EF16F0E018
:101B2000FF06F0E00F07F1E01F0750F480E190E0BE
:101B3000A0E0B0E009C088E090E0A0E0B0E004C020
:101B400088E190E0A0E0B0E020E230E040E050E04A
:101B5000281B390B4A0B5B0B5701680104C0D69454
:101B6000C794B794A7948A95D2F7D601C5018D5E24
:101B70009D4FFC018081281B310941095109C90190
:101B80001F910F91FF90EF90DF90CF90BF90AF909B
:101B90000895EF92FF920F931F93CF93DF93FC0171
:101BA000248135814681578161818081823020F492
:101BB0004061EFEFF0E0A3C0843009F49BC08230B5
:101BC00009F492C0211531054105510509F48FC072
:101BD0000280F381E02D8FEFE238F8070CF05AC055
:101BE000C2E8DFEFCE1BDF0BCA31D1056CF57901FE
:101BF0008A010C2E04C016950795F794E7940A9471
:101C0000D2F781E090E0A0E0B0E00C2E04C0880F95
:101C1000991FAA1FBB1F0A94D2F70197A109B10906
:101C200082239323A423B52321E030E040E050E059
:101C30000097A105B10519F420E030E0A9012E2993
:101C40003F29402B512B03C020E030E0A901DA01ED
:101C5000C9018F779070A070B07080349105A10594
:101C6000B10539F427FF09C0205C3F4F4F4F5F4F4C
:101C700004C0215C3F4F4F4F5F4FE1E0F0E0203068
:101C800080E0380780E0480780E4580728F5E0E066
:101C9000F0E022C0E038F1056CF5E158FF4FDA01C1
:101CA000C9018F779070A070B07080349105A10544
:101CB000B10539F427FF09C0205C3F4F4F4F5F4FFC
:101CC00004C0215C3F4F4F4F5F4F57FF05C05695F3
:101CD000479537952795319687E0569547953795DF
:101CE00027958A95D1F70BC0E0E0F0E005C0E0E071
:101CF000F0E005C0EFEFF0E020E030E0A9018E2F2A
:101D0000879588278795942F9F776795662767958E
:101D1000E695E22EA92FA82BFE2FF62B622F732F0C
:101D20008A2F9F2FCDB7DEB7E6E00C94E50FDC01DC
:101D3000FB012C9111963C91119712968C91129760
:101D4000482F4F7750E0982F991F9927991F139686
:101D50006C911397862F880F892B90E0661F66275A
:101D6000661F6183009739F521153105410551053D
:101D700011F482E029C082E89FEF9383828367E0B9
:101D8000220F331F441F551F6A95D1F783E08083CC
:101D900009C0220F331F441F551F82819381019771
:101DA00093838283203080E0380780E0480780E416
:101DB000580778F320C08F3F910579F4211531053C
:101DC0004105510519F484E08083089544FF03C060
:101DD00081E0808310C010820EC08F5790409383A3
:101DE000828383E0808387E0220F331F441F551FC7
:101DF0008A95D1F7506424833583468357830895A9
:101E0000FC01DB019081923008F449C08C91823052
:101E100008F445C0943051F461818430B1F51196D5
:101E20002C91119730E0261B310941C0843021F0FC
:101E3000923041F48230B1F111968C911197882340
:101E4000A1F12DC06181823001F111968C91119721
:101E50006817D9F42281338112968D919C91139742
:101E60008217930794F028173907BCF02481358135
:101E70004681578114968D919D910D90BC91A02D16
:101E800082179307A407B50718F4662341F00DC025
:101E9000281739074A075B0728F4662331F021E049
:101EA00030E005C020E030E002C02FEF3FEFC90175
:101EB000089597FB092E07260AD077FD04D027D076
:101EC00006D000201AF4709561957F4F0895F6F7BB
:101ED000909581959F4F089597FB092E05260ED06A
:101EE00057FD04D028D00AD0001C38F450954095F6
:101EF000309521953F4F4F4F5F4F0895F6F79095DE
:101F00008095709561957F4F8F4F9F4F0895AA1BC5
:101F1000BB1B51E107C0AA1FBB1FA617B70710F0D4
:101F2000A61BB70B881F991F5A95A9F78095909506
:101F3000BC01CD010895A1E21A2EAA1BBB1BFD0115
:101F40000DC0AA1FBB1FEE1FFF1FA217B307E40798
:101F5000F50720F0A21BB30BE40BF50B661F771FF0
:101F6000881F991F1A9469F76095709580959095D0
:101F70009B01AC01BD01CF0108952F923F924F927A
:101F80005F926F927F928F929F92AF92BF92CF9209
:101F9000DF92EF92FF920F931F93CF93DF93CDB712
:101FA000DEB7CA1BDB0B0FB6F894DEBF0FBECDBF8A
:101FB00009942A88398848885F846E847D848C845B
:101FC0009B84AA84B984C884DF80EE80FD800C8164
:101FD0001B81AA81B981CE0FD11D0FB6F894DEBF47
:101FE0000FBECDBFED010895FB019F01E894423083
:101FF000C4F04532B4F44A3029F497FB1EF49095AE
:1020000081959F4F642F77270E94870F805D8A33C9
:102010000CF0895D8193CB010097A1F716F45DE286
:1020200051931082C9010C948410FA01CF93FF934D
:10203000EF93223044F1253234F5C22FE894CA30B0
:1020400049F497FB3EF490958095709561957F4F8C
:102050008F4F9F4F2C2F332744275527FF93EF9304
:102060000E949B0FEF91FF91605D6A330CF0695DF8
:102070006193B901CA01605070408040904051F7AF
:1020800016F4CDE2C19310828F919F91CF910C9461
:102090008410FA01CF93FF93EF932230CCF02532D6
:1020A000BCF4C22F2C2F332744275527FF93EF93DF
:1020B0000E949B0FEF91FF91605D6A330CF0695DA8
:1020C0006193B901CA01605070408040904051F75F
:1020D00010828F919F91CF910C948410FB019F01EE
:1020E000423074F0453264F4642F77270E94870FE2
:1020F000805D8A330CF0895D8193CB010097A1F755
:102100001082C9010C948410DC01FC01672F7191CD
:102110007723E1F7329704C07C916D9370836291CD
:0C212000AE17BF07C8F30895F894FFCF76
:10212C002C0103000000003F448B0C3FC3F5183F0B
:10213C004625253F09F9303FD6563C3FE71D473F22
:10214C000534513F88855A3FAAF1623F516B6A3F73
:10215C0060E5703F143F763FFA7E7A3FDB8A7D3F25
:10216C00B7627F3F77BE7F3FB7627F3FDB8A7D3FA1
:10217C00FA7E7A3F143F763F60E5703F516B6A3FC1
:10218C00AAF1623F88855A3F0534513FE71D473F0E
:10219C00D6563C3F09F9303F4625253FC3F5183F3D
:1021AC00448B0C3F0000003F79E9E63E7B14CE3EA9
:1021BC0074B5B53EED0D9E3E5452873E6688633E27
:1021CC00EC2F3B3EE2E9153EB072E83D7AA5AC3D02
:1021DC00FCA9713DBF0E1C3DC520B03C52491D3CB5
:1021EC0052491D3B17B7D13852491D3B52491D3C32
:1021FC00C520B03CBF0E1C3DFCA9713D7AA5AC3D81
:10220C00B072E83DE2E9153EEC2F3B3E6688633E3A
:10221C005452873EED0D9E3E74B5B53E7B14CE3EBA
:10222C0079E9E63E00E10000000008000000000033
:10223C00000000000102020303030304040404046D
:10224C000404040505050505050505050505050535
:10225C000505050606060606060606060606060615
:10226C000606060606060606060606060606060602
:10227C0006060607070707070707070707070707E5
:10228C0007070707070707070707070707070707D2
:10229C0007070707070707070707070707070707C2
:1022AC0007070707070707070707070707070707B2
:1022BC000707070808080808080808080808080895
:1022CC000808080808080808080808080808080882
:1022DC000808080808080808080808080808080872
:1022EC000808080808080808080808080808080862
:1022FC000808080808080808080808080808080852
:10230C000808080808080808080808080808080841
:10231C000808080808080808080808080808080831
:10232C000808080808080808080808080808080821
:04233C000808080085
:00000001FF
