:100000000C948C000C94A9000C94A9000C94A900E9
:100010000C94A9000C94A9000C94A9000C94A900BC
:100020000C94A9000C94A9000C94A9000C94A900AC
:100030000C94A9000C94A9000C94A9000C94A9009C
:100040000C94A9000C94A9000C94A9000C94A9008C
:100050000C94A9000C94A9000C94A9000C94A9007C
:100060000C94A9000C94A9000C94A9000C94A9006C
:100070000C94A9000C94A9000C94A9000C94A9005C
:100080000C94A9000C94A9000C94A9000C94A9004C
:100090000C94A9000C94A9000C94A9000C94A9003C
:1000A0000C94A9000C94A9000C94A900C901CC01DE
:1000B0007D017D01CF01D801E101EB01B701BD0157
:1000C000C0018B018E0191017F01820185018801B0
:1000D00094019D01A001A601AE01BA0197019A0108
:1000E000C60188028F02B302B30296029D02A402E7
:1000F000AB026302710278021B0222022902010292
:1001000006020D021402300247024E0255025C0242
:100110006A0238023F02800211241FBECFEFDAE0EC
:10012000DEBFCDBF11E0A0E0B1E0ECEAF5E002C037
:1001300005900D92A231B107D9F711E0A2E1B1E02B
:1001400001C01D92A631B107E1F70E9443010C9452
:10015000D4020C940000CF93DF93EC0183E160E0C4
:100160000E94F1018FE39FE10197F1F700C00000C9
:1001700080E090E825C08C239D23009719F084E14E
:1001800061E002C084E160E00E94F10183E160E08F
:100190000E94F1018FE193E00197F1F700C00000A8
:1001A00083E161E00E94F1018FE193E00197F1F7B3
:1001B00000C00000809110019091110196958795E3
:1001C0009093110180931001809110019091110181
:1001D000009789F68FE39FE10197F1F700C00000D7
:1001E000DF91CF91089580E090E00E94AB008AEA11
:1001F00096EEA6E9B1E081509040A040B040D9F71A
:1002000000008FEF9FEF0E94AB008FEF93EDA0E314
:1002100081509040A040E1F700C00000089583E1C4
:1002200061E00E94F10184E160E00E94F10181E05F
:1002300061E00E94F1018FEF91EEA4E081509040C7
:10024000A040E1F700C0000081E060E00E94F10101
:10025000AFE3BCE91197F1F700C0000081E061E075
:100260000E94F1018FEF91EEA4E081509040A040F8
:10027000E1F700C0000087EF9FEF0E94AB0081E034
:100280000E94B40208956E9A8EB11EB880E885BFB0
:1002900085BF80936100109261008093610010928D
:1002A00061008FEF93ECA9E081509040A040E1F70E
:1002B00000C0000080E00E946E0190E09093150164
:1002C0008093140181309105A9F7109215011092C5
:1002D00014010E940F010E94F300ECCFE82FFF27CA
:1002E000E7FDF095EB31F10540F4EA5AFF4FEE0FD0
:1002F000FF1F0590F491E02D099480E00895209867
:1003000083B167C0219883B11DC0229883B120C0FA
:10031000239883B125C0249883B143C0259883B125
:1003200049C0269883B14FC0279883B12BC03E980F
:1003300086B149C03F9886B125C0509889B149C05F
:10034000519889B190E09695879543C0529889B1AC
:1003500090E096958795969587953BC0539889B17F
:1003600090E053E0969587955A95E1F732C05498FE
:1003700089B117C0559889B11DC0569889B123C05D
:10038000579889B1881F8827881F08956E988CB167
:100390001AC080988FB11DC081988FB1D3CF849837
:1003A0008FB190E044E0969587954A95E1F711C0AA
:1003B00085988FB190E035E0969587953A95E1F76D
:1003C00008C086988FB190E026E0969587952A958B
:1003D000E1F78170089587988FB1881F8827881F5B
:1003E0000895E82FFF27E7FDF095EB31F10508F0C0
:1003F000BAC0EF58FF4FEE0FFF1F0590F491E02DAC
:100400000994209A6623D1F4289830C0219A662353
:1004100011F0299A2BC0299829C0229A662311F03D
:100420002A9A24C02A9822C0239A662311F02B9A74
:100430001DC02B981BC0249A662311F02C9A16C05D
:100440002C9814C0259A662311F02D9A0FC02D9870
:100450000DC0269A662311F02E9A08C02E9806C069
:10046000279A662311F02F9A01C02F9885B108951D
:100470003E9A662311F0469A08C0469806C03F9AF5
:10048000662311F0479A01C0479888B10895509AA1
:10049000662311F0589A32C0589830C0519A66239A
:1004A00011F0599A2BC0599829C0529A662311F01D
:1004B0005A9A24C05A9822C0539A662311F05B9A24
:1004C0001DC05B981BC0549A662311F05C9A16C03D
:1004D0005C9814C0559A662311F05D9A0FC05D9820
:1004E0000DC0569A662311F05E9A08C05E9806C049
:1004F000579A662311F05F9A01C05F988BB10895F7
:100500006E9A662311F0769A01C076988EB108959E
:10051000809A662311F0889A22C0889820C0819A18
:10052000662311F0899A1BC0899819C0849A6623A2
:1005300011F08C9A14C08C9812C0859A662311F021
:100540008D9A0DC08D980BC0869A662311F08E9AF5
:1005500006C08E9804C0879A662319F08F9A81B3DB
:1005600008958F9881B308956A9A813031F082306E
:1005700031F0882341F4729A0895729808958EB1EB
:1005800094E089278EB908956E9A813031F08230D7
:1005900031F0882341F4769A0895769808958EB1C3
:0C05A00090E489278EB90895F894FFCFED
:1005AC0013001400010001000000F7FFFEFFFFFF25
:0205BC000080BD
:00000001FF
