:100000000C9456000C9473000C9473000C947300C1
:100010000C9473000C9473000C9473000C94730094
:100020000C9473000C9473000C9473000C94730084
:100030000C9473000C9473000C9473000C94730074
:100040000C9473000C9473000C9473000C94730064
:100050000C9473000C9473000C9473000C94730054
:100060000C9473000C9473000C9473000C94730044
:100070000C9473000C9473000C9473000C94730034
:100080000C9473000C9473000C9473000C94730024
:100090000C9473000C9473000C9473000C94730014
:1000A0000C9473000C9473000C94730011241FBE05
:1000B000CFEFDAE0DEBFCDBF12E0A0E0B1E0EEEAC4
:1000C000F0E202C005900D92AE31B107D9F712E00F
:1000D000AEE1B2E001C01D92A933B107E1F70E9481
:1000E000E7010C9455100C940000249A259A269A46
:1000F0003E9A2C9881E040E050E66AE676E40E9461
:100100001D0281E061E041E00E94940583E040E04F
:1001100050E66AE676E40E941D0283E061E041E079
:100120000E94940584E040E050E66AE676E40E948E
:100130001D0284E062E041E00E94940560E070E00E
:1001400086EC92E420910E0130910F014091100154
:10015000509111010E94050C0E94430D70933802CA
:100160006093370280E090E00895EF92FF920F9342
:100170001F93809120029091210201969093210279
:100180008093200220913702309138028217930722
:10019000CCF5E0900E01F0900F010091100110914C
:1001A000110160910A0170910B0180910C019091F5
:1001B0000D01A80197010E94DA0A60930A01709369
:1001C0000B0180930C0190930D01609106017091D9
:1001D00007018091080190910901A80197010E94EF
:1001E000AD0A609306017093070180930801909314
:1001F0000901E0920201F0920301009304011093BF
:1002000005017BC0A901440F551F841795078CF584
:10021000E0900E01F0900F0100911001109111017A
:10022000E0920A01F0920B0100930C0110930D0172
:100230006091060170910701809108019091090178
:10024000A80197010E94DA0A6093060170930701E2
:10025000809308019093090160910201709103015C
:100260008091040190910501A80197010E94AD0AB7
:1002700035C0240F351F82179307CCF5E0900E018F
:10028000F0900F01009110011091110160910A018D
:1002900070910B0180910C0190910D01A8019701C3
:1002A0000E94AD0A60930A0170930B0180930C01C8
:1002B00090930D01E0920601F0920701009308016E
:1002C0001093090160910201709103018091040172
:1002D00090910501A80197010E94DA0A609302013A
:1002E00070930301809304019093050106C081E09F
:1002F00090E09093210280932002809120029091BF
:10030000210260910001709101010E94F70F81307C
:10031000910571F582E00E940D0281EA62E272E0CD
:1003200043E00E94F7076091020170910301809100
:100330000401909105010E94430D60932202609197
:1003400006017091070180910801909109010E94B6
:10035000430D6093230260910A0170910B0180911B
:100360000C0190910D010E94430D6093240204C082
:1003700010921F0210921E02209106013091070177
:10038000409108015091090181E061E00E9432062C
:1003900020910A0130910B0140910C0150910D0107
:1003A00083E061E00E943206209102013091030156
:1003B000409104015091050184E062E00E94320600
:1003C00080E090E01F910F91FF90EF9008956E9A5A
:1003D0008EB11EB880E880936100109261000E9487
:1003E00075000E94960882E062EA43E00E94460897
:1003F0008823C9F30E94B500FDCF6A9A813031F09D
:10040000823031F0882341F4729A089572980895E9
:100410008EB194E089278EB908956E9A813031F0BB
:10042000823031F0882341F4769A089576980895C1
:100430008EB190E489278EB90895EF92FF920F93C1
:100440001F937A018B01813009F4A7C082301CF41C
:10045000882341F063C3833009F467C1843009F015
:100460005DC32CC284B5816084BD84B5826084BDC7
:1004700085B5886085BD16BC40932702509328023D
:100480006093290270932A02CB01BA0120E038E17F
:1004900046E757E40E94B30C18168CF460E074E24F
:1004A00084E79BE4A80197010E94050C0E9437098C
:1004B00067BD85B5816085BD85B58D7F32C0C801BA
:1004C000B70120E030E545EF55E40E94E30C8823B6
:1004D00074F060E074E284EF99E4A80197010E944F
:1004E000050C0E94370967BD85B58E7F17C0C8010E
:1004F000B70120E030E045E754E40E94E30C882394
:10050000A4F060E074E284E798E4A80197010E94F7
:10051000050C0E94370967BD85B5816085BD85B52D
:10052000826085BD85B58B7F36C0C801B70120E0EC
:1005300030E045E753E40E94E30C882374F060E068
:1005400074E284E797E4A80197010E94050C0E94D9
:10055000370967BD85B58E7F18C0C801B70123E391
:1005600033E345E752E40E94E30C88230CF4D6C23F
:1005700060E074E284E796E4A80197010E94050C0C
:100580000E94370967BD85B5816085BD85B58D7FC2
:1005900085BD85B5846085BD0FC180918100806176
:1005A0008093810080918100886080938100809198
:1005B00080008260809380008091800081608093C1
:1005C0008000109285001092840040932B0250937B
:1005D0002C0260932D0270932E02CB01BA0120E011
:1005E00030E04AE753E40E94B30C1816BCF460E014
:1005F00074E284E79BE4A80197010E94050C0E9425
:100600003709709389006093880080918100816030
:1006100080938100809181008D7F3CC0C801B7012B
:1006200020E030E048EF51E40E94E30C882394F08E
:1006300060E074E284EF99E4A80197010E94050C40
:100640000E9437097093890060938800809181002F
:100650008E7F1BC0C801B70120E030E040E850E4C5
:100660000E94E30C8823E4F060E074E284E798E4FD
:10067000A80197010E94050C0E9437097093890018
:1006800060938800809181008160809381008091D7
:100690008100826080938100809181008B7F42C0C5
:1006A000C801B70120E030E040E85FE30E94E30CBE
:1006B000882394F060E074E284E797E4A80197014E
:1006C0000E94050C0E94370970938900609388008E
:1006D000809181008E7F1CC0C801B7012FE832ECE9
:1006E00045E75EE30E94B30C18160CF017C260E0F9
:1006F00074E284E796E4A80197010E94050C0E9429
:10070000370970938900609388008091810081602F
:1007100080938100809181008D7F80938100809102
:10072000810084608093810047C080919100806146
:1007300080939100809191008860809391008091D6
:100740009000826080939000809190008E7F8093D3
:100750009000109295001092940040932F025093B5
:1007600030026093310270933202CB01BA0120E073
:1007700030E04AE753E40E94B30C1816FCF460E042
:1007800074E284E79BE4A80197010E94050C0E9493
:100790003709709397006093960080919100816073
:1007A00080939100809191008D7F80939100809142
:1007B00091008B7F8093910081E0B1C1C801B701A6
:1007C00020E030E048EF51E40E94E30C882394F0ED
:1007D00060E074E284EF99E4A80197010E94050C9F
:1007E0000E94370970939700609396008091910062
:1007F0008E7F1BC0C801B70120E030E040E850E424
:100800000E94E30C8823BCF060E074E284E798E483
:10081000A80197010E94050C0E9437097093970068
:100820006093960080919100816080939100809107
:1008300091008260BACFC801B70120E030E040E803
:100840005FE30E94E30C882394F060E074E284E7A5
:1008500097E4A80197010E94050C0E943709709344
:10086000970060939600809191008E7F1CC0C80114
:10087000B7012FE832EC45E75EE30E94B30C18168F
:100880000CF04CC160E074E284E796E4A8019701A3
:100890000E94050C0E9437097093970060939600A0
:1008A00080919100816080939100809191008D7F73
:1008B000809391008091910084607CCF8091C300EF
:1008C0008D7F8093C3008091C3008E7F8093C3008F
:1008D0001092BF001092BE00409333025093340236
:1008E0006093350270933602CB01BA0120E030E606
:1008F00044E756E40E94B30C1816E4F460E074E296
:1009000084E79BE4A80197010E94050C0E94370927
:100910007093BF006093D1008091C100816080938B
:10092000C1008091C1008D7F8093C1008091C10082
:100930008B7F29C0C801B70120E030E04AEF54E4C2
:100940000E94B30C18162CF560E074E284EF99E471
:10095000A80197010E94050C0E9437097093250297
:10096000109226027093BF006093D1008091C10065
:100970008E7F8093C1008091C1008D7F8093C100E4
:100980008091C10084608093C1008091C100877F05
:10099000C2C0C801B70120E030E844EF53E40E9430
:1009A000B30C1816B4F460E074E284EF98E4A80184
:1009B00097010E94050C0E9437097093250210923E
:1009C00026027093BF006093D1008091C1008E7F9A
:1009D0001FC0C801B70120E030E045E753E40E94A2
:1009E000B30C1816DCF460E074E284E798E4A80124
:1009F00097010E94050C0E943709709325021092FE
:100A000026027093BF006093D1008091C100816085
:100A10008093C1008091C1008260B0CFC801B7014E
:100A200020E030E048EF51E40E94B30C181604F5C2
:100A300060E074E284EF96E4A80197010E94050C3F
:100A40000E94370970932502109226027093BF000E
:100A50006093D1008091C1008E7F8093C10080910E
:100A6000C10082608093C1008091C1008B7F4EC025
:100A7000C801B70120E030E040E051E40E94B30C2F
:100A80001816DCF460E074E284EF95E4A8019701A5
:100A90000E94050C0E9437097093250210922602CD
:100AA0007093BF006093D1008091C1008E7F8093CE
:100AB000C1008091C1008D7F24C0C801B70120E032
:100AC00030E040E85FE30E94B30C18163CF560E0AC
:100AD00074E284E794E4A80197010E94050C0E9447
:100AE000370970932502109226027093BF0060931D
:100AF000D1008091C10081608093C1008091C100CC
:100B000082608093C1008091C10084608093C100A5
:100B10008091C10088608093C1004ECE80E01F911B
:100B20000F91FF90EF9008958130C9F082301CF44E
:100B3000882339F095C0833091F1843009F090C05A
:100B400041C0613009F08CC0442321F0509A84B533
:100B5000806203C0509884B58F7D84BD7FC06130B2
:100B600021F0623009F07CC00CC0442329F0269AA1
:100B700080918000806210C02698809180008F7DD7
:100B80000BC0442329F0279A80918000886004C01C
:100B9000279880918000877F809380005FC06130BC
:100BA00009F05EC0442339F03E9A8091900080683D
:100BB0008093900010C03E98809190008F77809332
:100BC000900013C06230D9F0633089F1613009F0D0
:100BD00047C0442351F03F9A8091C00080688093C1
:100BE000C0008091C00082601FC03F988091C0000B
:100BF0008F778093C0008091C0008D7F15C0442303
:100C000051F0259A8091C00080618093C00080914E
:100C1000C000816009C025988091C0008F7E8093BC
:100C2000C0008091C0008E7F8093C00017C0442315
:100C300051F0579A8091C20088608093C2008091E1
:100C4000C200816009C057988091C200877F80935D
:100C5000C2008091C2008E7F8093C20081E008951F
:100C600080E00895AF92BF92CF92DF92EF92FF9211
:100C70000F931F93082F162F59016A01CA01B9015A
:100C800020E030E040E050E00E94130D87FD54C1A9
:100C9000C601B50120E030E048EC52E40E94B30CFC
:100CA00018160CF449C1013049F102301CF400233C
:100CB00041F042C1033009F465C0043009F03CC181
:100CC000C6C0113009F038C167B570E080E090E02F
:100CD0000E94950D7B018C01C601B50120E030E03A
:100CE00048EC52E40E94050C9B01AC01C801B7011D
:100CF0000E940B0B0E94370968BDFAC0113021F029
:100D0000123009F019C11FC06091880070918900EC
:100D100080E090E00E94950D7B018C01C601B50139
:100D200020E030E048EC52E40E94050C9B01AC014D
:100D3000C801B7010E940B0B0E94370970938B000A
:100D400060938A0027C0609188007091890080E0DC
:100D500090E00E94950D7B018C01C601B50120E059
:100D600030E048EC52E40E94050C9B01AC01C80144
:100D7000B7010E940B0B0E94370970938D0060939E
:100D80008C0027C0123029F1133009F441C0113012
:100D900009F0D2C0609196007091970080E090E0D9
:100DA0000E94950D7B018C01C601B50120E030E069
:100DB00048EC52E40E94050C9B01AC01C801B7014C
:100DC0000E940B0B0E943709709399006093980062
:100DD00046C0609196007091970080E090E00E947C
:100DE000950D7B018C01C601B50120E030E048EC97
:100DF00052E40E94050C9B01AC01C801B7010E949E
:100E00000B0B0E94370970939B0060939A0049C0B6
:100E1000609196007091970080E090E00E94950D9F
:100E20007B018C01C601B50120E030E048EC52E4C2
:100E30000E94050C9B01AC01C801B7010E940B0B7D
:100E40000E94370970939D0060939C0053C012303C
:100E500041F1133009F44EC0113009F06DC02091FA
:100E6000D1007091250260E0620F711D80E090E07A
:100E70000E94950D7B018C01C601B50120E030E098
:100E800048EC52E40E94050C9B01AC01C801B7017B
:100E90000E940B0B0E9437097093BF006093CF0034
:100EA00027C02091D1007091250260E0620F711D72
:100EB00080E090E00E94950D7B018C0160E070E085
:100EC00088EC92E4A60195010E94DA0A20E030E065
:100ED00048EC52E40E94050C9B01AC01C801B7012B
:100EE0000E940B0B0E9437097093BF006093D000E3
:100EF00081E023C02091D1007091250260E0620F53
:100F0000711D80E090E00E94950D7B018C01C6016F
:100F1000B50120E030E048EC52E40E94050C9B0152
:100F2000AC01C801B7010E940B0B0E9437097093F6
:100F3000BF006093D200DCCF80E01F910F91FF9043
:100F4000EF90DF90CF90BF90AF9008959C0184EA1E
:100F50008093BC008091BC0087FFFCCF81E580932B
:100F6000BB0084E88093BC008091BC0087FFFCCF6D
:100F70008091B900887F8834A1F084EC8093BC0014
:100F80008091BC0087FFFCCF8091BB00861749F49D
:100F9000A0E0B0E0772767FD70956150704094EC59
:100FA00012C084E98093BC0080E008959093BC0057
:100FB0008091BC0087FFFCCF8091BB00F901EA0F54
:100FC000FB1F80831196A617B70784F384E88093EC
:100FD000BC008091BC0087FFFCCF8091BB00A20FBA
:100FE000B31F8C9384E98093BC0081E00895982F0F
:100FF000F89484EA8093BC008091BC0087FFFCCF0A
:1010000080E58093BB0084E88093BC008091BC00A5
:1010100087FFFCCF8091B900887F803231F484E96A
:101020008093BC00789480E0089583E08093BB00B7
:1010300084E88093BC008091BC0087FFFCCF909334
:10104000BB0084E88093BC008091BC0087FFFCCF8C
:1010500020E030E0552747FD509594E80EC0FB0195
:10106000E20FF31F80818093BB009093BC008091BE
:10107000BC0087FFFCCF2F5F3F4F241735077CF361
:1010800084E98093BC00789481E00895FF920F93E7
:101090001F93182F062FF42E0E94960884EA80933F
:1010A000BC008091BC0087FFFCCF80E58093BB0033
:1010B00084E88093BC008091BC0087FFFCCF8091C6
:1010C000B900887F803229F484E98093BC0080E0F5
:1010D00029C081E08093BB0084E88093BC008091AC
:1010E000BC0087FFFCCF1093BB0084E88093BC005A
:1010F0008091BC0087FFFCCF0093BB0084E8809305
:10110000BC008091BC0087FFFCCFF092BB0084E85C
:101110008093BC008091BC0087FFFCCF84E9809362
:10112000BC0081E01F910F91FF900895589A599A41
:101130005A9A8CE08093B800E9E6F0E08081806202
:10114000808380818F7E8083EA9A7894089584E8F2
:101150008093BC008091BC0087FFFCCF8091BB00D6
:10116000089584E98093BC00089520E030E08091E8
:10117000BC0087FD06C02F5F3F4F83E0293E380744
:10118000B1F780E0285E334009F081E00895809354
:10119000BB0084E88093BC000E94B508882319F046
:1011A0008091B900887F08950F931F93182F062F01
:1011B00084EA8093BC000E94B508882371F0812FD7
:1011C000880F002331F08F5F0E94C708883451F4E4
:1011D00004C00E94C708803229F484E98093BC00CF
:1011E00080E001C081E01F910F9108950F931F933C
:1011F000162F042F60E00E94D408882379F0812FF5
:101200000E94C708882351F0802F0E94C7088823B6
:1012100029F084E98093BC0081E001C080E01F9147
:101220000F9108950F931F93082F162F60E00E94CF
:10123000D4088823C1F0812F0E94C708882399F021
:1012400084E98093BC00802F61E00E94D408882349
:1012500051F084E88093BC008091BC0087FFFCCFF4
:101260008091BB0001C080E01F910F910895EF9223
:10127000FF920F931F937B018C0120E030E040E050
:101280005FE40E94E30C87FD11C0C801B70120E0B4
:1012900030E040E05FE40E94DA0A0E94430D9B01C7
:1012A000AC01205030404040504806C0C801B70152
:1012B0000E94430D9B01AC01B901CA011F910F911E
:1012C000FF90EF900895A0E0B0E0E9E6F9E00C941B
:1012D0002210FC01EA018081823008F438C1DB0170
:1012E0009C91923008F430C1843059F4943009F064
:1012F0002EC1918111968C911197981709F021C1F7
:1013000026C1943009F420C19230B1F4823009F042
:101310001EC1CA01AF0128E0DA010D90AD01DC0168
:101320000D92CD012150C1F7DB0111968C911197DF
:101330009181892389830AC1823009F405C1C28061
:10134000D380DB0112966D907C90139724813581B8
:10135000468157811496ED90FD900D911C91179741
:10136000C601861997095C0197FF04C0AA24BB2413
:10137000A81AB90AB0E2AB16B1040CF061C0181695
:1013800019066CF5370148010A2C04C0969487941D
:10139000779467940A94D2F781E090E0A0E0B0E0FF
:1013A0000A2C04C0880F991FAA1FBB1F0A94D2F7EA
:1013B0000197A109B1098E219F21A023B123EE2419
:1013C000FF248701E3940097A105B10519F4EE24E9
:1013D000FF248701E628F728082919293CC000972F
:1013E000D1F1CA0CDB1C39014A010A2C04C09694C5
:1013F0008794779467940A94D2F781E090E0A0E014
:10140000B0E00A2C04C0880F991FAA1FBB1F0A94C2
:10141000D2F70197A109B10982239323A423B5230D
:1014200021E030E040E050E00097A105B10519F45B
:1014300020E030E0A90126293729482959290BC085
:101440006C147D0424F4EE24FF24870104C063019E
:1014500020E030E0A9018181FB019181891709F425
:1014600045C0882349F0D801C701821B930BA40B08
:10147000B50B9C01AD0104C02E193F09400B510B67
:1014800057FD04C01982DB82CA820BC081E08983C8
:10149000DB82CA8250954095309521953F4F4F4F42
:1014A0005F4F2C833D834E835F830DC0880F991F50
:1014B000AA1FBB1F8C839D83AE83BF838A819B81C0
:1014C00001979B838A838C819D81AE81BF819C0122
:1014D000AD0121503040404050402F3FEFEF3E07DC
:1014E000EFEF4E07EFE35E0708F30BC08983DB8263
:1014F000CA822E0D3F1D401F511F2C833D834E83FA
:101500005F8383E088832C813D814E815F8157FF1B
:101510001DC0DA01C90181709070A070B07056953D
:10152000479537952795822B932BA42BB52B8C832E
:101530009D83AE83BF838A819B8101969B838A832F
:1015400005C0E6E1F1E003C0FB0101C0FE01CF01EF
:10155000CDB7DEB7EEE00C943E10A0E2B0E0E3EBD6
:10156000FAE00C942A1069837A838B839C832D8301
:101570003E834F83588789E0E82EF12CEC0EFD1E48
:10158000CE010196B7010E94350F8E010F5E1F4FED
:10159000CE010596B8010E94350FC701B801AE0112
:1015A000475E5F4F0E9463090E94670EA096E6E0C7
:1015B0000C944610A0E2B0E0E0EEFAE00C942A10A1
:1015C00069837A838B839C832D833E834F835887E3
:1015D0008E01075F1F4FCE010196B8010E94350FA3
:1015E00091E1E92EF12CEC0EFD1ECE010596B7011E
:1015F0000E94350F8A8991E089278A8BC801B7013B
:10160000AE01475E5F4F0E9463090E94670EA0967D
:10161000E6E00C944610A0E2B0E0E1E1FBE00C94BF
:101620001E1069837A838B839C832D833E834F8333
:101630005887CE010196BE01675F7F4F0E94350F2C
:10164000CE010596BE016F5E7F4F0E94350F9985D2
:10165000923078F089898230C0F0943019F4823069
:1016600041F4CBC0843019F4923079F4C6C0923082
:1016700051F481E02A859A89291709F480E08A8744
:10168000CE010996BCC0823051F481E02A859A8946
:10169000291709F480E08A8BCE014196B0C06D8491
:1016A0007E848F849888ED88FE880F89188DE0E20B
:1016B000F0E080E090E0DC01AA24BB24650120E09A
:1016C00030E0A901B3016170707061157105D1F04E
:1016D0002E0D3F1D401F511F15012601280E391EDA
:1016E0004A1E5B1E81E090E0A0E0B0E02E153F05B1
:1016F0004007510718F080E090E0DC01820D931D57
:10170000A41DB51DAA0CBB1CCC1CDD1C17FF09C0F9
:1017100061E0262E312C412C512CA228B328C4285C
:10172000D528319749F0EE0CFF1C001F111F96942D
:10173000879477946794C6CF6B897C89EB85FC8509
:101740006E0F7F1F6E5F7F4F7C8F6B8F61E0EA852E
:101750007A89E71709F460E06A8F6B8D7C8D10C081
:10176000FC01E170F070309729F056954795379558
:1017700027955068B695A795979587956F5F7F4F8A
:10178000B7FDEECF0CC0880F991FAA1FBB1F57FDD6
:101790008160220F331F441F551F615070408030FD
:1017A000E0E09E07E0E0AE07E0E4BE0760F36B8F89
:1017B0007C8F6FE7E62EF12C012D112DE822F92206
:1017C0000A231B2360E4E616F1040105110561F408
:1017D00087FD0AC0211531054105510529F0805CBE
:1017E0009F4FAF4FBF4F80788D8F9E8FAF8FB8A325
:1017F00083E0898FCE01499602C086E191E00E9484
:10180000670EA096E2E10C943A10A8E1B0E0EBE09C
:10181000FCE00C94261069837A838B839C832D8350
:101820003E834F8358878E01075F1F4FCE0101967D
:10183000B8010E94350F81E1E82EF12CEC0EFD1E5F
:10184000CE010596B7010E94350F9985923008F4B4
:1018500083C08989823008F47BC02A853A8923278E
:101860002A87943011F0923021F4981709F06CC057
:1018700071C0843039F41D861E861F86188A1C8626
:101880001B866AC0823019F484E0898765C08B8525
:101890009C852B893C89821B930B9C878B872D858C
:1018A0003E854F855889ED88FE880F89188D2E1545
:1018B0003F054007510738F4220F331F441F551FBF
:1018C00001979C878B876FE170E0A12CB12CC12C14
:1018D000A0E4DA2E80E090E0DC012E153F05400701
:1018E000510740F08A299B29AC29BD292E193F09AF
:1018F000400B510BD694C794B794A794220F331F73
:10190000441F551F6150704041F76FE7E62EF12CE0
:10191000012D112DE822F9220A231B2360E4E6168B
:10192000F1040105110561F487FD0AC02115310597
:101930004105510529F0805C9F4FAF4FBF4F807824
:101940008D879E87AF87B88B8E01075F1F4F04C0BE
:10195000870102C006E111E0C8010E94670E689687
:10196000EAE00C944210A8E1B0E0E9EBFCE00C9452
:101970002A1069837A838B839C832D833E834F83D4
:1019800058878E01075F1F4FCE010196B8010E9454
:10199000350F81E1E82EF12CEC0EFD1ECE010596EF
:1019A000B7010E94350F8985823040F089898230E5
:1019B00028F0C801B7010E949E0F01C08FEF689602
:1019C000E6E00C944610A8E1B0E0E9EEFCE00C94EF
:1019D0002A1069837A838B839C832D833E834F8374
:1019E00058878E01075F1F4FCE010196B8010E94F4
:1019F000350F81E1E82EF12CEC0EFD1ECE0105968F
:101A0000B7010E94350F8985823040F08989823084
:101A100028F0C801B7010E949E0F01C08FEF6896A1
:101A2000E6E00C944610A8E1B0E0E9E1FDE00C949A
:101A30002A1069837A838B839C832D833E834F8313
:101A400058878E01075F1F4FCE010196B8010E9493
:101A5000350F81E1E82EF12CEC0EFD1ECE0105962E
:101A6000B7010E94350F8985823040F08989823024
:101A700028F0C801B7010E949E0F01C081E068965E
:101A8000E6E00C944610ACE0B0E0E9E4FDE00C9434
:101A90002E1069837A838B839C83CE010196BE01CD
:101AA0006B5F7F4F0E94350F8D81823081F18230D4
:101AB00070F1843021F48E81882369F10AC02F816E
:101AC000388537FD24C06E812F3131053CF0662307
:101AD00011F120E030E040E050E821C08EE190E0DC
:101AE000821B930B29853A854B855C8504C05695EE
:101AF0004795379527958A95D2F7662381F05095BB
:101B00004095309521953F4F4F4F5F4F08C020E0E3
:101B100030E0A90104C02FEF3FEF4FEF5FE7B901BD
:101B2000CA012C96E2E00C944A10A8E0B0E0EBE980
:101B3000FDE00C9428107B018C011A82611571055F
:101B40008105910519F482E089835FC083E0898370
:101B50008EE1C82ED12CDC82CB82ED82FE820F83F7
:101B60001887C801B7010E940D0EFC013197F7FFDD
:101B70003AC0AA27BB27AE1BBF0B21E030E040E0F4
:101B800050E00A2E04C0220F331F441F551F0A9431
:101B9000D2F721503040404050402E213F21402379
:101BA000512361E070E080E090E0211531054105AE
:101BB000510519F460E070E0CB0104C0169507955B
:101BC000F794E794AA95D2F7E62AF72A082B192B5F
:101BD000ED82FE820F8318878EE190E08E1B9F0BB3
:101BE0009C838B8312C0309781F00E2E04C0EE0CC4
:101BF000FF1C001F111F0A94D2F7ED82FE820F8393
:101C00001887CE1ADF0ADC82CB82CE0101960E94B1
:101C1000670E2896E8E00C944410AF92BF92CF92E2
:101C2000DF92EF92FF920F931F937B018C0180E074
:101C3000E81680E0F80681E0080780E0180758F40D
:101C4000EFEFEE16F1040105110509F090F480E0C4
:101C500090E0DC0117C0F0E0EF16F0E0FF06F0E0E6
:101C60000F07F1E01F0750F480E190E0A0E0B0E042
:101C700009C088E090E0A0E0B0E004C088E190E016
:101C8000A0E0B0E020E230E040E050E0281B390B5B
:101C90004A0B5B0B5701680104C0D694C794B794F4
:101CA000A7948A95D2F7D601C501825E9E4FFC01AA
:101CB0008081281B310941095109C9011F910F91E8
:101CC000FF90EF90DF90CF90BF90AF900895EF928C
:101CD000FF920F931F93CF93DF93FC0124813581F3
:101CE0004681578161818081823020F44061EFEF2D
:101CF000F0E0A3C0843009F49BC0823009F492C0A4
:101D0000211531054105510509F48FC00280F38189
:101D1000E02D8FEFE238F8070CF05AC0C2E8DFEF91
:101D2000CE1BDF0BCA31D1056CF579018A010C2E6F
:101D300004C016950795F794E7940A94D2F781E0CA
:101D400090E0A0E0B0E00C2E04C0880F991FAA1FFD
:101D5000BB1F0A94D2F70197A109B10982239323EB
:101D6000A423B52321E030E040E050E00097A10536
:101D7000B10519F420E030E0A9012E293F29402BBC
:101D8000512B03C020E030E0A901DA01C9018F77AF
:101D90009070A070B07080349105A105B10539F440
:101DA00027FF09C0205C3F4F4F4F5F4F04C0215CAD
:101DB0003F4F4F4F5F4FE1E0F0E0203080E03807C9
:101DC00080E0480780E4580728F5E0E0F0E022C012
:101DD000E038F1056CF5E158FF4FDA01C9018F7762
:101DE0009070A070B07080349105A105B10539F4F0
:101DF00027FF09C0205C3F4F4F4F5F4F04C0215C5D
:101E00003F4F4F4F5F4F57FF05C05695479537954A
:101E10002795319687E056954795379527958A956A
:101E2000D1F70BC0E0E0F0E005C0E0E0F0E005C075
:101E3000EFEFF0E020E030E0A9018E2F87958827B2
:101E40008795942F9F77679566276795E695E22E8D
:101E5000A92FA82BFE2FF62B622F732F8A2F9F2FCF
:101E6000CDB7DEB7E6E00C944610DC01FB012C9107
:101E700011963C91119712968C911297482F4F779B
:101E800050E0982F991F9927991F13966C911397DB
:101E9000862F880F892B90E0661F6627661F618357
:101EA000009739F5211531054105510511F482E0FE
:101EB00029C082E89FEF9383828367E0220F331F5C
:101EC000441F551F6A95D1F783E0808309C0220F14
:101ED000331F441F551F828193810197938382830F
:101EE000203080E0380780E0480780E4580778F326
:101EF00020C08F3F910579F4211531054105510529
:101F000019F484E08083089544FF03C081E0808356
:101F100010C010820EC08F5790409383828383E05D
:101F2000808387E0220F331F441F551F8A95D1F706
:101F3000506424833583468357830895FC01DB0175
:101F40009081923008F449C08C91823008F445C0E9
:101F5000943051F461818430B1F511962C91119730
:101F600030E0261B310941C0843021F0923041F429
:101F70008230B1F111968C9111978823A1F12DC077
:101F80006181823001F111968C9111976817D9F413
:101F90002281338112968D919C911397821793071A
:101FA00094F028173907BCF0248135814681578188
:101FB00014968D919D910D90BC91A02D8217930741
:101FC000A407B50718F4662341F00DC02817390798
:101FD0004A075B0728F4662331F021E030E005C0B2
:101FE00020E030E002C02FEF3FEFC901089597FBDA
:101FF000092E07260AD077FD04D00CD006D0002089
:102000001AF4709561957F4F0895F6F79095819534
:102010009F4F0895AA1BBB1B51E107C0AA1FBB1FFE
:10202000A617B70710F0A61BB70B881F991F5A9564
:10203000A9F780959095BC01CD0108952F923F920C
:102040004F925F926F927F928F929F92AF92BF92C8
:10205000CF92DF92EF92FF920F931F93CF93DF9374
:10206000CDB7DEB7CA1BDB0B0FB6F894DEBF0FBED1
:10207000CDBF09942A88398848885F846E847D841E
:102080008C849B84AA84B984C884DF80EE80FD8020
:102090000C811B81AA81B981CE0FD11D0FB6F89496
:0E20A000DEBF0FBECDBFED010895F894FFCF57
:1020AE000A000000803F0000803F0000C642CDCCF9
:1020BE00CC3D0000004000000000000000000001C8
:1020CE0002020303030304040404040404040505C8
:1020DE0005050505050505050505050505050606A0
:1020EE000606060606060606060606060606060682
:1020FE000606060606060606060606060606070770
:10210E000707070707070707070707070707070751
:10211E000707070707070707070707070707070741
:10212E000707070707070707070707070707070731
:10213E00070707070707070707070707070708081F
:10214E000808080808080808080808080808080801
:10215E0008080808080808080808080808080808F1
:10216E0008080808080808080808080808080808E1
:10217E0008080808080808080808080808080808D1
:10218E0008080808080808080808080808080808C1
:10219E0008080808080808080808080808080808B1
:1021AE0008080808080808080808080808080808A1
:0E21BE000808080808080808080808080808A3
:00000001FF
