:100000000C9456000C9473000C9473000C947500BF
:100010000C9473000C9473000C9473000C94730094
:100020000C9473000C9473000C9473000C94730084
:100030000C9473000C9473000C9473000C94730074
:100040000C9473000C9473000C9473000C94730064
:100050000C9473000C9473000C9473000C94730054
:100060000C9473000C9473000C9473000C94730044
:100070000C9473000C9473000C9473000C94730034
:100080000C9473000C9473000C9473000C94730024
:100090000C9473000C9473000C9473000C94730014
:1000A0000C9473000C9473000C94730011241FBE05
:1000B000CFEFDAE0DEBFCDBF12E0A0E0B1E0ECE6CA
:1000C000F0E202C005900D92AA31B107D9F712E013
:1000D000AAE1B2E001C01D92AB33B107E1F70E9483
:1000E00008010C9434100C9400001F920F920FB66C
:1000F0000F9211242F933F934F935F936F937F93AE
:100100008F939F93AF93BF93EF93FF9382E00E94EF
:10011000A30181E090E090931D0280931C02A895BA
:10012000FF91EF91BF91AF919F918F917F916F91CF
:100130005F914F913F912F910F900FBE0F901F90A5
:100140001895249A259A269A3E9A2C9A81E040E0A6
:1001500050E66AE676E40E94C30181E061E041E096
:100160000E943A0583E040E050E66AE676E40E94A9
:10017000C30183E061E041E00E943A0584E040E091
:1001800050E66AE676E40E94C30184E062E041E062
:100190000E943A0560E070E086EC92E420910E0146
:1001A00030910F0140911001509111010E94AB0B51
:1001B0000E94490D70933A026093390280E090E00A
:1001C0000895209106013091070140910801509156
:1001D000090181E061E00E94D80520910A01309177
:1001E0000B0140910C0150910D0183E061E00E94F0
:1001F000D8052091020130910301409104015091F2
:10020000050184E062E00E94D80580E090E0089556
:100210000F931F93CF93DF936E9A8EB11EB878948D
:1002200080E880936100109261000E94A1000E940A
:100230003C08A89529E088E190E00FB6F894A895CD
:10024000809360000FBE2093600082E061EA43E08B
:100250000E94EC078823C9F3C1E0D0E004E110E07C
:100260008091000190910101009761F42C9A109205
:100270001D0210921C0210921B0210921A0282E0C0
:100280000E94B30180910001909101010197909328
:1002900001018093000197FF04C0109201011092A8
:1002A000000180911C0290911D02009709F441C049
:1002B00084E292E063E00E944C0760912402772779
:1002C00067FD7095872F972F0E94E90C60930201BC
:1002D00070930301809304019093050160912502BE
:1002E000772767FD7095872F972F0E94E90C609301
:1002F00006017093070180930801909309016091B2
:100300002602772767FD7095872F972F0E94E90CAB
:1003100060930A0170930B0180930C0190930D017F
:10032000D0931B02C0931A021093010100930001A5
:100330002C9880911A0290911B02009709F490CF9B
:100340000E94E1008DCF6A9A813031F0823031F025
:10035000882341F4729A0895729808958EB194E0BA
:1003600089278EB908956E9A813031F0823031F04C
:10037000882341F4769A0895769808958EB190E492
:1003800089278EB90895EF92FF920F931F937A01F8
:100390008B01813009F4A7C082301CF4882341F01E
:1003A00063C3833009F467C1843009F05DC32CC294
:1003B00084B5816084BD84B5826084BD85B5886064
:1003C00085BD16BC4093290250932A0260932B02EC
:1003D00070932C02CB01BA0120E038E146E757E4E4
:1003E0000E94590C18168CF460E074E284E79BE4D8
:1003F000A80197010E94AB0B0E94DD0867BD85B57F
:10040000816085BD85B58D7F32C0C801B70120E010
:1004100030E545EF55E40E94890C882374F060E0D4
:1004200074E284EF99E4A80197010E94AB0B0E944B
:10043000DD0867BD85B58E7F17C0C801B70120E014
:1004400030E045E754E40E94890C8823A4F060E082
:1004500074E284E798E4A80197010E94AB0B0E9424
:10046000DD0867BD85B5816085BD85B5826085BDC8
:1004700085B58B7F36C0C801B70120E030E045E785
:1004800053E40E94890C882374F060E074E284E7EE
:1004900097E4A80197010E94AB0B0E94DD0867BD9D
:1004A00085B58E7F18C0C801B70123E333E345E764
:1004B00052E40E94890C88230CF4D6C260E074E2F6
:1004C00084E796E4A80197010E94AB0B0E94DD0827
:1004D00067BD85B5816085BD85B58D7F85BD85B5D9
:1004E000846085BD0FC1809181008061809381000F
:1004F000809181008860809381008091800082607B
:1005000080938000809180008160809380001092B1
:1005100085001092840040932D0250932E02609328
:100520002F0270933002CB01BA0120E030E04AE79D
:1005300053E40E94590C1816BCF460E074E284E79E
:100540009BE4A80197010E94AB0B0E94DD08709309
:100550008900609388008091810081608093810090
:10056000809181008D7F3CC0C801B70120E030E060
:1005700048EF51E40E94890C882394F060E074E213
:1005800084EF99E4A80197010E94AB0B0E94DD085B
:100590007093890060938800809181008E7F1BC0DA
:1005A000C801B70120E030E040E850E40E94890C27
:1005B0008823E4F060E074E284E798E4A8019701FE
:1005C0000E94AB0B0E94DD08709389006093880045
:1005D00080918100816080938100809181008260A0
:1005E00080938100809181008B7F42C0C801B70158
:1005F00020E030E040E85FE30E94890C882394F01B
:1006000060E074E284E797E4A80197010E94AB0BD5
:100610000E94DD08709389006093880080918100BA
:100620008E7F1CC0C801B7012FE832EC45E75EE3BE
:100630000E94590C18160CF017C260E074E284E7AF
:1006400096E4A80197010E94AB0B0E94DD0870930D
:10065000890060938800809181008160809381008F
:10066000809181008D7F80938100809181008460E2
:100670008093810047C080919100806180939100B8
:1006800080919100886080939100809190008260B9
:1006900080939000809190008E7F809390001092C4
:1006A000950010929400409331025093320260936F
:1006B000330270933402CB01BA0120E030E04AE704
:1006C00053E40E94590C1816FCF460E074E284E7CD
:1006D0009BE4A80197010E94AB0B0E94DD08709378
:1006E00097006093960080919100816080939100C3
:1006F000809191008D7F80939100809191008B7FFC
:100700008093910081E0B1C1C801B70120E030E0E1
:1007100048EF51E40E94890C882394F060E074E271
:1007200084EF99E4A80197010E94AB0B0E94DD08B9
:100730007093970060939600809191008E7F1BC00C
:10074000C801B70120E030E040E850E40E94890C85
:100750008823BCF060E074E284E798E4A801970184
:100760000E94AB0B0E94DD08709397006093960087
:1007700080919100816080939100809191008260CE
:10078000BACFC801B70120E030E040E85FE30E9443
:10079000890C882394F060E074E284E797E4A80170
:1007A00097010E94AB0B0E94DD0870939700609345
:1007B0009600809191008E7F1CC0C801B7012FE880
:1007C00032EC45E75EE30E94590C18160CF04CC160
:1007D00060E074E284E796E4A80197010E94AB0B05
:1007E0000E94DD08709397006093960080919100BD
:1007F000816080939100809191008D7F8093910022
:100800008091910084607CCF8091C3008D7F809324
:10081000C3008091C3008E7F8093C3001092BF00FD
:100820001092BE0040933502509336026093370217
:1008300070933802CB01BA0120E030E644E756E479
:100840000E94590C1816E4F460E074E284E79BE41B
:10085000A80197010E94AB0B0E94DD087093BF00B6
:100860006093D1008091C10081608093C10080912C
:10087000C1008D7F8093C1008091C1008B7F29C012
:10088000C801B70120E030E04AEF54E40E94590C5F
:1008900018162CF560E074E284EF99E4A801970142
:1008A0000E94AB0B0E94DD08709327021092280271
:1008B0007093BF006093D1008091C1008E7F8093C0
:1008C000C1008091C1008D7F8093C1008091C100E3
:1008D00084608093C1008091C100877FC2C0C8013D
:1008E000B70120E030E844EF53E40E94590C181699
:1008F000B4F460E074E284EF98E4A80197010E94E8
:10090000AB0B0E94DD0870932702109228027093AF
:10091000BF006093D1008091C1008E7F1FC0C801CD
:10092000B70120E030E045E753E40E94590C181667
:10093000DCF460E074E284E798E4A80197010E9487
:10094000AB0B0E94DD08709327021092280270936F
:10095000BF006093D1008091C10081608093C1008D
:100960008091C1008260B0CFC801B70120E030E0C3
:1009700048EF51E40E94590C181604F560E074E247
:1009800084EF96E4A80197010E94AB0B0E94DD085A
:1009900070932702109228027093BF006093D100D9
:1009A0008091C1008E7F8093C1008091C1008260E0
:1009B0008093C1008091C1008B7F4EC0C801B701F8
:1009C00020E030E040E051E40E94590C1816DCF4BD
:1009D00060E074E284EF95E4A80197010E94AB0BFC
:1009E0000E94DD0870932702109228027093BF00C6
:1009F0006093D1008091C1008E7F8093C10080916F
:100A0000C1008D7F24C0C801B70120E030E040E87C
:100A10005FE30E94590C18163CF560E074E284E72D
:100A200094E4A80197010E94AB0B0E94DD0870932B
:100A30002702109228027093BF006093D10080912A
:100A4000C10081608093C1008091C1008260809369
:100A5000C1008091C10084608093C1008091C10079
:100A600088608093C1004ECE80E01F910F91FF906F
:100A7000EF9008958130C9F082301CF4882339F05A
:100A800095C0833091F1843009F090C041C061304D
:100A900009F08CC0442321F0509A84B5806203C0D1
:100AA000509884B58F7D84BD7FC0613021F0623065
:100AB00009F07CC00CC0442329F0269A8091800064
:100AC000806210C02698809180008F7D0BC04423E7
:100AD00029F0279A80918000886004C0279880912F
:100AE0008000877F809380005FC0613009F05EC026
:100AF000442339F03E9A8091900080688093900062
:100B000010C03E98809190008F778093900013C022
:100B10006230D9F0633089F1613009F047C0442375
:100B200051F03F9A8091C00080688093C00080910E
:100B3000C00082601FC03F988091C0008F77809373
:100B4000C0008091C0008D7F15C0442351F0259ACC
:100B50008091C00080618093C0008091C00081605E
:100B600009C025988091C0008F7E8093C00080913D
:100B7000C0008E7F8093C00017C0442351F0579A65
:100B80008091C20088608093C2008091C200816021
:100B900009C057988091C200877F8093C2008091DE
:100BA000C2008E7F8093C20081E0089580E00895A6
:100BB000AF92BF92CF92DF92EF92FF920F931F936B
:100BC000082F162F59016A01CA01B90120E030E04F
:100BD00040E050E00E94B90C87FD54C1C601B50148
:100BE00020E030E048EC52E40E94590C18160CF456
:100BF00049C1013049F102301CF4002341F042C1E7
:100C0000033009F465C0043009F03CC1C6C011309E
:100C100009F038C167B570E080E090E00E949B0D5C
:100C20007B018C01C601B50120E030E048EC52E4C4
:100C30000E94AB0B9B01AC01C801B7010E94B10A35
:100C40000E94DD0868BDFAC0113021F0123009F0B1
:100C500019C11FC0609188007091890080E090E008
:100C60000E949B0D7B018C01C601B50120E030E0A4
:100C700048EC52E40E94AB0B9B01AC01C801B701E8
:100C80000E94B10A0E94DD0870938B0060938A0075
:100C900027C0609188007091890080E090E00E94F8
:100CA0009B0D7B018C01C601B50120E030E048ECD2
:100CB00052E40E94AB0B9B01AC01C801B7010E943A
:100CC000B10A0E94DD0870938D0060938C0027C0EC
:100CD000123029F1133009F441C0113009F0D2C0AB
:100CE000609196007091970080E090E00E949B0DCB
:100CF0007B018C01C601B50120E030E048EC52E4F4
:100D00000E94AB0B9B01AC01C801B7010E94B10A64
:100D10000E94DD08709399006093980046C060912E
:100D200096007091970080E090E00E949B0D7B01FF
:100D30008C01C601B50120E030E048EC52E40E948D
:100D4000AB0B9B01AC01C801B7010E94B10A0E9424
:100D5000DD0870939B0060939A0049C060919600F3
:100D60007091970080E090E00E949B0D7B018C01C8
:100D7000C601B50120E030E048EC52E40E94AB0B24
:100D80009B01AC01C801B7010E94B10A0E94DD08B5
:100D900070939D0060939C0053C0123041F113305A
:100DA00009F44EC0113009F06DC02091D10070914E
:100DB000270260E0620F711D80E090E00E949B0DB1
:100DC0007B018C01C601B50120E030E048EC52E423
:100DD0000E94AB0B9B01AC01C801B7010E94B10A94
:100DE0000E94DD087093BF006093CF0027C0209160
:100DF000D1007091270260E0620F711D80E090E0E9
:100E00000E949B0D7B018C0160E070E088EC92E415
:100E1000A60195010E94800A20E030E048EC52E4EF
:100E20000E94AB0B9B01AC01C801B7010E94B10A43
:100E30000E94DD087093BF006093D00081E023C062
:100E40002091D1007091270260E0620F711D80E057
:100E500090E00E949B0D7B018C01C601B50120E052
:100E600030E048EC52E40E94AB0B9B01AC01C8019E
:100E7000B7010E94B10A0E94DD087093BF00609321
:100E8000D200DCCF80E01F910F91FF90EF90DF90B8
:100E9000CF90BF90AF9008959C0184EA8093BC00EE
:100EA0008091BC0087FFFCCF81E58093BB0084E884
:100EB0008093BC008091BC0087FFFCCF8091B9007B
:100EC000887F8834A1F084EC8093BC008091BC00C2
:100ED00087FFFCCF8091BB00861749F4A0E0B0E00B
:100EE000772767FD70956150704094EC12C084E9DB
:100EF0008093BC0080E008959093BC008091BC007A
:100F000087FFFCCF8091BB00F901EA0FFB1F8083B4
:100F10001196A617B70784F384E88093BC008091EC
:100F2000BC0087FFFCCF8091BB00A20FB31F8C9346
:100F300084E98093BC0081E00895982FF89484EAB6
:100F40008093BC008091BC0087FFFCCF80E580933C
:100F5000BB0084E88093BC008091BC0087FFFCCF7D
:100F60008091B900887F803231F484E98093BC009D
:100F7000789480E0089583E08093BB0084E88093B8
:100F8000BC008091BC0087FFFCCF9093BB0084E83D
:100F90008093BC008091BC0087FFFCCF20E030E054
:100FA000552747FD509594E80EC0FB01E20FF31F53
:100FB00080818093BB009093BC008091BC0087FF30
:100FC000FCCF2F5F3F4F241735077CF384E98093D4
:100FD000BC00789481E00895FF920F931F93182F1F
:100FE000062FF42E0E943C0884EA8093BC00809176
:100FF000BC0087FFFCCF80E58093BB0084E8809332
:10100000BC008091BC0087FFFCCF8091B900887F35
:10101000803229F484E98093BC0080E029C081E01B
:101020008093BB0084E88093BC008091BC0087FF64
:10103000FCCF1093BB0084E88093BC008091BC007F
:1010400087FFFCCF0093BB0084E88093BC008091B5
:10105000BC0087FFFCCFF092BB0084E88093BC000B
:101060008091BC0087FFFCCF84E98093BC0081E0C5
:101070001F910F91FF900895589A599A5A9A8CE0AF
:101080008093B800E9E6F0E080818062808380810F
:101090008F7E8083EA9A7894089584E88093BC00D8
:1010A0008091BC0087FFFCCF8091BB00089584E94C
:1010B0008093BC00089520E030E08091BC0087FD63
:1010C00006C02F5F3F4F83E0293E3807B1F780E02D
:1010D000285E334009F081E008958093BB0084E8E6
:1010E0008093BC000E945B08882319F08091B900AE
:1010F000887F08950F931F93182F062F84EA8093FB
:10110000BC000E945B08882371F0812F880F0023A8
:1011100031F08F5F0E946D08883451F404C00E9442
:101120006D08803229F484E98093BC0080E001C01E
:1011300081E01F910F9108950F931F93162F042F95
:1011400060E00E947A08882379F0812F0E946D0860
:10115000882351F0802F0E946D08882329F084E9AC
:101160008093BC0081E001C080E01F910F91089541
:101170000F931F93082F162F60E00E947A08882390
:10118000C1F0812F0E946D08882399F084E9809333
:10119000BC00802F61E00E947A08882351F084E827
:1011A0008093BC008091BC0087FFFCCF8091BB0086
:1011B00001C080E01F910F910895EF92FF920F936D
:1011C0001F937B018C0120E030E040E05FE40E944F
:1011D000890C87FD11C0C801B70120E030E040E074
:1011E0005FE40E94800A0E94490D9B01AC012050DF
:1011F00030404040504806C0C801B7010E94490D28
:101200009B01AC01B901CA011F910F91FF90EF90B2
:101210000895A0E0B0E0EFE0F9E00C940110FC01CB
:10122000EA018081823008F438C1DB019C91923060
:1012300008F430C1843059F4943009F02EC1918102
:1012400011968C911197981709F021C126C19430FD
:1012500009F420C19230B1F4823009F01EC1CA01F4
:10126000AF0128E0DA010D90AD01DC010D92CD0156
:101270002150C1F7DB0111968C911197918189233F
:1012800089830AC1823009F405C1C280D380DB01A1
:1012900012966D907C9013972481358146815781F9
:1012A0001496ED90FD900D911C911797C60186192B
:1012B00097095C0197FF04C0AA24BB24A81AB90AA5
:1012C000B0E2AB16B1040CF061C0181619066CF54B
:1012D000370148010A2C04C0969487947794679448
:1012E0000A94D2F781E090E0A0E0B0E00A2C04C0BC
:1012F000880F991FAA1FBB1F0A94D2F70197A10953
:10130000B1098E219F21A023B123EE24FF24870160
:10131000E3940097A105B10519F4EE24FF24870199
:10132000E628F728082919293CC00097D1F1CA0CF2
:10133000DB1C39014A010A2C04C0969487947794E7
:1013400067940A94D2F781E090E0A0E0B0E00A2C24
:1013500004C0880F991FAA1FBB1F0A94D2F70197D8
:10136000A109B10982239323A423B52321E030E00E
:1013700040E050E00097A105B10519F420E030E00D
:10138000A90126293729482959290BC06C147D0445
:1013900024F4EE24FF24870104C0630120E030E040
:1013A000A9018181FB019181891709F445C0882336
:1013B00049F0D801C701821B930BA40BB50B9C010C
:1013C000AD0104C02E193F09400B510B57FD04C05D
:1013D0001982DB82CA820BC081E08983DB82CA82E8
:1013E00050954095309521953F4F4F4F5F4F2C833F
:1013F0003D834E835F830DC0880F991FAA1FBB1FBB
:101400008C839D83AE83BF838A819B8101979B835D
:101410008A838C819D81AE81BF819C01AD01215069
:101420003040404050402F3FEFEF3E07EFEF4E0778
:10143000EFE35E0708F30BC08983DB82CA822E0DBF
:101440003F1D401F511F2C833D834E835F8383E0EC
:1014500088832C813D814E815F8157FF1DC0DA0159
:10146000C90181709070A070B070569547953795FE
:101470002795822B932BA42BB52B8C839D83AE8336
:10148000BF838A819B8101969B838A8305C0E2E1A9
:10149000F1E003C0FB0101C0FE01CF01CDB7DEB713
:1014A000EEE00C941D10A0E2B0E0E9E5FAE00C9447
:1014B000091069837A838B839C832D833E834F83BA
:1014C000588789E0E82EF12CEC0EFD1ECE01019626
:1014D000B7010E943B0F8E010F5E1F4FCE01059694
:1014E000B8010E943B0FC701B801AE01475E5F4FD4
:1014F0000E9409090E946D0EA096E6E00C9425104A
:10150000A0E2B0E0E6E8FAE00C94091069837A837F
:101510008B839C832D833E834F8358878E01075F87
:101520001F4FCE010196B8010E943B0F91E1E92EB9
:10153000F12CEC0EFD1ECE010596B7010E943B0F6B
:101540008A8991E089278A8BC801B701AE01475E7D
:101550005F4F0E9409090E946D0EA096E6E00C9470
:101560002510A0E2B0E0E7EBFAE00C94FD0F6983F0
:101570007A838B839C832D833E834F835887CE0150
:101580000196BE01675F7F4F0E943B0FCE0105961B
:10159000BE016F5E7F4F0E943B0F9985923078F0BD
:1015A00089898230C0F0943019F4823041F4CBC084
:1015B000843019F4923079F4C6C0923051F481E04D
:1015C0002A859A89291709F480E08A87CE0109962D
:1015D000BCC0823051F481E02A859A89291709F428
:1015E00080E08A8BCE014196B0C06D847E848F846A
:1015F0009888ED88FE880F89188DE0E2F0E080E0A1
:1016000090E0DC01AA24BB24650120E030E0A901C0
:10161000B3016170707061157105D1F02E0D3F1D21
:10162000401F511F15012601280E391E4A1E5B1E40
:1016300081E090E0A0E0B0E02E153F0540075107A3
:1016400018F080E090E0DC01820D931DA41DB51D13
:10165000AA0CBB1CCC1CDD1C17FF09C061E0262EA8
:10166000312C412C512CA228B328C428D5283197DD
:1016700049F0EE0CFF1C001F111F9694879477947D
:101680006794C6CF6B897C89EB85FC856E0F7F1FC5
:101690006E5F7F4F7C8F6B8F61E0EA857A89E717F9
:1016A00009F460E06A8F6B8D7C8D10C0FC01E170E5
:1016B000F070309729F056954795379527955068E3
:1016C000B695A795979587956F5F7F4FB7FDEECF3E
:1016D0000CC0880F991FAA1FBB1F57FD8160220FE6
:1016E000331F441F551F615070408030E0E09E075B
:1016F000E0E0AE07E0E4BE0760F36B8F7C8F6FE73E
:10170000E62EF12C012D112DE822F9220A231B23AC
:1017100060E4E616F1040105110561F487FD0AC0D5
:10172000211531054105510529F0805C9F4FAF4FD0
:10173000BF4F80788D8F9E8FAF8FB8A383E0898F46
:10174000CE01499602C082E191E00E946D0EA09602
:10175000E2E10C941910A8E1B0E0E1EBFBE00C949D
:10176000051069837A838B839C832D833E834F830B
:1017700058878E01075F1F4FCE010196B8010E9466
:101780003B0F81E1E82EF12CEC0EFD1ECE010596FB
:10179000B7010E943B0F9985923008F483C0898974
:1017A000823008F47BC02A853A8923272A8794301F
:1017B00011F0923021F4981709F06CC071C0843098
:1017C00039F41D861E861F86188A1C861B866AC0F1
:1017D000823019F484E0898765C08B859C852B89CC
:1017E0003C89821B930B9C878B872D853E854F857B
:1017F0005889ED88FE880F89188D2E153F05400702
:10180000510738F4220F331F441F551F01979C873F
:101810008B876FE170E0A12CB12CC12CA0E4DA2EF3
:1018200080E090E0DC012E153F054007510740F0B5
:101830008A299B29AC29BD292E193F09400B510B40
:10184000D694C794B794A794220F331F441F551FF3
:101850006150704041F76FE7E62EF12C012D112DFC
:10186000E822F9220A231B2360E4E616F1040105AD
:10187000110561F487FD0AC02115310541055105A7
:1018800029F0805C9F4FAF4FBF4F80788D879E8738
:10189000AF87B88B8E01075F1F4F04C0870102C05E
:1018A00002E111E0C8010E946D0E6896EAE00C9416
:1018B0002110A8E1B0E0EFE5FCE00C940910698389
:1018C0007A838B839C832D833E834F8358878E013D
:1018D000075F1F4FCE010196B8010E943B0F81E1C7
:1018E000E82EF12CEC0EFD1ECE010596B7010E94EC
:1018F0003B0F8985823040F08989823028F0C80109
:10190000B7010E94A40F01C08FEF6896E6E00C9427
:101910002510A8E1B0E0EFE8FCE00C940910698321
:101920007A838B839C832D833E834F8358878E01DC
:10193000075F1F4FCE010196B8010E943B0F81E166
:10194000E82EF12CEC0EFD1ECE010596B7010E948B
:101950003B0F8985823040F08989823028F0C801A8
:10196000B7010E94A40F01C08FEF6896E6E00C94C7
:101970002510A8E1B0E0EFEBFCE00C9409106983BE
:101980007A838B839C832D833E834F8358878E017C
:10199000075F1F4FCE010196B8010E943B0F81E106
:1019A000E82EF12CEC0EFD1ECE010596B7010E942B
:1019B0003B0F8985823040F08989823028F0C80148
:1019C000B7010E94A40F01C081E06896E6E00C9484
:1019D0002510A8E0B0E0EFEEFCE00C9409107B01CC
:1019E0008C0183E08983D801C7018827B7FD8395DF
:1019F0009927AA27BB27282F8A83E114F104010520
:101A0000110519F482E0898337C08EE190E09C8350
:101A10008B83222389F080E0E81680E0F80680E0DE
:101A2000080780E8180769F110950095F094E09494
:101A3000E11CF11C011D111DED82FE820F83188730
:101A4000C801B7010E94130E9C01215030401216AC
:101A5000130694F4022E04C0EE0CFF1C001F111F8D
:101A60000A94D2F7ED82FE820F8318878EE190E010
:101A7000821B930B9C838B83CE0101960E946D0E7B
:101A800004C060E070E080E09FEC2896E6E00C94F3
:101A90002510ACE0B0E0EFE4FDE00C940D1069839C
:101AA0007A838B839C83CE010196BE016B5F7F4F4F
:101AB0000E943B0F8D81823081F1823070F1843041
:101AC00021F48E81882369F10AC02F81388537FD82
:101AD00024C06E812F3131053CF0662311F120E0E6
:101AE00030E040E050E821C08EE190E0821B930B93
:101AF00029853A854B855C8504C056954795379571
:101B000027958A95D2F7662381F0509540953095B8
:101B100021953F4F4F4F5F4F08C020E030E0A901B3
:101B200004C02FEF3FEF4FEF5FE7B901CA012C96DA
:101B3000E2E00C942910A8E0B0E0E1EAFDE00C94AA
:101B400007107B018C011A826115710581059105D1
:101B500019F482E089835FC083E089838EE1C82E17
:101B6000D12CDC82CB82ED82FE820F831887C801E4
:101B7000B7010E94130EFC013197F7FF3AC0AA2764
:101B8000BB27AE1BBF0B21E030E040E050E00A2E47
:101B900004C0220F331F441F551F0A94D2F721504F
:101BA0003040404050402E213F214023512361E0EE
:101BB00070E080E090E0211531054105510519F4F0
:101BC00060E070E0CB0104C016950795F794E794A8
:101BD000AA95D2F7E62AF72A082B192BED82FE8266
:101BE0000F8318878EE190E08E1B9F0B9C838B8365
:101BF00012C0309781F00E2E04C0EE0CFF1C001FA7
:101C0000111F0A94D2F7ED82FE820F831887CE1A35
:101C1000DF0ADC82CB82CE0101960E946D0E2896EF
:101C2000E8E00C942310AF92BF92CF92DF92EF9234
:101C3000FF920F931F937B018C0180E0E81680E0F8
:101C4000F80681E0080780E0180758F4EFEFEE1679
:101C5000F1040105110509F090F480E090E0DC0149
:101C600017C0F0E0EF16F0E0FF06F0E00F07F1E03C
:101C70001F0750F480E190E0A0E0B0E009C088E0E8
:101C800090E0A0E0B0E004C088E190E0A0E0B0E027
:101C900020E230E040E050E0281B390B4A0B5B0BA0
:101CA0005701680104C0D694C794B794A7948A9545
:101CB000D2F7D601C501865E9E4FFC018081281BAC
:101CC000310941095109C9011F910F91FF90EF900E
:101CD000DF90CF90BF90AF900895EF92FF920F9357
:101CE0001F93CF93DF93FC01248135814681578177
:101CF00061818081823020F44061EFEFF0E0A3C089
:101D0000843009F49BC0823009F492C0211531055A
:101D10004105510509F48FC00280F381E02D8FEF5A
:101D2000E238F8070CF05AC0C2E8DFEFCE1BDF0B39
:101D3000CA31D1056CF579018A010C2E04C01695C3
:101D40000795F794E7940A94D2F781E090E0A0E039
:101D5000B0E00C2E04C0880F991FAA1FBB1F0A9465
:101D6000D2F70197A109B10982239323A423B523B4
:101D700021E030E040E050E00097A105B10519F402
:101D800020E030E0A9012E293F29402B512B03C030
:101D900020E030E0A901DA01C9018F779070A070CE
:101DA000B07080349105A105B10539F427FF09C051
:101DB000205C3F4F4F4F5F4F04C0215C3F4F4F4F60
:101DC0005F4FE1E0F0E0203080E0380780E0480736
:101DD00080E4580728F5E0E0F0E022C0E038F105A3
:101DE0006CF5E158FF4FDA01C9018F779070A07050
:101DF000B07080349105A105B10539F427FF09C001
:101E0000205C3F4F4F4F5F4F04C0215C3F4F4F4F0F
:101E10005F4F57FF05C056954795379527953196E3
:101E200087E056954795379527958A95D1F70BC04A
:101E3000E0E0F0E005C0E0E0F0E005C0EFEFF0E04A
:101E400020E030E0A9018E2F879588278795942F71
:101E50009F77679566276795E695E22EA92FA82BB1
:101E6000FE2FF62B622F732F8A2F9F2FCDB7DEB751
:101E7000E6E00C942510DC01FB012C9111963C91BD
:101E8000119712968C911297482F4F7750E0982F08
:101E9000991F9927991F13966C911397862F880F76
:101EA000892B90E0661F6627661F6183009739F5CE
:101EB000211531054105510511F482E029C082E860
:101EC0009FEF9383828367E0220F331F441F551FC8
:101ED0006A95D1F783E0808309C0220F331F441F26
:101EE000551F82819381019793838283203080E004
:101EF000380780E0480780E4580778F320C08F3F18
:101F0000910579F4211531054105510519F484E055
:101F10008083089544FF03C081E0808310C0108255
:101F20000EC08F5790409383828383E0808387E045
:101F3000220F331F441F551F8A95D1F75064248305
:101F40003583468357830895FC01DB0190819230ED
:101F500008F449C08C91823008F445C0943051F4A3
:101F600061818430B1F511962C91119730E0261BD8
:101F7000310941C0843021F0923041F48230B1F116
:101F800011968C9111978823A1F12DC06181823027
:101F900001F111968C9111976817D9F42281338140
:101FA00012968D919C9113978217930794F028179E
:101FB0003907BCF0248135814681578114968D9173
:101FC0009D910D90BC91A02D82179307A407B50792
:101FD00018F4662341F00DC0281739074A075B073C
:101FE00028F4662331F021E030E005C020E030E045
:101FF00002C02FEF3FEFC90108952F923F924F92F9
:102000005F926F927F928F929F92AF92BF92CF9288
:10201000DF92EF92FF920F931F93CF93DF93CDB791
:10202000DEB7CA1BDB0B0FB6F894DEBF0FBECDBF09
:1020300009942A88398848885F846E847D848C84DA
:102040009B84AA84B984C884DF80EE80FD800C81E3
:102050001B81AA81B981CE0FD11D0FB6F894DEBFC6
:0C2060000FBECDBFED010895F894FFCF36
:10206C0014000000C6420000C6420000C642CDCC9F
:10207C00CC3D000000000000000000010202030340
:10208C000303040404040404040405050505050500
:10209C0005050505050505050505060606060606DE
:1020AC0006060606060606060606060606060606C4
:1020BC0006060606060606060606070707070707AE
:1020CC000707070707070707070707070707070794
:1020DC000707070707070707070707070707070784
:1020EC000707070707070707070707070707070774
:1020FC00070707070707070707070808080808085E
:10210C000808080808080808080808080808080843
:10211C000808080808080808080808080808080833
:10212C000808080808080808080808080808080823
:10213C000808080808080808080808080808080813
:10214C000808080808080808080808080808080803
:10215C0008080808080808080808080808080808F3
:10216C0008080808080808080808080808080808E3
:0A217C000808080808080808080809
:00000001FF
