:100000000C9428010C9445010C9445010C94450175
:100010000C9445010C9445010C9445010C94450148
:100020000C9445010C9445010C943F050C947A0501
:100030000C9445010C9445010C9445010C94450128
:100040000C9445010C9445010C9445010C94450118
:100050000C9445010C9445010C9445010C94450108
:100060000C9445010C9445010C9445010C944501F8
:100070000C9445010C9445010C9445010C944501E8
:100080000C9445010C9445010C9445010C944501D8
:100090000C9445010C9445010C9445010C944501C8
:1000A0000C9445010C9445010C9445012002230257
:1000B000D401D40126022F02380242020E02140299
:1000C0001702E201E501E801D601D901DC01DF01F7
:1000D000EB01F401F701FD0105021102EE01F1014E
:1000E0001D02DF02E6020A030A03ED02F402FB022C
:1000F0000203BA02C802CF027202790280025802D9
:100100005D0264026B0287029E02A502AC02B3028A
:10011000C1028F029602D702D304D004CD04CA04D0
:10012000C704C404C104BE04BB04B804B504B204CB
:10013000AF04AC04A904A604A304A0049D049A047B
:100140009704940491048E048B048804850482042B
:100150007F047C0479047604730470046D046A04DB
:100160006704640461045E045B045804550452048B
:100170004F044C0449044604430440043D043A043B
:100180003704340431042E042B04280425042204EB
:100190001F041C041904160413040D0A00000100B6
:1001A00000D1011200020000E30143000300002619
:1001B0000204010309042A0212020309043E020692
:1001C000030309044602080001C1120180360181BF
:1001D000361201000202000010C0167A040001016C
:1001E00002030109024300020100C03209040000B9
:1001F000010202010005240010010524010101048F
:1002000024020605240600010705820310004009A8
:10021000040100020A000000070503024000000775
:100220000584024000000403090412034A002E0062
:1002300020004600690065006E00650000000603AE
:100240004D0032000000080334003100300000008F
:1002500011241FBECFEFDAE0DEBFCDBF11E0A0E07A
:10026000B1E0E4EAF1E102C005900D92A833B107D4
:10027000D9F711E0A8E3B1E001C01D92AE34B10797
:10028000E1F70E9447010C94D0080C940000CF9332
:10029000DF936E9A8EB11EB880E885BF85BF8093CC
:1002A0006100109261000E940B0310924D011092A8
:1002B0004C015EC0E0914C01F0914D01EE0FFF1F2B
:1002C000E050FF4F61E080819181009709F460E088
:1002D00087E00E944802E0914C01F0914D01EE0F41
:1002E000FF1FE05FFE4F61E080819181009709F47C
:1002F00060E086E00E944802E0914C01F0914D01DF
:10030000EE0FFF1FE05EFE4F61E08081918100975C
:1003100009F460E081E00E94480284E061E00E940C
:100320004802C0914C01D0914D0189E10E94C50164
:1003300090E0CC0FDD1FC85CDE4F9983888384E09A
:1003400060E00E944802E0914C01F0914D01EE0FF7
:10035000FF1FE85CFE4F808191810E94C20780915F
:100360004C0190914D01019690934D0180934C0169
:1003700080914C0190914D01883091050CF49ACFF9
:100380008AE991E00E94E50690CFE82FFF27E7FD7C
:10039000F095EB31F10540F4EA5AFF4FEE0FFF1FE5
:1003A0000590F491E02D099480E00895209883B1A0
:1003B00067C0219883B11DC0229883B120C02398C3
:1003C00083B125C0249883B143C0259883B149C027
:1003D000269883B14FC0279883B12BC03E9886B131
:1003E00049C03F9886B125C0509889B149C05198FD
:1003F00089B190E09695879543C0529889B190E075
:1004000096958795969587953BC0539889B190E0CE
:1004100053E0969587955A95E1F732C0549889B183
:1004200017C0559889B11DC0569889B123C05798F7
:1004300089B1881F8827881F08956E988CB11AC0CB
:1004400080988FB11DC081988FB1D3CF84988FB120
:1004500090E044E0969587954A95E1F711C085981C
:100460008FB190E035E0969587953A95E1F708C011
:1004700086988FB190E026E0969587952A95E1F7CA
:100480008170089587988FB1881F8827881F0895E5
:10049000E82FFF27E7FDF095EB31F10508F0BAC032
:1004A000EF58FF4FEE0FFF1F0590F491E02D0994D8
:1004B000209A6623D1F4289830C0219A662311F03F
:1004C000299A2BC0299829C0229A662311F02A9ACA
:1004D00024C02A9822C0239A662311F02B9A1DC0AB
:1004E0002B981BC0249A662311F02C9A16C02C98C6
:1004F00014C0259A662311F02D9A0FC02D980DC0B7
:10050000269A662311F02E9A08C02E9806C0279AC4
:10051000662311F02F9A01C02F9885B108953E9A55
:10052000662311F0469A08C0469806C03F9A662393
:1005300011F0479A01C0479888B10895509A6623F0
:1005400011F0589A32C0589830C0519A662311F071
:10055000599A2BC0599829C0529A662311F05A9A79
:1005600024C05A9822C0539A662311F05B9A1DC08A
:100570005B981BC0549A662311F05C9A16C05C9875
:1005800014C0559A662311F05D9A0FC05D980DC096
:10059000569A662311F05E9A08C05E9806C0579A74
:1005A000662311F05F9A01C05F988BB108956E9A2F
:1005B000662311F0769A01C076988EB10895809ADC
:1005C000662311F0889A22C0889820C0819A6623F9
:1005D00011F0899A1BC0899819C0849A662311F07A
:1005E0008C9A14C08C9812C0859A662311F08D9A4B
:1005F0000DC08D980BC0869A662311F08E9A06C0A6
:100600008E9804C0879A662319F08F9A81B3089553
:100610008F9881B3089581E08093D70080EA80931A
:10062000D80082E189BD09B400FEFDCF80E9809346
:10063000D8001092E00010924801109249018CE01D
:100640008093E200789408958091480108959FB7BF
:10065000F89480914801882339F083E08093E90081
:100660008091E80085FD03C09FBF8FEF0895209122
:10067000F1008091E80085FD03C08BE68093E800DF
:100680009FBF822F08959FB7F894809148018823D7
:1006900029F083E08093E9008091F2009FBF0895E4
:1006A00080914801882371F09FB7F89483E080938C
:1006B000E9002BE602C02093E8008091E80085FD68
:1006C000FACF9FBF0895482F809148018823D9F120
:1006D0002FB7F89484E08093E90080914B01882340
:1006E00041F08091E80085FD02C02FBF12C010923A
:1006F0004B019091E400975E34E08091E80085FD25
:1007000013C02FBF8091E400891729F481E0809302
:100710004B018FEF0895809148018823A1F02FB7F6
:10072000F8943093E900E9CF4093F1008091E8001C
:1007300085FD03C08AE38093E80085E080934A0149
:100740002FBF80E008958FEF0895282F80914801F2
:10075000882351F09FB7F89484E08093E90080915A
:10076000E80085FD03C09FBF8FEF08952093F1003F
:100770008091E80085FD03C08AE38093E80085E06E
:1007800080934A019FBF80E00895CF93DF93EC01EF
:1007900080914801882309F41CC13FB7F89484E094
:1007A0008093E90080914B01882309F407C180916F
:1007B000E80085FD02C03FBF0CC110924B01FEC096
:1007C0009091E400975E8091E80085FD13C03FBFE3
:1007D0008091E400891721F481E080934B01F9C0F6
:1007E00080914801882309F4F4C03FB7F8945093EE
:1007F000E900E9CF8091F2002A2F281B822F90E098
:100800006817790708F4262F822F90E0813491052C
:1008100008F0C6C084579F4FFC01EE0FFF1F0590E4
:10082000F491E02D099489918093F100899180934E
:10083000F10089918093F10089918093F100899171
:100840008093F10089918093F10089918093F10068
:1008500089918093F10089918093F100899180932F
:10086000F10089918093F10089918093F100899141
:100870008093F10089918093F10089918093F10038
:1008800089918093F10089918093F10089918093FF
:10089000F10089918093F10089918093F100899111
:1008A0008093F10089918093F10089918093F10008
:1008B00089918093F10089918093F10089918093CF
:1008C000F10089918093F10089918093F1008991E1
:1008D0008093F10089918093F10089918093F100D8
:1008E00089918093F10089918093F100899180939F
:1008F000F10089918093F10089918093F1008991B1
:100900008093F10089918093F10089918093F100A7
:1009100089918093F10089918093F100899180936E
:10092000F10089918093F10089918093F100899180
:100930008093F10089918093F10089918093F10077
:1009400089918093F10089918093F100899180933E
:10095000F10089918093F10089918093F100899150
:100960008093F10089918093F10089918093F10047
:1009700089918093F10089918093F100899180930E
:10098000F10089918093F10089918093F100899120
:100990008093F10089918093F10089918093F10017
:1009A00089918093F1008091E80085FD02C0B093A9
:1009B000E800621B710940934A0104C054E0A0E4BE
:1009C000BAE345E06115710509F0FACE3FBF80E05A
:1009D00001C08FEFDF91CF9108959FB7F894809178
:1009E0004A01882341F084E08093E9008AE3809300
:1009F000E80010924A019FBF089560913001709104
:100A00003101809132019091330108958091340138
:100A1000089580913501089580913601089580915F
:100A200049010895382F9FB7F89480914801882391
:100A300039F022E02093E9008091E80085FD03C0B1
:100A40009FBF8FEF089581EA8093F10080E2809349
:100A5000F1001092F1001092F1001092F10010924A
:100A6000F1002093F1001092F1003093F100109208
:100A7000F1008AE38093E8009FBF80E008951F9211
:100A80000F920FB60F9211248F939F938091E100E4
:100A90001092E100982F83FF11C01092E90081E0CD
:100AA0008093EB001092EC0082E18093ED0088E0EF
:100AB0008093F000109248011092490192FF13C0F8
:100AC00080914801882379F080914A01882359F068
:100AD000815080934A01882331F484E08093E900B7
:100AE0008AE38093E8009F918F910F900FBE0F9043
:100AF0001F9018951F920F920FB60F9211240F930B
:100B00001F932F933F934F935F936F937F938F9395
:100B10009F93AF93BF93EF93FF931092E90080915F
:100B2000E80083FF3CC14091F1003091F1008091D9
:100B3000F100682F70E02091F100922F80E0682B87
:100B4000792B8091F100A82FB0E02091F100922F35
:100B500080E0A82BB92B1091F1000091F10082EFF9
:100B60008093E800363009F05AC024EA31E0A90148
:100B700045505040F9013797859194918617970712
:100B800001F5FA01859194918A179B07D1F49A0196
:100B90002E5F3F4FF901659174912E5F3F4FF90130
:100BA0004491212F30E0902F80E0282B392B2F3FCC
:100BB000310519F010F02FEF30E0241758F4422FD0
:100BC00009C0295F3F4F495F5F4FF1E02E3C3F076F
:100BD00089F6E5C05EEF8091E800282F30E0C9017A
:100BE00085709070892BB9F322FDDCC0342F413120
:100BF00008F030E1232FCB0106C0FC010196E491FF
:100C0000E093F10021502223C1F7630F711D431BB4
:100C10005093E8004423F9F63031E9F2C3C035308F
:100C200061F48EEF8093E8008091E80080FFFCCFB4
:100C3000862F80688093E300B5C0393051F5442396
:100C400009F0ADC0609348011092490110924A0129
:100C50008EEF8093E80087EC91E021E02093E9009B
:100C6000FC010196E491E093EB00EE2369F0AC0106
:100C70004F5F5F4FFC0184918093EC00CA010196A5
:100C8000FA0134913093ED002F5F253039F78EE172
:100C900081C0383061F4403809F081C08091E800AB
:100CA00080FFFCCF809148018093F10050C0313229
:100CB00089F4413A09F073C08091E80080FFFCCFCD
:100CC000E0E3F1E081918093F10081E0E733F80700
:100CD000C9F73DC03032A1F4413209F060C08091C3
:100CE000E80082FFFCCFE0E3F1E08091F100819326
:100CF00081E0E733F807C9F78BEF8093E80027C05E
:100D0000323251F4413209F04AC060934901809176
:100D1000E80080FFFCCF1BC03323E9F48091E8009A
:100D200080FFFCCF423811F080E00DC0A093E900B5
:100D30008091EB0090E025E0969587952A95E1F764
:100D400081701092E9008093F1001092F1008EEF13
:100D50008093E80027C0313011F0333001F5423084
:100D6000F1F4672BE1F42A2F2F77822F8150843002
:100D7000B0F48EEF8093E8002093E900333079F0EF
:100D800089E18093EB0081E090E002C0880F991F19
:100D90002A95E2F78093EA001092EA0003C081E20C
:100DA0008093EB00FF91EF91BF91AF919F918F9155
:100DB0007F916F915F914F913F912F911F910F9173
:100DC0000F900FBE0F901F9018951F93CF93DF9336
:100DD000EC01FE0121961491112349F01A3019F407
:100DE0008DE00E946303812F0E946303F2CFDF91A5
:100DF000CF911F910895982F8A3010F087E301C09A
:100E000080E3890F0E94630308951F93182F829532
:100E10008F700E94FB06812F8F700E94FB061F912E
:100E200008951F93182F892F0E940507812F0E9474
:100E300005071F9108950E9405070895EF92FF92FC
:100E40000F931F93DF93CF93CDB7DEB72A970FB6DB
:100E5000F894DEBF0FBECDBF8E010F5F1F4F2AE09B
:100E6000F80111922A95E9F7A8012AE030E00E94E2
:100E70004F083BE0E32EF12CEC0EFD1EF8018081C3
:100E8000882311F00E9463030F5F1F4F0E151F058B
:100E9000A9F72A960FB6F894DEBF0FBECDBFCF914B
:100EA000DF911F910F91FF90EF900895EF92FF92C5
:100EB0000F931F93DF93CF93CDB7DEB72B970FB66A
:100EC000F894DEBF0FBECDBF8E010F5F1F4F2BE02A
:100ED000F80111922A95E9F7A8012AE030E00E9472
:100EE0001B084CE0E42EF12CEC0EFD1EF801808175
:100EF000882311F00E9463030F5F1F4F0E151F051B
:100F0000A9F72B960FB6F894DEBF0FBECDBFCF91D9
:100F1000DF911F910F91FF90EF900895EF92FF9254
:100F20000F931F93DF93CF9300D000D00F92CDB7D4
:100F3000DEB78E010F5F1F4F25E0F80111922A9551
:100F4000E9F7B8014AE050E00E94740856E0E52E47
:100F5000F12CEC0EFD1EF8018081882311F00E9417
:100F600063030F5F1F4F0E151F05A9F70F900F901A
:100F70000F900F900F90CF91DF911F910F91FF90E5
:100F8000EF900895EF92FF920F931F93DF93CF930B
:100F9000CDB7DEB727970FB6F894DEBF0FBECDBF33
:100FA0008E010F5F1F4F27E0F80111922A95E9F794
:100FB000B8014AE050E00E94FA0768E0E62EF12C02
:100FC000EC0EFD1EF8018081882311F00E9463035E
:100FD0000F5F1F4F0E151F05A9F727960FB6F89440
:100FE000DEBF0FBECDBFCF91DF911F910F91FF905C
:100FF000EF900895FB019F01E8944230C4F0453220
:10100000B4F44A3029F497FB1EF4909581959F4FD4
:10101000642F77270E949A08805D8A330CF0895DDF
:101020008193CB010097A1F716F45DE251931082F2
:10103000C9010C948A08FA01CF93FF93EF932230F1
:1010400044F1253234F5C22FE894CA3049F497FBB5
:101050003EF490958095709561957F4F8F4F9F4F8F
:101060002C2F332744275527FF93EF930E94AE0878
:10107000EF91FF91605D6A330CF0695D6193B90196
:10108000CA01605070408040904051F716F4CDE2A4
:10109000C19310828F919F91CF910C948A08FA018D
:1010A000CF93FF93EF932230CCF02532BCF4C22FC4
:1010B0002C2F332744275527FF93EF930E94AE0828
:1010C000EF91FF91605D6A330CF0695D6193B90146
:1010D000CA01605070408040904051F710828F915B
:1010E0009F91CF910C948A08FB019F01423074F0CC
:1010F000453264F4642F77270E949A08805D8A3312
:101100000CF0895D8193CB010097A1F71082C90192
:101110000C948A08DC01FC01672F71917723E1F7B9
:10112000329704C07C916D9370836291AE17BF07B4
:10113000C8F30895AA1BBB1B51E107C0AA1FBB1F20
:10114000A617B70710F0A61BB70B881F991F5A9553
:10115000A9F780959095BC01CD010895A1E21A2EC2
:10116000AA1BBB1BFD010DC0AA1FBB1FEE1FFF1F4B
:10117000A217B307E407F50720F0A21BB30BE40B9B
:10118000F50B661F771F881F991F1A9469F76095E2
:101190007095809590959B01AC01BD01CF0108959C
:0411A000F894FFCFF1
:1011A4000000000000000000010001000100010037
:1011B4000000000001000100000000000100010027
:1011C4000000010000000100000001000000010017
:0811D40000E10000000008002A
:00000001FF
