:100000000C948C000C94A9000C94A9000C94AB00E7
:100010000C94A9000C94A9000C94A9000C94A900BC
:100020000C94A9000C94A9000C94A9000C94A900AC
:100030000C94A9000C94A9000C94A9000C94A9009C
:100040000C94A9000C94A9000C94A9000C94A9008C
:100050000C94A9000C94A9000C94A9000C94A9007C
:100060000C94A9000C94A9000C94A9000C94A9006C
:100070000C94A9000C94A9000C94A9000C94A9005C
:100080000C94A9000C94A9000C94A9000C94A9004C
:100090000C94A9000C94A9000C94A9000C94A9003C
:1000A0000C94A9000C94A9000C94A900A303A60326
:1000B00057035703A903B203BB03C5039103970377
:1000C0009A03650368036B0359035C035F036203D0
:1000D0006E0377037A038003880394037103740328
:1000E000A003620469048D048D04700477047E0407
:1000F00085043D044B045204F503FC030304DB03B5
:10010000E003E703EE030A04210428042F04360465
:100110004404120419045A0411241FBECFEFDAE07C
:10012000DEBFCDBF12E0A0E0B1E0EEE8F6E202C033
:1001300005900D92A830B107D9F712E0A8E0B2E01F
:1001400001C01D92AF34B107E1F70E94D4020C94B4
:1001500045130C9400001F920F920FB60F921124BA
:100160002F933F934F935F936F937F938F939F93BF
:10017000AF93BF93EF93FF9388E392E06DE00E940B
:10018000370A82E00E948E04FF91EF91BF91AF91F8
:100190009F918F917F916F915F914F913F912F919F
:1001A0000F900FBE0F901F9018951092350210926D
:1001B000340229C080913402909135028530910536
:1001C0005CF4E0913402F0913502A0913402B091D8
:1001D0003502E25DFD4F0AC0E0913402F091350234
:1001E000A0913402B0913502EE5BFD4FA85CBD4F8B
:1001F0008C91808380913402909135020196909386
:1002000035028093340280913402909135028A3015
:10021000910584F28EE292E00E941F1390934D02AA
:1002200080934C0287E492E00E941F139093370260
:10023000809336028091420280934E028133E9F42A
:1002400080912C028033E9F480910C0290910D0290
:10025000009731F481E090E090930D0280930C02BE
:1002600080910C0290910D028230910521F4109240
:100270000D0210920C0281E302C0803311F48093CE
:100280002C0280914302809345028133E9F48091EE
:1002900033028033E9F480911002909111020097AB
:1002A00031F481E090E090931102809310028091EC
:1002B0001002909111028230910521F410921102E6
:1002C0001092100281E302C0803311F48093330254
:1002D0008091440280934602813309F063C080918B
:1002E0002D02803309F05EC08091120290911302BA
:1002F0000097C1F48091140290911502009791F03B
:1003000084E061E020E030E040EF51E40E94C30867
:1003100081E090E0909313028093120210921502F4
:100320001092140280911202909113028130910573
:10033000C1F48091140290911502009791F084E02D
:1003400061E020E030E044EB52E40E94C30882E028
:1003500090E0909313028093120210921502109273
:10036000140280911202909113028230910589F457
:100370008091140290911502009759F084E061E099
:1003800020E030E0A9010E94C308109213021092ED
:10039000120281E090E0909315028093140281E3B1
:1003A00080932D0280914602803311F480932D02B8
:1003B00083E061E020E030E040E251E40E94C308C5
:1003C0008AE060E00E94CB0380E090E00895809195
:1003D0000A0290910B02009761F48CE060E00E94A9
:1003E000CB0386E060E00E94CB0380E060E00E94E7
:1003F000CB038CE060E00E94CB0386E061E00E94CA
:10040000CB038FEF93EEA7E581509040A040E1F73A
:1004100000C000008CE060E00E94CB0386E060E05A
:100420000E94CB0380E061E00E94CB038FEF93E258
:10043000A4EFB0E081509040A040B040D9F700C098
:10044000000080E060E00E94CB038CE061E00E944D
:10045000CB0386E060E00E94CB038FEF93EEA7E52D
:1004600081509040A040E1F700C000008CE060E0C7
:100470000E94CB0386E060E00E94CB038AEA96EEFE
:10048000A6E9B1E081509040A040B040D9F700000B
:1004900080E090E008958091080290910902009711
:1004A00071F481E061E020E030E040EA51E40E9434
:1004B000C30881E090E0909309028093080280E0F5
:1004C00090E0089580914C0290914D0222E081309D
:1004D000920704F160914C0270914D02882777FDDC
:1004E0008095982F0E94D40F2DEC3CEC4CE45EE3F9
:1004F0000E949C0D2DEC3CEC4CEC52E40E946B0DE8
:100500006093160270931702809318029093190259
:100510004E981FC060914C0270914D02882777FD64
:100520008095982F0E94D40F2DEC3CEC4CE45EEBB0
:100530000E949C0D2DEC3CEC4CEC52E40E943E0DD4
:100540006093160270931702809318029093190219
:100550004E9A609116027091170280911802909144
:10056000190220E030E046EC52E40E94440F1816D5
:1005700064F480E090E0A6ECB2E4809316029093DD
:100580001702A0931802B09319022091160230911D
:100590001702409118025091190283E061E00E9415
:1005A000C30880E090E008951F936E9A8EB11EB844
:1005B00010E815BF15BF10936100109261000E94F2
:1005C000270B109361001092610081E063EA4DE017
:1005D0000E94D70A80E060E00E94CB0381E040E007
:1005E00050E46CE976E40E94AE0483E040E050EA17
:1005F0006CE876E40E94AE0484E040E050E46CE1F4
:1006000076E40E94AE0481E062E041E00E942508A9
:1006100081E061E041E00E94250881E061E020E0A6
:1006200030E040E251E40E94C30883E061E041E031
:100630000E94250883E061E020E030E0A9010E94EB
:10064000C30884E061E041E00E94250884E061E0A5
:1006500020E030E0A9010E94C30884E063E041E0AB
:100660000E9425080E944B025798569A0E94D50076
:1006700082E00E949E0480910C0290910D020097EE
:10068000A9F30E94E70110920D0210920C02EECF26
:10069000E82FFF27E7FDF095EB31F10540F4EA5A2A
:1006A000FF4FEE0FFF1F0590F491E02D099480E0BD
:1006B0000895209883B167C0219883B11DC0229806
:1006C00083B120C0239883B125C0249883B143C04F
:1006D000259883B149C0269883B14FC0279883B12C
:1006E0002BC03E9886B149C03F9886B125C050982E
:1006F00089B149C0519889B190E09695879543C0DA
:10070000529889B190E096958795969587953BC0CC
:10071000539889B190E053E0969587955A95E1F703
:1007200032C0549889B117C0559889B11DC05698E8
:1007300089B123C0579889B1881F8827881F0895D9
:100740006E988CB11AC080988FB11DC081988FB1FE
:10075000D3CF84988FB190E044E0969587954A95E1
:10076000E1F711C085988FB190E035E096958795B7
:100770003A95E1F708C086988FB190E026E096950B
:1007800087952A95E1F78170089587988FB1881F22
:100790008827881F0895E82FFF27E7FDF095EB31A4
:1007A000F10508F0BAC0EF58FF4FEE0FFF1F05909C
:1007B000F491E02D0994209A6623D1F4289830C052
:1007C000219A662311F0299A2BC0299829C0229AD0
:1007D000662311F02A9A24C02A9822C0239A6623FD
:1007E00011F02B9A1DC02B981BC0249A662311F080
:1007F0002C9A16C02C9814C0259A662311F02D9AB5
:100800000FC02D980DC0269A662311F02E9A08C0AD
:100810002E9806C0279A662311F02F9A01C02F98B0
:1008200085B108953E9A662311F0469A08C046980D
:1008300006C03F9A662311F0479A01C0479888B1D5
:100840000895509A662311F0589A32C0589830C0D3
:10085000519A662311F0599A2BC0599829C0529A7F
:10086000662311F05A9A24C05A9822C0539A6623DC
:1008700011F05B9A1DC05B981BC0549A662311F05F
:100880005C9A16C05C9814C0559A662311F05D9A64
:100890000FC05D980DC0569A662311F05E9A08C08D
:1008A0005E9806C0579A662311F05F9A01C05F9860
:1008B0008BB108956E9A662311F0769A01C07698EE
:1008C0008EB10895809A662311F0889A22C0889884
:1008D00020C0819A662311F0899A1BC0899819C09B
:1008E000849A662311F08C9A14C08C9812C0859A51
:1008F000662311F08D9A0DC08D980BC0869A6623E1
:1009000011F08E9A06C08E9804C0879A662319F05B
:100910008F9A81B308958F9881B308956A9A813030
:1009200031F0823031F0882341F4729A0895729840
:1009300008958EB194E089278EB908956E9A81301A
:1009400031F0823031F0882341F4769A0895769818
:1009500008958EB190E489278EB90895EF92FF92A1
:100960000F931F937A018B01813009F4A7C0823065
:100970001CF4882341F063C3833009F467C18430D9
:1009800009F05DC32CC284B5816084BD84B58260EA
:1009900084BD85B5886085BD16BC40931C0250930C
:1009A0001D0260931E0270931F02CB01BA0120E06A
:1009B00038E146E757E40E94440F18168CF460E0D3
:1009C00074E284E79BE4A80197010E94960E0E94BE
:1009D000C80B67BD85B5816085BD85B58D7F32C08B
:1009E000C801B70120E030E545EF55E40E94740FDF
:1009F000882374F060E074E284EF99E4A801970121
:100A00000E94960E0E94C80B67BD85B58E7F17C0E9
:100A1000C801B70120E030E045E754E40E94740FBC
:100A20008823A4F060E074E284E798E4A8019701C9
:100A30000E94960E0E94C80B67BD85B5816085BD7A
:100A400085B5826085BD85B58B7F36C0C801B7018D
:100A500020E030E045E753E40E94740F882374F0EF
:100A600060E074E284E797E4A80197010E94960E83
:100A70000E94C80B67BD85B58E7F18C0C801B7013D
:100A800023E333E345E752E40E94740F88230CF418
:100A9000D6C260E074E284E796E4A80197010E9460
:100AA000960E0E94C80B67BD85B5816085BD85B572
:100AB0008D7F85BD85B5846085BD0FC18091810026
:100AC00080618093810080918100886080938100A3
:100AD000809180008260809380008091800081609E
:100AE0008093800010928500109284004093200231
:100AF000509321026093220270932302CB01BA012A
:100B000020E030E04AE753E40E94440F1816BCF49A
:100B100060E074E284E79BE4A80197010E94960ECE
:100B20000E94C80B709389006093880080918100B7
:100B3000816080938100809181008D7F3CC0C801DD
:100B4000B70120E030E048EF51E40E94740F8823A1
:100B500094F060E074E284EF99E4A80197010E94A8
:100B6000960E0E94C80B7093890060938800809154
:100B700081008E7F1BC0C801B70120E030E040E853
:100B800050E40E94740F8823E4F060E074E284E78C
:100B900098E4A80197010E94960E0E94C80B7093DA
:100BA000890060938800809181008160809381003A
:100BB00080918100826080938100809181008B7F91
:100BC00042C0C801B70120E030E040E85FE30E9486
:100BD000740F882394F060E074E284E797E4A8013E
:100BE00097010E94960E0E94C80B70938900609333
:100BF0008800809181008E7F1CC0C801B7012FE85A
:100C000032EC45E75EE30E94440F18160CF017C261
:100C100060E074E284E796E4A80197010E94960ED2
:100C20000E94C80B709389006093880080918100B6
:100C3000816080938100809181008D7F809381000D
:100C40008091810084608093810047C080919100F1
:100C500080618093910080919100886080939100E1
:100C600080919000826080939000809190008E7FB0
:100C7000809390001092950010929400409324026B
:100C8000509325026093260270932702CB01BA018C
:100C900020E030E04AE753E40E94440F1816FCF4C9
:100CA00060E074E284E79BE4A80197010E94960E3D
:100CB0000E94C80B709397006093960080919100FA
:100CC000816080939100809191008D7F809391004D
:100CD000809191008B7F8093910081E0B1C1C80128
:100CE000B70120E030E048EF51E40E94740F882300
:100CF00094F060E074E284EF99E4A80197010E9407
:100D0000960E0E94C80B7093970060939600809196
:100D100091008E7F1BC0C801B70120E030E040E8A1
:100D200050E40E94740F8823BCF060E074E284E712
:100D300098E4A80197010E94960E0E94C80B709338
:100D4000970060939600809191008160809391005C
:100D5000809191008260BACFC801B70120E030E0F5
:100D600040E85FE30E94740F882394F060E074E22F
:100D700084E797E4A80197010E94960E0E94C80B91
:100D80007093970060939600809191008E7F1CC0B5
:100D9000C801B7012FE832EC45E75EE30E94440F3B
:100DA00018160CF04CC160E074E284E796E4A801E8
:100DB00097010E94960E0E94C80B70939700609353
:100DC00096008091910081608093910080919100C4
:100DD0008D7F809391008091910084607CCF809181
:100DE000C3008D7F8093C3008091C3008E7F80936A
:100DF000C3001092BF001092BE004093280250938F
:100E0000290260932A0270932B02CB01BA0120E0E1
:100E100030E644E756E40E94440F1816E4F460E01C
:100E200074E284E79BE4A80197010E94960E0E9459
:100E3000C80B7093BF006093D1008091C1008160A6
:100E40008093C1008091C1008D7F8093C10080910B
:100E5000C1008B7F29C0C801B70120E030E04AEF14
:100E600054E40E94440F18162CF560E074E284EFFD
:100E700099E4A80197010E94960E0E94C80B7093F6
:100E80001A0210921B027093BF006093D1008091F0
:100E9000C1008E7F8093C1008091C1008D7F8093BF
:100EA000C1008091C10084608093C1008091C10025
:100EB000877FC2C0C801B70120E030E844EF53E4A7
:100EC0000E94440F1816B4F460E074E284EF98E4D2
:100ED000A80197010E94960E0E94C80B70931A02F7
:100EE00010921B027093BF006093D1008091C100EB
:100EF0008E7F1FC0C801B70120E030E045E753E412
:100F00000E94440F1816DCF460E074E284E798E471
:100F1000A80197010E94960E0E94C80B70931A02B6
:100F200010921B027093BF006093D1008091C100AA
:100F300081608093C1008091C1008260B0CFC80100
:100F4000B70120E030E048EF51E40E94440F18164A
:100F500004F560E074E284EF96E4A80197010E9432
:100F6000960E0E94C80B70931A0210921B02709387
:100F7000BF006093D1008091C1008E7F8093C1003B
:100F80008091C10082608093C1008091C1008B7FFD
:100F90004EC0C801B70120E030E040E051E40E94BB
:100FA000440F1816DCF460E074E284EF95E4A801C5
:100FB00097010E94960E0E94C80B70931A0210921D
:100FC0001B027093BF006093D1008091C1008E7F9F
:100FD0008093C1008091C1008D7F24C0C801B701FA
:100FE00020E030E040E85FE30E94440F18163CF533
:100FF00060E074E284E794E4A80197010E94960EF1
:101000000E94C80B70931A0210921B027093BF00CB
:101010006093D1008091C10081608093C100809174
:10102000C10082608093C1008091C1008460809380
:10103000C1008091C10088608093C1004ECE80E0E5
:101040001F910F91FF90EF9008958130C9F0823089
:101050001CF4882339F095C0833091F1843009F075
:1010600090C041C0613009F08CC0442321F0509AF7
:1010700084B5806203C0509884B58F7D84BD7FC0E5
:10108000613021F0623009F07CC00CC0442329F0AB
:10109000269A80918000806210C0269880918000FE
:1010A0008F7D0BC0442329F0279A809180008860AF
:1010B00004C0279880918000877F809380005FC064
:1010C000613009F05EC0442339F03E9A809190006F
:1010D00080688093900010C03E98809190008F7738
:1010E0008093900013C06230D9F0633089F1613091
:1010F00009F047C0442351F03F9A8091C0008068B6
:101100008093C0008091C00082601FC03F98809192
:10111000C0008F778093C0008091C0008D7F15C084
:10112000442351F0259A8091C00080618093C000D3
:101130008091C000816009C025988091C0008F7E99
:101140008093C0008091C0008E7F8093C00017C044
:10115000442351F0579A8091C20088608093C20066
:101160008091C200816009C057988091C200877F3A
:101170008093C2008091C2008E7F8093C20081E084
:10118000089580E00895AF92BF92CF92DF92EF92E0
:10119000FF920F931F93082F162F59016A01CA015E
:1011A000B90120E030E040E050E00E94A40F87FD4C
:1011B00054C1C601B50120E030E048EC52E40E9481
:1011C000440F18160CF449C1013049F102301CF4E7
:1011D000002341F042C1033009F465C0043009F036
:1011E0003CC1C6C0113009F038C167B570E080E07D
:1011F00090E00E9486107B018C01C601B50120E0C1
:1012000030E048EC52E40E94960E9B01AC01C8010C
:10121000B7010E949C0D0E94C80B68BDFAC0113036
:1012200021F0123009F019C11FC06091880070913F
:10123000890080E090E00E9486107B018C01C6014D
:10124000B50120E030E048EC52E40E94960E9B018C
:10125000AC01C801B7010E949C0D0E94C80B70939D
:101260008B0060938A0027C060918800709189008C
:1012700080E090E00E9486107B018C01C601B501E0
:1012800020E030E048EC52E40E94960E9B01AC0155
:10129000C801B7010E949C0D0E94C80B70938D007D
:1012A00060938C0027C0123029F1133009F441C03B
:1012B000113009F0D2C0609196007091970080E0E3
:1012C00090E00E9486107B018C01C601B50120E0F0
:1012D00030E048EC52E40E94960E9B01AC01C8013C
:1012E000B7010E949C0D0E94C80B709399006093F7
:1012F000980046C0609196007091970080E090E061
:101300000E9486107B018C01C601B50120E030E00F
:1013100048EC52E40E94960E9B01AC01C801B70153
:101320000E949C0D0E94C80B70939B0060939A00D2
:1013300049C0609196007091970080E090E00E9413
:1013400086107B018C01C601B50120E030E048EC3D
:1013500052E40E94960E9B01AC01C801B7010E94A5
:101360009C0D0E94C80B70939D0060939C0053C01D
:10137000123041F1133009F44EC0113009F06DC044
:101380002091D10070911A0260E0620F711D80E01F
:1013900090E00E9486107B018C01C601B50120E01F
:1013A00030E048EC52E40E94960E9B01AC01C8016B
:1013B000B7010E949C0D0E94C80B7093BF00609300
:1013C000CF0027C02091D10070911A0260E0620F17
:1013D000711D80E090E00E9486107B018C0160E02E
:1013E00070E088EC92E4A60195010E946B0D20E06C
:1013F00030E048EC52E40E94960E9B01AC01C8011B
:10140000B7010E949C0D0E94C80B7093BF006093AF
:10141000D00081E023C02091D10070911A0260E0D9
:10142000620F711D80E090E00E9486107B018C01AC
:10143000C601B50120E030E048EC52E40E94960E6F
:101440009B01AC01C801B7010E949C0D0E94C80B12
:101450007093BF006093D200DCCF80E01F910F91AA
:10146000FF90EF90DF90CF90BF90AF9008959C01D8
:1014700084EA8093BC008091BC0087FFFCCF81E5AB
:101480008093BB0084E88093BC008091BC0087FF00
:10149000FCCF8091B900887F8834A1F084EC8093E0
:1014A000BC008091BC0087FFFCCF8091BB008617F9
:1014B00049F4A0E0B0E0772767FD70956150704077
:1014C00094EC12C084E98093BC0080E0089590936E
:1014D000BC008091BC0087FFFCCF8091BB00F9016C
:1014E000EA0FFB1F80831196A617B70784F384E8E1
:1014F0008093BC008091BC0087FFFCCF8091BB0033
:10150000A20FB31F8C9384E98093BC0081E00895FF
:10151000982FF89484EA8093BC008091BC0087FFE8
:10152000FCCF80E58093BB0084E88093BC00809171
:10153000BC0087FFFCCF8091B900887F803231F4F6
:1015400084E98093BC00789480E0089583E08093E0
:10155000BB0084E88093BC008091BC0087FFFCCF77
:101560009093BB0084E88093BC008091BC0087FF0F
:10157000FCCF20E030E0552747FD509594E80EC0A1
:10158000FB01E20FF31F80818093BB009093BC00AE
:101590008091BC0087FFFCCF2F5F3F4F241735079A
:1015A0007CF384E98093BC00789481E00895FF92F5
:1015B0000F931F93182F062FF42E0E94270B84EAF7
:1015C0008093BC008091BC0087FFFCCF80E58093B6
:1015D000BB0084E88093BC008091BC0087FFFCCFF7
:1015E0008091B900887F803229F484E98093BC001F
:1015F00080E029C081E08093BB0084E88093BC0038
:101600008091BC0087FFFCCF1093BB0084E88093DF
:10161000BC008091BC0087FFFCCF0093BB0084E836
:101620008093BC008091BC0087FFFCCFF092BB0090
:1016300084E88093BC008091BC0087FFFCCF84E9E4
:101640008093BC0081E01F910F91FF900895589AFC
:10165000599A5A9A8CE08093B800E9E6F0E08081CC
:101660008062808380818F7E8083EA9A7894089557
:1016700084E88093BC008091BC0087FFFCCF809100
:10168000BB00089584E98093BC00089520E030E019
:101690008091BC0087FD06C02F5F3F4F83E0293E4D
:1016A0003807B1F780E0285E334009F081E0089503
:1016B0008093BB0084E88093BC000E94460B882383
:1016C00019F08091B900887F08950F931F93182F08
:1016D000062F84EA8093BC000E94460B882371F099
:1016E000812F880F002331F08F5F0E94580B8834C0
:1016F00051F404C00E94580B803229F484E980938D
:10170000BC0080E001C081E01F910F9108950F930C
:101710001F93162F042F60E00E94650B882379F039
:10172000812F0E94580B882351F0802F0E94580B64
:10173000882329F084E98093BC0081E001C080E027
:101740001F910F9108950F931F93082F162F60E09C
:101750000E94650B8823C1F0812F0E94580B8823BB
:1017600099F084E98093BC00802F61E00E94650BB2
:10177000882351F084E88093BC008091BC0087FFEF
:10178000FCCF8091BB0001C080E01F910F910895B4
:10179000EF92FF920F931F937B018C0120E030E0CA
:1017A00040E05FE40E94740F87FD11C0C801B701DB
:1017B00020E030E040E05FE40E946B0D0E943410B6
:1017C0009B01AC01205030404040504806C0C80149
:1017D000B7010E9434109B01AC01B901CA011F91ED
:1017E0000F91FF90EF900895A0E0B0E0EAEFFBE0EA
:1017F0000C94EC12FC01EA018081823008F438C1BB
:10180000DB019C91923008F430C1843059F494305B
:1018100009F02EC1918111968C911197981709F0BA
:1018200021C126C1943009F420C19230B1F4823034
:1018300009F01EC1CA01AF0128E0DA010D90AD0127
:10184000DC010D92CD012150C1F7DB0111968C9185
:1018500011979181892389830AC1823009F405C1D6
:10186000C280D380DB0112966D907C901397248107
:101870003581468157811496ED90FD900D911C9114
:101880001797C601861997095C0197FF04C0AA241F
:10189000BB24A81AB90AB0E2AB16B1040CF061C0BF
:1018A000181619066CF5370148010A2C04C09694E5
:1018B0008794779467940A94D2F781E090E0A0E04F
:1018C000B0E00A2C04C0880F991FAA1FBB1F0A94FE
:1018D000D2F70197A109B1098E219F21A023B1233D
:1018E000EE24FF248701E3940097A105B10519F4C4
:1018F000EE24FF248701E628F728082919293CC08F
:101900000097D1F1CA0CDB1C39014A010A2C04C032
:1019100096948794779467940A94D2F781E090E044
:10192000A0E0B0E00A2C04C0880F991FAA1FBB1FBB
:101930000A94D2F70197A109B10982239323A42322
:10194000B52321E030E040E050E00097A105B1056B
:1019500019F420E030E0A90126293729482959291E
:101960000BC06C147D0424F4EE24FF24870104C012
:10197000630120E030E0A9018181FB019181891799
:1019800009F445C0882349F0D801C701821B930B95
:10199000A40BB50B9C01AD0104C02E193F09400BEF
:1019A000510B57FD04C01982DB82CA820BC081E053
:1019B0008983DB82CA8250954095309521953F4FAF
:1019C0004F4F5F4F2C833D834E835F830DC0880F45
:1019D000991FAA1FBB1F8C839D83AE83BF838A81FF
:1019E0009B8101979B838A838C819D81AE81BF817E
:1019F0009C01AD0121503040404050402F3FEFEF5F
:101A00003E07EFEF4E07EFE35E0708F30BC0898355
:101A1000DB82CA822E0D3F1D401F511F2C833D8348
:101A20004E835F8383E088832C813D814E815F817B
:101A300057FF1DC0DA01C90181709070A070B070AD
:101A40005695479537952795822B932BA42BB52B2D
:101A50008C839D83AE83BF838A819B8101969B8308
:101A60008A8305C0E0E0F1E003C0FB0101C0FE0194
:101A7000CF01CDB7DEB7EEE00C940813A0E2B0E0E2
:101A8000E4E4FDE00C94F41269837A838B839C83F5
:101A90002D833E834F83588789E0E82EF12CEC0E8E
:101AA000FD1ECE010196B7010E9426128E010F5E27
:101AB0001F4FCE010596B8010E942612C701B8013A
:101AC000AE01475E5F4F0E94F40B0E945811A09632
:101AD000E6E00C941013A0E2B0E0E1E7FDE00C9426
:101AE000F41269837A838B839C832D833E834F8397
:101AF00058878E01075F1F4FCE010196B8010E94E3
:101B0000261291E1E92EF12CEC0EFD1ECE01059678
:101B1000B7010E9426128A8991E089278A8BC80121
:101B2000B701AE01475E5F4F0E94F40B0E9458114F
:101B3000A096E6E00C941013A0E2B0E0E2EAFDE02B
:101B40000C94E81269837A838B839C832D833E8374
:101B50004F835887CE010196BE01675F7F4F0E9479
:101B60002612CE010596BE016F5E7F4F0E9426129F
:101B70009985923078F089898230C0F0943019F4D8
:101B8000823041F4CBC0843019F4923079F4C6C06D
:101B9000923051F481E02A859A89291709F480E06E
:101BA0008A87CE010996BCC0823051F481E02A8533
:101BB0009A89291709F480E08A8BCE014196B0C03A
:101BC0006D847E848F849888ED88FE880F89188DB7
:101BD000E0E2F0E080E090E0DC01AA24BB246501B3
:101BE00020E030E0A901B3016170707061157105EA
:101BF000D1F02E0D3F1D401F511F15012601280E4B
:101C0000391E4A1E5B1E81E090E0A0E0B0E02E1578
:101C10003F054007510718F080E090E0DC01820D9D
:101C2000931DA41DB51DAA0CBB1CCC1CDD1C17FFED
:101C300009C061E0262E312C412C512CA228B3285A
:101C4000C428D528319749F0EE0CFF1C001F111F46
:101C50009694879477946794C6CF6B897C89EB853B
:101C6000FC856E0F7F1F6E5F7F4F7C8F6B8F61E0F7
:101C7000EA857A89E71709F460E06A8F6B8D7C8DBD
:101C800010C0FC01E170F070309729F0569547952F
:101C9000379527955068B695A795979587956F5F67
:101CA0007F4FB7FDEECF0CC0880F991FAA1FBB1F37
:101CB00057FD8160220F331F441F551F6150704034
:101CC0008030E0E09E07E0E0AE07E0E4BE0760F3AE
:101CD0006B8F7C8F6FE7E62EF12C012D112DE82202
:101CE000F9220A231B2360E4E616F104010511051D
:101CF00061F487FD0AC0211531054105510529F020
:101D0000805C9F4FAF4FBF4F80788D8F9E8FAF8F7E
:101D1000B8A383E0898FCE01499602C080E091E0AC
:101D20000E945811A096E2E10C940413A8E1B0E0DF
:101D3000ECE9FEE00C94F01269837A838B839C8338
:101D40002D833E834F8358878E01075F1F4FCE013F
:101D50000196B8010E94261281E1E82EF12CEC0ECA
:101D6000FD1ECE010596B7010E942612998592307C
:101D700008F483C08989823008F47BC02A853A89B7
:101D800023272A87943011F0923021F4981709F014
:101D90006CC071C0843039F41D861E861F86188A77
:101DA0001C861B866AC0823019F484E0898765C06E
:101DB0008B859C852B893C89821B930B9C878B8709
:101DC0002D853E854F855889ED88FE880F89188DB1
:101DD0002E153F054007510738F4220F331F441FCB
:101DE000551F01979C878B876FE170E0A12CB12C68
:101DF000C12CA0E4DA2E80E090E0DC012E153F0536
:101E00004007510740F08A299B29AC29BD292E198A
:101E10003F09400B510BD694C794B794A794220F57
:101E2000331F441F551F6150704041F76FE7E62E86
:101E3000F12C012D112DE822F9220A231B2360E445
:101E4000E616F1040105110561F487FD0AC02115AC
:101E500031054105510529F0805C9F4FAF4FBF4FC1
:101E600080788D879E87AF87B88B8E01075F1F4F65
:101E700004C0870102C000E011E0C8010E945811AF
:101E80006896EAE00C940C13A8E1B0E0EAE4FFE005
:101E90000C94F41269837A838B839C832D833E8315
:101EA0004F8358878E01075F1F4FCE010196B801FF
:101EB0000E94261281E1E82EF12CEC0EFD1ECE01CF
:101EC0000596B7010E9426128985823040F08989E3
:101ED000823028F0C801B7010E948F1201C08FEF35
:101EE0006896E6E00C941013A8E1B0E0EAE7FFE0A2
:101EF0000C94F41269837A838B839C832D833E83B5
:101F00004F8358878E01075F1F4FCE010196B8019E
:101F10000E94261281E1E82EF12CEC0EFD1ECE016E
:101F20000596B7010E9426128985823040F0898982
:101F3000823028F0C801B7010E948F1201C08FEFD4
:101F40006896E6E00C941013A8E1B0E0EAEAFFE03E
:101F50000C94F41269837A838B839C832D833E8354
:101F60004F8358878E01075F1F4FCE010196B8013E
:101F70000E94261281E1E82EF12CEC0EFD1ECE010E
:101F80000596B7010E9426128985823040F0898922
:101F9000823028F0C801B7010E948F1201C081E091
:101FA0006896E6E00C941013A8E0B0E0EAEDFFE0DC
:101FB0000C94F4127B018C0183E08983D801C70162
:101FC0008827B7FD83959927AA27BB27282F8A83BF
:101FD000E114F1040105110519F482E0898337C089
:101FE0008EE190E09C838B83222389F080E0E816C9
:101FF00080E0F80680E0080780E8180769F110958E
:102000000095F094E094E11CF11C011D111DED827E
:10201000FE820F831887C801B7010E94FE109C0141
:10202000215030401216130694F4022E04C0EE0C18
:10203000FF1C001F111F0A94D2F7ED82FE820F834E
:1020400018878EE190E0821B930B9C838B83CE01DB
:1020500001960E94581104C060E070E080E09FEC9F
:102060002896E6E00C941013ACE0B0E0EAE3F0E16F
:102070000C94F81269837A838B839C83CE0101963A
:10208000BE016B5F7F4F0E9426128D81823081F1ED
:10209000823070F1843021F48E81882369F10AC086
:1020A0002F81388537FD24C06E812F3131053CF0FA
:1020B000662311F120E030E040E050E821C08EE1DD
:1020C00090E0821B930B29853A854B855C8504C083
:1020D00056954795379527958A95D2F7662381F0CF
:1020E00050954095309521953F4F4F4F5F4F08C019
:1020F00020E030E0A90104C02FEF3FEF4FEF5FE792
:10210000B901CA012C96E2E00C941413A8E0B0E0E7
:10211000ECE8F0E10C94F2127B018C011A8261155B
:1021200071058105910519F482E089835FC083E020
:1021300089838EE1C82ED12CDC82CB82ED82FE8297
:102140000F831887C801B7010E94FE10FC01319768
:10215000F7FF3AC0AA27BB27AE1BBF0B21E030E038
:1021600040E050E00A2E04C0220F331F441F551FC9
:102170000A94D2F721503040404050402E213F2158
:102180004023512361E070E080E090E021153105AB
:102190004105510519F460E070E0CB0104C01695CB
:1021A0000795F794E794AA95D2F7E62AF72A082B21
:1021B000192BED82FE820F8318878EE190E08E1B33
:1021C0009F0B9C838B8312C0309781F00E2E04C02E
:1021D000EE0CFF1C001F111F0A94D2F7ED82FE8245
:1021E0000F831887CE1ADF0ADC82CB82CE010196DC
:1021F0000E9458112896E8E00C940E13AF92BF92FB
:10220000CF92DF92EF92FF920F931F937B018C018D
:1022100080E0E81680E0F80681E0080780E0180713
:1022200058F4EFEFEE16F1040105110509F090F4F2
:1022300080E090E0DC0117C0F0E0EF16F0E0FF0670
:10224000F0E00F07F1E01F0750F480E190E0A0E01C
:10225000B0E009C088E090E0A0E0B0E004C088E110
:1022600090E0A0E0B0E020E230E040E050E0281B49
:10227000390B4A0B5B0B5701680104C0D694C79415
:10228000B794A7948A95D2F7D601C501885F9E4F6F
:10229000FC018081281B310941095109C9011F91A5
:1022A0000F91FF90EF90DF90CF90BF90AF90089587
:1022B000EF92FF920F931F93CF93DF93FC01248142
:1022C00035814681578161818081823020F440616F
:1022D000EFEFF0E0A3C0843009F49BC0823009F432
:1022E00092C0211531054105510509F48FC00280C6
:1022F000F381E02D8FEFE238F8070CF05AC0C2E806
:10230000DFEFCE1BDF0BCA31D1056CF579018A01F5
:102310000C2E04C016950795F794E7940A94D2F70B
:1023200081E090E0A0E0B0E00C2E04C0880F991F7F
:10233000AA1FBB1F0A94D2F70197A109B1098223F2
:102340009323A423B52321E030E040E050E0009740
:10235000A105B10519F420E030E0A9012E293F299B
:10236000402B512B03C020E030E0A901DA01C90164
:102370008F779070A070B07080349105A105B10581
:1023800039F427FF09C0205C3F4F4F4F5F4F04C017
:10239000215C3F4F4F4F5F4FE1E0F0E0203080E0A5
:1023A000380780E0480780E4580728F5E0E0F0E0CF
:1023B00022C0E038F1056CF5E158FF4FDA01C901A0
:1023C0008F779070A070B07080349105A105B10531
:1023D00039F427FF09C0205C3F4F4F4F5F4F04C0C7
:1023E000215C3F4F4F4F5F4F57FF05C056954795B4
:1023F00037952795319687E05695479537952795D8
:102400008A95D1F70BC0E0E0F0E005C0E0E0F0E035
:1024100005C0EFEFF0E020E030E0A9018E2F8795B6
:1024200088278795942F9F77679566276795E69508
:10243000E22EA92FA82BFE2FF62B622F732F8A2FA7
:102440009F2FCDB7DEB7E6E00C941013DC01FB0143
:102450002C9111963C91119712968C911297482FBE
:102460004F7750E0982F991F9927991F13966C91D9
:102470001397862F880F892B90E0661F6627661FAB
:102480006183009739F5211531054105510511F496
:1024900082E029C082E89FEF9383828367E0220F66
:1024A000331F441F551F6A95D1F783E0808309C00D
:1024B000220F331F441F551F8281938101979383FD
:1024C0008283203080E0380780E0480780E45807A6
:1024D00078F320C08F3F910579F42115310541052E
:1024E000510519F484E08083089544FF03C081E01E
:1024F000808310C010820EC08F57904093838283D8
:1025000083E0808387E0220F331F441F551F8A9585
:10251000D1F7506424833583468357830895FC01A3
:10252000DB019081923008F449C08C91823008F42C
:1025300045C0943051F461818430B1F511962C91ED
:10254000119730E0261B310941C0843021F09230D0
:1025500041F48230B1F111968C9111978823A1F149
:102560002DC06181823001F111968C91119768170D
:10257000D9F42281338112968D919C911397821701
:10258000930794F028173907BCF0248135814681E0
:10259000578114968D919D910D90BC91A02D82171D
:1025A0009307A407B50718F4662341F00DC0281758
:1025B00039074A075B0728F4662331F021E030E051
:1025C00005C020E030E002C02FEF3FEFC9010895C1
:1025D0002F923F924F925F926F927F928F929F9233
:1025E000AF92BF92CF92DF92EF92FF920F931F9321
:1025F000CF93DF93CDB7DEB7CA1BDB0B0FB6F894D2
:10260000DEBF0FBECDBF09942A88398848885F8411
:102610006E847D848C849B84AA84B984C884DF8082
:10262000EE80FD800C811B81AA81B981CE0FD11D66
:102630000FB6F894DEBF0FBECDBFED010895FC01CB
:1026400088279927E89421912032E9F3293010F066
:102650002E30C8F32B3241F02D3239F4689404C087
:102660000E943D13820F911D219120532A30C0F307
:102670001EF4909581959F4F08957AE0979F902D35
:0E268000879F802D910D11240895F894FFCFAF
:10268E00000000000000000000010202030303032B
:10269E0004040404040404040505050505050505E4
:1026AE0005050505050505050606060606060606C4
:1026BE0006060606060606060606060606060606AC
:1026CE000606060606060606070707070707070794
:1026DE00070707070707070707070707070707077C
:1026EE00070707070707070707070707070707076C
:1026FE00070707070707070707070707070707075C
:10270E000707070707070707080808080808080843
:10271E00080808080808080808080808080808082B
:10272E00080808080808080808080808080808081B
:10273E00080808080808080808080808080808080B
:10274E0008080808080808080808080808080808FB
:10275E0008080808080808080808080808080808EB
:10276E0008080808080808080808080808080808DB
:10277E0008080808080808080808080808080808CB
:08278E00080808080808080803
:00000001FF
