:100000000C948C000C94A9000C94A9000C94A900E9
:100010000C94A9000C94A9000C94A9000C94A900BC
:100020000C94A9000C94A9000C94A9000C94A900AC
:100030000C94A9000C94A9000C94A9000C94A9009C
:100040000C94A9000C94A9000C94A9000C94A9008C
:100050000C94A9000C94A9000C94A9000C94A9007C
:100060000C94A9000C94A9000C94A9000C94A9006C
:100070000C94A9000C94A9000C94A9000C94AB005A
:100080000C94A9000C94A9000C94A9000C94A9004C
:100090000C94A9000C94A9000C94A9000C94A9003C
:1000A0000C94A9000C94A9000C94A9008E02910252
:1000B0004202420294029D02A602B0027C02820227
:1000C0008502500253025602440247024A024D0280
:1000D0005902620265026B0273027F025C025F02D8
:1000E0008B024D035403780378035B0362036903B7
:1000F0007003280336033D03E002E702EE02C60266
:10010000CB02D202D902F5020C0313031A03210316
:100110002F03FD020403450311241FBECFEFDAE0D5
:10012000DEBFCDBF11E0A0E0B1E0E6E3F7E002C042
:1001300005900D92A430B107D9F711E0A4E0B1E029
:1001400001C01D92AA30B107E1F70E945E010C9434
:1001500099030C9400001F920F920FB60F92112476
:100160002F933F934F935F936F937F938F939F93BF
:10017000AF93BF93EF93FF938091910086FF12C0DE
:1001800080919600909197009093070180930601CB
:10019000C09A809191008F7B8093910081E00E94B2
:1001A00089031AC0809196009091970020910601D2
:1001B00030910701821B930B9093070180930601F6
:1001C0008091910080648093910080E00E94890377
:1001D0001092050110920401C59AFF91EF91BF9111
:1001E000AF919F918F917F916F915F914F913F91CF
:1001F0002F910F900FBE0F901F90189581E090E007
:10020000909305018093040178943F98E1E9F0E030
:10021000808180648083A1E7B0E08C9180628C93C0
:1002200080818160808308953F9A89E160E00E9427
:10023000B6028FE39FE10197F1F700C0000089E16A
:1002400061E00E94B6028FE19EE40197F1F700C0E1
:10025000000089E160E00E94B6028091080190915F
:10026000090101969093090180930801089587E0A0
:1002700060E00E94B60286E060E00E94B6020E9442
:1002800014010E94FE00089587E061E00E94B6021A
:1002900086E060E00E94B6020E9414010E94FE0007
:1002A000089587E060E00E94B60286E061E00E9467
:1002B000B6020E9414010E94FE0008956E9A8EB14B
:1002C0001EB880E885BF85BF8093610010926100F1
:1002D00081E00E947903109297001092960086E0C8
:1002E00060E00E94B60287E060E00E94B6028AE009
:1002F00060E00E94B60289E060E00E94B60287E1F9
:1003000060E00E94B602809104019091050100977F
:10031000D1F720910801309109018091020190915B
:10032000030182179307FCF00E9437018FED9EE2D4
:100330000197F1F700C000002091060130910701FC
:1003400080910001909101012817390764F48AE037
:1003500061E00E94B60289E060E00E94B60287E197
:1003600060E00E94B602409108015091090180911D
:100370000201909103019C01220F331F24173507BE
:1003800034F1209108013091090182179307FCF4A0
:100390000E9444018FED9EE20197F1F700C000003A
:1003A0002091060130910701809100019091010197
:1003B0002817390764F48AE060E00E94B60289E0F9
:1003C00061E00E94B60287E160E00E94B6024091BF
:1003D0000801509109012091020130910301C901E6
:1003E000880F991F280F391F2417350734F12091E2
:1003F00008013091090182179307FCF40E94510112
:100400008FED9EE20197F1F700C0000020910601F8
:10041000309107018091000190910101281739075F
:1004200064F48AE060E00E94B60289E060E00E9425
:10043000B60287E161E00E94B60240910801509146
:1004400009012091020130910301C901880F991F10
:10045000820F931F841795070CF055CF1092090156
:100460001092080150CFE82FFF27E7FDF095EB3100
:10047000F10540F4EA5AFF4FEE0FFF1F0590F4918B
:10048000E02D099480E00895209883B167C02198F9
:1004900083B11DC0229883B120C0239883B125C0A9
:1004A000249883B143C0259883B149C0269883B16D
:1004B0004FC0279883B12BC03E9886B149C03F9862
:1004C00086B125C0509889B149C0519889B190E052
:1004D0009695879543C0529889B190E096958795F7
:1004E000969587953BC0539889B190E053E09695D7
:1004F00087955A95E1F732C0549889B117C055983D
:1005000089B11DC0569889B123C0579889B1881FF9
:100510008827881F08956E988CB11AC080988FB173
:100520001DC081988FB1D3CF84988FB190E044E003
:10053000969587954A95E1F711C085988FB190E01F
:1005400035E0969587953A95E1F708C086988FB182
:1005500090E026E0969587952A95E1F781700895B9
:1005600087988FB1881F8827881F0895E82FFF2755
:10057000E7FDF095EB31F10508F0BAC0EF58FF4FF9
:10058000EE0FFF1F0590F491E02D0994209A662349
:10059000D1F4289830C0219A662311F0299A2BC0F3
:1005A000299829C0229A662311F02A9A24C02A98F1
:1005B00022C0239A662311F02B9A1DC02B981BC0D2
:1005C000249A662311F02C9A16C02C9814C0259AF0
:1005D000662311F02D9A0FC02D980DC0269A662320
:1005E00011F02E9A08C02E9806C0279A662311F0A3
:1005F0002F9A01C02F9885B108953E9A662311F075
:10060000469A08C0469806C03F9A662311F0479A5A
:1006100001C0479888B10895509A662311F0589AFE
:1006200032C0589830C0519A662311F0599A2BC0A5
:10063000599829C0529A662311F05A9A24C05A98A0
:1006400022C0539A662311F05B9A1DC05B981BC0B1
:10065000549A662311F05C9A16C05C9814C0559A9F
:10066000662311F05D9A0FC05D980DC0569A6623FF
:1006700011F05E9A08C05E9806C0579A662311F082
:100680005F9A01C05F988BB108956E9A662311F04E
:10069000769A01C076988EB10895809A662311F0FB
:1006A000889A22C0889820C0819A662311F0899A7E
:1006B0001BC0899819C0849A662311F08C9A14C0C3
:1006C0008C9812C0859A662311F08D9A0DC08D9872
:1006D0000BC0869A662311F08E9A06C08E9804C0CD
:1006E000879A662319F08F9A81B308958F9881B302
:1006F00008956A9A813031F0823031F0882341F4D4
:10070000729A0895729808958EB194E089278EB9EF
:1007100008956E9A813031F0823031F0882341F4AF
:10072000769A0895769808958EB190E489278EB9C7
:060730000895F894FFCFCC
:040736008813010023
:00000001FF
